{
  "_format": "hh-sol-artifact-1",
  "contractName": "CollectorSetManager",
  "sourceName": "contracts/CollectorSetManager.sol",
  "abi": [
    {
      "inputs": [],
      "stateMutability": "nonpayable",
      "type": "constructor"
    },
    {
      "inputs": [
        {
          "internalType": "address",
          "name": "target",
          "type": "address"
        }
      ],
      "name": "AddressEmptyCode",
      "type": "error"
    },
    {
      "inputs": [
        {
          "internalType": "address",
          "name": "implementation",
          "type": "address"
        }
      ],
      "name": "ERC1967InvalidImplementation",
      "type": "error"
    },
    {
      "inputs": [],
      "name": "ERC1967NonPayable",
      "type": "error"
    },
    {
      "inputs": [],
      "name": "FailedCall",
      "type": "error"
    },
    {
      "inputs": [],
      "name": "InvalidInitialization",
      "type": "error"
    },
    {
      "inputs": [],
      "name": "NotInitializing",
      "type": "error"
    },
    {
      "inputs": [
        {
          "internalType": "address",
          "name": "owner",
          "type": "address"
        }
      ],
      "name": "OwnableInvalidOwner",
      "type": "error"
    },
    {
      "inputs": [
        {
          "internalType": "address",
          "name": "account",
          "type": "address"
        }
      ],
      "name": "OwnableUnauthorizedAccount",
      "type": "error"
    },
    {
      "inputs": [],
      "name": "UUPSUnauthorizedCallContext",
      "type": "error"
    },
    {
      "inputs": [
        {
          "internalType": "bytes32",
          "name": "slot",
          "type": "bytes32"
        }
      ],
      "name": "UUPSUnsupportedProxiableUUID",
      "type": "error"
    },
    {
      "anonymous": false,
      "inputs": [
        {
          "indexed": false,
          "internalType": "uint64",
          "name": "version",
          "type": "uint64"
        }
      ],
      "name": "Initialized",
      "type": "event"
    },
    {
      "anonymous": false,
      "inputs": [
        {
          "indexed": true,
          "internalType": "address",
          "name": "previousOwner",
          "type": "address"
        },
        {
          "indexed": true,
          "internalType": "address",
          "name": "newOwner",
          "type": "address"
        }
      ],
      "name": "OwnershipTransferred",
      "type": "event"
    },
    {
      "anonymous": false,
      "inputs": [
        {
          "indexed": true,
          "internalType": "address",
          "name": "user",
          "type": "address"
        },
        {
          "indexed": true,
          "internalType": "bytes32",
          "name": "setId",
          "type": "bytes32"
        }
      ],
      "name": "SetCompleted",
      "type": "event"
    },
    {
      "anonymous": false,
      "inputs": [
        {
          "indexed": true,
          "internalType": "bytes32",
          "name": "setId",
          "type": "bytes32"
        }
      ],
      "name": "SetDefined",
      "type": "event"
    },
    {
      "anonymous": false,
      "inputs": [
        {
          "indexed": true,
          "internalType": "address",
          "name": "implementation",
          "type": "address"
        }
      ],
      "name": "Upgraded",
      "type": "event"
    },
    {
      "inputs": [],
      "name": "UPGRADE_INTERFACE_VERSION",
      "outputs": [
        {
          "internalType": "string",
          "name": "",
          "type": "string"
        }
      ],
      "stateMutability": "view",
      "type": "function"
    },
    {
      "inputs": [
        {
          "internalType": "bytes32",
          "name": "setId",
          "type": "bytes32"
        }
      ],
      "name": "claimSetCompletion",
      "outputs": [],
      "stateMutability": "nonpayable",
      "type": "function"
    },
    {
      "inputs": [
        {
          "internalType": "address",
          "name": "",
          "type": "address"
        },
        {
          "internalType": "bytes32",
          "name": "",
          "type": "bytes32"
        }
      ],
      "name": "completedSets",
      "outputs": [
        {
          "internalType": "bool",
          "name": "",
          "type": "bool"
        }
      ],
      "stateMutability": "view",
      "type": "function"
    },
    {
      "inputs": [
        {
          "internalType": "bytes32",
          "name": "setId",
          "type": "bytes32"
        },
        {
          "components": [
            {
              "internalType": "address",
              "name": "contractAddress",
              "type": "address"
            },
            {
              "internalType": "uint256",
              "name": "tokenId",
              "type": "uint256"
            }
          ],
          "internalType": "struct CollectorSetManager.NFTIdentifier[]",
          "name": "requiredNFTs",
          "type": "tuple[]"
        }
      ],
      "name": "defineSet",
      "outputs": [],
      "stateMutability": "nonpayable",
      "type": "function"
    },
    {
      "inputs": [
        {
          "internalType": "address",
          "name": "initialOwner",
          "type": "address"
        }
      ],
      "name": "initialize",
      "outputs": [],
      "stateMutability": "nonpayable",
      "type": "function"
    },
    {
      "inputs": [],
      "name": "owner",
      "outputs": [
        {
          "internalType": "address",
          "name": "",
          "type": "address"
        }
      ],
      "stateMutability": "view",
      "type": "function"
    },
    {
      "inputs": [],
      "name": "proxiableUUID",
      "outputs": [
        {
          "internalType": "bytes32",
          "name": "",
          "type": "bytes32"
        }
      ],
      "stateMutability": "view",
      "type": "function"
    },
    {
      "inputs": [],
      "name": "renounceOwnership",
      "outputs": [],
      "stateMutability": "nonpayable",
      "type": "function"
    },
    {
      "inputs": [
        {
          "internalType": "bytes32",
          "name": "",
          "type": "bytes32"
        },
        {
          "internalType": "uint256",
          "name": "",
          "type": "uint256"
        }
      ],
      "name": "sets",
      "outputs": [
        {
          "internalType": "address",
          "name": "contractAddress",
          "type": "address"
        },
        {
          "internalType": "uint256",
          "name": "tokenId",
          "type": "uint256"
        }
      ],
      "stateMutability": "view",
      "type": "function"
    },
    {
      "inputs": [
        {
          "internalType": "address",
          "name": "newOwner",
          "type": "address"
        }
      ],
      "name": "transferOwnership",
      "outputs": [],
      "stateMutability": "nonpayable",
      "type": "function"
    },
    {
      "inputs": [
        {
          "internalType": "address",
          "name": "newImplementation",
          "type": "address"
        },
        {
          "internalType": "bytes",
          "name": "data",
          "type": "bytes"
        }
      ],
      "name": "upgradeToAndCall",
      "outputs": [],
      "stateMutability": "payable",
      "type": "function"
    }
  ],
  "bytecode": "0x60a080604052346100ea57306080527ff0c57e16840df040f15088dc2f81fe391c3923bec73e23a9662efc9c229c6a005460ff8160401c166100d9576002600160401b03196001600160401b03821601610073575b604051610d9d90816100f082396080518181816106ad01526107810152f35b6001600160401b0319166001600160401b039081177ff0c57e16840df040f15088dc2f81fe391c3923bec73e23a9662efc9c229c6a005581527fc7f505b2f371ae2175ee4913f4499e1f2633a7b5936321eed1cdaeb6115181d290602090a13880610054565b63f92ee8a960e01b60005260046000fd5b600080fdfe6080604052600436101561001257600080fd5b60003560e01c80630e9f58d5146109455780634f1ef2861461070457806352d1902d1461069a578063715018a6146106305780638da5cb5b146105fa578063a0ea4221146105ad578063ad3cb1cc14610531578063c4d66de8146103da578063dc97270214610382578063f2fde38b146103575763f9d5b89d1461009557600080fd5b346103525760203660031901126103525760043533600052600160205260406000208160005260205260ff6040600020541661031457806000526000602052604060002080549067ffffffffffffffff82116102fe57604051916100ff60208260051b0184610b64565b80835260208301916000526020600020916000905b8282106102b757858580511561027f5760005b8151811015610231576001600160a01b036101428284610c18565b5151166020806101528486610c18565b5101516024604051809481936331a9108f60e11b835260048301525afa908115610225576000916101dd575b50336001600160a01b039091160361019857600101610127565b60405162461bcd60e51b815260206004820152601860248201527f5365744d616e616765723a204d697373696e67204e46542e00000000000000006044820152606490fd5b6020813d821161021d575b816101f560209383610b64565b810103126102195751906001600160a01b038216820361021657508461017e565b80fd5b5080fd5b3d91506101e8565b6040513d6000823e3d90fd5b823360005260016020526040600020816000526020526040600020600160ff19825416179055337f88e7e48bdbebc5633327d0fd1e6505c15b5f2015ad5e02f83944462d296d1492600080a3005b60405162461bcd60e51b815260206004820152601060248201526f29b2ba26b0b730b3b2b91d102227229760811b6044820152606490fd5b6040516040810181811067ffffffffffffffff8211176102fe57600192600292602092604052848060a01b0388541681528488015483820152815201940191019092610114565b634e487b7160e01b600052604160045260246000fd5b60405162461bcd60e51b815260206004820152601660248201527529b2ba26b0b730b3b2b91d1021b7b6b83632ba32b21760511b6044820152606490fd5b600080fd5b3461035257602036600319011261035257610380610373610b4e565b61037b610c42565b610ba2565b005b3461035257604036600319011261035257602435600435600052600060205260406000209081548110156103525760409160005260206000209060011b016001808060a01b0382541691015482519182526020820152f35b34610352576020366003190112610352576103f3610b4e565b600080516020610d488339815191525460ff8160401c16159167ffffffffffffffff821680159081610529575b600114908161051f575b159081610516575b506105055767ffffffffffffffff198216600117600080516020610d488339815191525561047191836104d8575b50610469610c78565b61037b610c78565b610479610c78565b61047f57005b68ff000000000000000019600080516020610d488339815191525416600080516020610d48833981519152557fc7f505b2f371ae2175ee4913f4499e1f2633a7b5936321eed1cdaeb6115181d2602060405160018152a1005b68ffffffffffffffffff19166801000000000000000117600080516020610d488339815191525583610460565b63f92ee8a960e01b60005260046000fd5b90501584610432565b303b15915061042a565b849150610420565b346103525760003660031901126103525760408051906105518183610b64565b60058252640352e302e360dc1b6020830152805180926020825280519081602084015260005b8281106105965750506000828201840152601f01601f19168101030190f35b602082820181015187830187015286945001610577565b34610352576040366003190112610352576001600160a01b036105ce610b4e565b1660005260016020526040600020602435600052602052602060ff604060002054166040519015158152f35b3461035257600036600319011261035257600080516020610d08833981519152546040516001600160a01b039091168152602090f35b3461035257600036600319011261035257610649610c42565b600080516020610d0883398151915280546001600160a01b031981169091556000906001600160a01b03167f8be0079c531659141344cd1fd0a4f28419497f9722a3daafe3b4186f6b6457e08280a3005b34610352576000366003190112610352577f00000000000000000000000000000000000000000000000000000000000000006001600160a01b031630036106f3576020604051600080516020610d288339815191528152f35b63703e46dd60e11b60005260046000fd5b604036600319011261035257610718610b4e565b6024359067ffffffffffffffff821161035257366023830112156103525781600401359061074582610b86565b916107536040519384610b64565b8083526020830193366024838301011161035257816000926024602093018737840101526001600160a01b037f000000000000000000000000000000000000000000000000000000000000000016308114908115610922575b506106f3576107b9610c42565b6040516352d1902d60e01b81526001600160a01b0382169390602081600481885afa600091816108ee575b506107fe5784634c9c8ce360e01b60005260045260246000fd5b80600080516020610d288339815191528692036108da5750823b156108c657600080516020610d2883398151915280546001600160a01b031916821790557fbc7cd75a20ee27fd9adebab32041f755214dbc6bffa90cc0225b39da2e5c2d3b600080a28251156108ab5760008091610380945190845af43d156108a3573d9161088683610b86565b926108946040519485610b64565b83523d6000602085013e610ca6565b606091610ca6565b505050346108b557005b63b398979f60e01b60005260046000fd5b634c9c8ce360e01b60005260045260246000fd5b632a87526960e21b60005260045260246000fd5b9091506020813d60201161091a575b8161090a60209383610b64565b81010312610352575190866107e4565b3d91506108fd565b600080516020610d28833981519152546001600160a01b031614159050846107ac565b346103525760403660031901126103525760043560243567ffffffffffffffff8111610352573660238201121561035257806004013567ffffffffffffffff8111610352573660248260061b84010111610352576109a1610c42565b826000526000602052604060002054610b13578015610ad9578260005260006020526040600020916801000000000000000082116102fe578254828455808310610a6e575b506024019160005260206000206000925b828410610a2657847f6ec8e1a0d018926f4924a07198964de50d528639647d59732c65a01a545fff31600080a2005b80356001600160a01b03811691908290036103525760406002916001936bffffffffffffffffffffffff60a01b865416178555602081013584860155019201930192906109f7565b6001600160ff1b0381168103610ac3576001600160ff1b0383168303610ac3578360005260206000209060011b8101908360011b015b818110610ab157506109e6565b60008082556001820155600201610aa4565b634e487b7160e01b600052601160045260246000fd5b60405162461bcd60e51b815260206004820152601260248201527129b2ba26b0b730b3b2b91d1022b6b83a3c9760711b6044820152606490fd5b60405162461bcd60e51b815260206004820152601360248201527229b2ba26b0b730b3b2b91d1022bc34b9ba399760691b6044820152606490fd5b600435906001600160a01b038216820361035257565b90601f8019910116810190811067ffffffffffffffff8211176102fe57604052565b67ffffffffffffffff81116102fe57601f01601f191660200190565b6001600160a01b03168015610c0257600080516020610d0883398151915280546001600160a01b0319811683179091556001600160a01b03167f8be0079c531659141344cd1fd0a4f28419497f9722a3daafe3b4186f6b6457e0600080a3565b631e4fbdf760e01b600052600060045260246000fd5b8051821015610c2c5760209160051b010190565b634e487b7160e01b600052603260045260246000fd5b600080516020610d08833981519152546001600160a01b03163303610c6357565b63118cdaa760e01b6000523360045260246000fd5b60ff600080516020610d488339815191525460401c1615610c9557565b631afcd79f60e31b60005260046000fd5b90610ccc5750805115610cbb57805190602001fd5b63d6bda27560e01b60005260046000fd5b81511580610cfe575b610cdd575090565b639996b31560e01b60009081526001600160a01b0391909116600452602490fd5b50803b15610cd556fe9016d09d72d40fdae2fd8ceac6b6234c7706214fd39c1cd1e609a0528c199300360894a13ba1a3210667c828492db98dca3e2076cc3735a920a3ca505d382bbcf0c57e16840df040f15088dc2f81fe391c3923bec73e23a9662efc9c229c6a00a2646970667358221220fe4763708f328953df816903439ed833bfa409fc19a03cb3363551511376a6c864736f6c634300081e0033",
  "linkReferences": {},
  "deployedLinkReferences": {}
}