{
  "_format": "hh-sol-artifact-1",
  "contractName": "NFTAuctionHouse",
  "sourceName": "contracts/NFTAuctionHouse.sol",
  "abi": [
    {
      "inputs": [],
      "stateMutability": "nonpayable",
      "type": "constructor"
    },
    {
      "anonymous": false,
      "inputs": [
        {
          "indexed": true,
          "internalType": "uint256",
          "name": "auctionId",
          "type": "uint256"
        },
        {
          "indexed": true,
          "internalType": "address",
          "name": "seller",
          "type": "address"
        },
        {
          "indexed": true,
          "internalType": "address",
          "name": "nftAddress",
          "type": "address"
        },
        {
          "indexed": false,
          "internalType": "uint256",
          "name": "tokenId",
          "type": "uint256"
        },
        {
          "indexed": false,
          "internalType": "uint256",
          "name": "startingBid",
          "type": "uint256"
        },
        {
          "indexed": false,
          "internalType": "uint256",
          "name": "endAt",
          "type": "uint256"
        }
      ],
      "name": "AuctionCreated",
      "type": "event"
    },
    {
      "anonymous": false,
      "inputs": [
        {
          "indexed": true,
          "internalType": "uint256",
          "name": "auctionId",
          "type": "uint256"
        },
        {
          "indexed": false,
          "internalType": "address",
          "name": "winner",
          "type": "address"
        },
        {
          "indexed": false,
          "internalType": "uint256",
          "name": "winningBid",
          "type": "uint256"
        }
      ],
      "name": "AuctionEnded",
      "type": "event"
    },
    {
      "anonymous": false,
      "inputs": [
        {
          "indexed": true,
          "internalType": "uint256",
          "name": "auctionId",
          "type": "uint256"
        },
        {
          "indexed": true,
          "internalType": "address",
          "name": "bidder",
          "type": "address"
        },
        {
          "indexed": false,
          "internalType": "uint256",
          "name": "amount",
          "type": "uint256"
        }
      ],
      "name": "BidPlaced",
      "type": "event"
    },
    {
      "anonymous": false,
      "inputs": [
        {
          "indexed": true,
          "internalType": "address",
          "name": "previousOwner",
          "type": "address"
        },
        {
          "indexed": true,
          "internalType": "address",
          "name": "newOwner",
          "type": "address"
        }
      ],
      "name": "OwnershipTransferred",
      "type": "event"
    },
    {
      "anonymous": false,
      "inputs": [
        {
          "indexed": true,
          "internalType": "address",
          "name": "implementation",
          "type": "address"
        }
      ],
      "name": "Upgraded",
      "type": "event"
    },
    {
      "inputs": [],
      "name": "auctionCount",
      "outputs": [
        {
          "internalType": "uint256",
          "name": "",
          "type": "uint256"
        }
      ],
      "stateMutability": "view",
      "type": "function"
    },
    {
      "inputs": [
        {
          "internalType": "uint256",
          "name": "",
          "type": "uint256"
        }
      ],
      "name": "auctions",
      "outputs": [
        {
          "internalType": "address",
          "name": "seller",
          "type": "address"
        },
        {
          "internalType": "address",
          "name": "nftAddress",
          "type": "address"
        },
        {
          "internalType": "uint256",
          "name": "tokenId",
          "type": "uint256"
        },
        {
          "internalType": "uint256",
          "name": "endAt",
          "type": "uint256"
        },
        {
          "internalType": "address",
          "name": "highestBidder",
          "type": "address"
        },
        {
          "internalType": "uint256",
          "name": "highestBid",
          "type": "uint256"
        },
        {
          "internalType": "bool",
          "name": "ended",
          "type": "bool"
        }
      ],
      "stateMutability": "view",
      "type": "function"
    },
    {
      "inputs": [
        {
          "internalType": "address",
          "name": "_nftAddress",
          "type": "address"
        },
        {
          "internalType": "uint256",
          "name": "_tokenId",
          "type": "uint256"
        },
        {
          "internalType": "uint256",
          "name": "_startingBid",
          "type": "uint256"
        },
        {
          "internalType": "uint256",
          "name": "_duration",
          "type": "uint256"
        }
      ],
      "name": "createAuction",
      "outputs": [],
      "stateMutability": "nonpayable",
      "type": "function"
    },
    {
      "inputs": [
        {
          "internalType": "uint256",
          "name": "auctionId",
          "type": "uint256"
        }
      ],
      "name": "endAuction",
      "outputs": [],
      "stateMutability": "nonpayable",
      "type": "function"
    },
    {
      "inputs": [
        {
          "internalType": "address",
          "name": "initialOwner",
          "type": "address"
        }
      ],
      "name": "initialize",
      "outputs": [],
      "stateMutability": "nonpayable",
      "type": "function"
    },
    {
      "inputs": [],
      "name": "owner",
      "outputs": [
        {
          "internalType": "address",
          "name": "",
          "type": "address"
        }
      ],
      "stateMutability": "view",
      "type": "function"
    },
    {
      "inputs": [
        {
          "internalType": "uint256",
          "name": "auctionId",
          "type": "uint256"
        }
      ],
      "name": "placeBid",
      "outputs": [],
      "stateMutability": "payable",
      "type": "function"
    },
    {
      "inputs": [
        {
          "internalType": "address",
          "name": "newOwner",
          "type": "address"
        }
      ],
      "name": "transferOwnership",
      "outputs": [],
      "stateMutability": "nonpayable",
      "type": "function"
    },
    {
      "inputs": [
        {
          "internalType": "address",
          "name": "newImplementation",
          "type": "address"
        },
        {
          "internalType": "bytes",
          "name": "data",
          "type": "bytes"
        }
      ],
      "name": "upgradeToAndCall",
      "outputs": [],
      "stateMutability": "payable",
      "type": "function"
    }
  ],
  "bytecode": "0x608060405234601d57600e6022565b604051610ca8908161009b8239f35b600080fd5b60005460ff8160081c1660455760ff811660425760ff1916600117600055565b50565b60405162461bcd60e51b815260206004820152602760248201527f496e697469616c697a61626c653a20636f6e747261637420697320696e697469604482015266616c697a696e6760c81b6064820152608490fdfe608080604052600436101561001357600080fd5b600090813560e01c9081632ad7157314610a9d575080634f1ef28614610995578063571a26a01461090c57806361beb1d7146107105780638da5cb5b146106e55780639979ef4514610559578063b9a2de3a14610271578063c4d66de81461010d5763f2fde38b1461008457600080fd5b3461010a57602036600319011261010a5761009d610ab9565b8154601081901c6001600160a01b031691906100ba338414610bc7565b62010000600160b01b031916601082901b62010000600160b01b03161783556001600160a01b0316907f8be0079c531659141344cd1fd0a4f28419497f9722a3daafe3b4186f6b6457e08380a380f35b80fd5b503461010a57602036600319011261010a57610127610ab9565b815460ff8160081c16908115918260001461026c575060ff8116155b156102105760ff1981166001178455816101ff575b5082549061016b60ff8360081c16610c12565b62010000600160b01b03198216601084811b62010000600160b01b031691821780875591946101df9260ff9290916001600160a01b039081169187901c167f8be0079c531659141344cd1fd0a4f28419497f9722a3daafe3b4186f6b6457e08980a360081c166101da81610c12565b610c12565b600180556101eb578280f35b610100600160b01b03191617815538808280f35b61ffff191661010117835538610158565b60405162461bcd60e51b815260206004820152602e60248201527f496e697469616c697a61626c653a20636f6e747261637420697320616c72656160448201526d191e481a5b9a5d1a585b1a5e995960921b6064820152608490fd5b610143565b503461010a57602036600319011261010a5760043561029560026001541415610b28565b6002600155808252600260205260408220600381015442106105145760068101805460ff81166104cf5760ff1916600117905560048101805484906001600160a01b031615610419576001830154825460028501546001600160a01b039283169290911690823b1561040a576040516323b872dd60e01b81523060048201526001600160a01b0392909216602483015260448201529082908290606490829084905af1801561040e576103f5575b50808080600560018060a01b038754169601958654905af1610363610b97565b50156103b057549054604080516001600160a01b03909316835260208301919091527fd2aa34a4fdbbc6dff6a3e56f46e0f3ae2a31d7785ff3487aa5c95c642acea50191a25b6001805580f35b60405162461bcd60e51b815260206004820152601760248201527f41756374696f6e3a205061796f7574206661696c65642e0000000000000000006044820152606490fd5b816103ff91610ad4565b61040a578338610343565b8380fd5b6040513d84823e3d90fd5b6001830154835460029094015491936001600160a01b0391821693501690823b1561040a576040516323b872dd60e01b81523060048201526001600160a01b0392909216602483015260448201529082908290606490829084905af1801561040e576104b6575b50507fd2aa34a4fdbbc6dff6a3e56f46e0f3ae2a31d7785ff3487aa5c95c642acea50160408051848152846020820152a26103a9565b816104c091610ad4565b6104cb578138610480565b5080fd5b60405162461bcd60e51b815260206004820152601960248201527f41756374696f6e3a20416c726561647920736574746c65642e000000000000006044820152606490fd5b60405162461bcd60e51b815260206004820152601760248201527f41756374696f6e3a204e6f7420656e646564207965742e0000000000000000006044820152606490fd5b50602036600319011261010a5760043561057860026001541415610b28565b600260015580825260026020526040822060038101544210156106ae57600581019081549081341115610671576004018054909185916001600160a01b0316908161060e575b505081546001600160a01b0319163390811790925550349182905560405191825291907f0e54eff26401bf69b81b26f60bd85ef47f5d85275c1d268d84f68d6897431c4790602090a36001805580f35b8280929181925af161061e610b97565b501561062c578338806105be565b60405162461bcd60e51b815260206004820152601760248201527f41756374696f6e3a20526566756e64206661696c65642e0000000000000000006044820152606490fd5b60405162461bcd60e51b815260206004820152601560248201527420bab1ba34b7b71d102134b2103a37b7903637bb9760591b6044820152606490fd5b60405162461bcd60e51b815260206004820152600f60248201526e20bab1ba34b7b71d1022b73232b21760891b6044820152606490fd5b503461010a578060031936011261010a575460405160109190911c6001600160a01b03168152602090f35b503461010a57608036600319011261010a5761072a610ab9565b602435604435916064359061074460026001541415610b28565b60026001556001600160a01b031692833b15610908576040516323b872dd60e01b815233600482015230602482015260448101849052858160648183895af180156108fd576108e9575b506003549160001983146108d557600183016003556107ad8142610b74565b6040519060e0820182811067ffffffffffffffff8211176108c1576040908152338352602080840189815284830189815260608601948552608086018c815260a0870189815260c088018e81528b8f52600295869052958e20975188546001600160a01b039182166001600160a01b0319918216178a55945160018a0180549183169187169190911790559251948801949094559451600387015593516004860180549190951691161790925590516005830155516006909101805460ff191691151560ff169190911790556108839042610b74565b90604051938452602084015260408301527f06b9e486c68303eb64052e0493f906f3d93a1b7149b6b8dcff221aebd16c351360603393a46001805580f35b634e487b7160e01b89526041600452602489fd5b634e487b7160e01b86526011600452602486fd5b856108f691969296610ad4565b933861078e565b6040513d88823e3d90fd5b8480fd5b503461010a57602036600319011261010a57604060e091600435815260026020522060018060a01b038154169060018060a01b03600182015416906002810154600382015460018060a01b036004840154169160ff600660058601549501541694604051968752602087015260408601526060850152608084015260a0830152151560c0820152f35b50604036600319011261010a576109aa610ab9565b8160243567ffffffffffffffff81116104cb57366023820112156104cb5780600401356109d681610b0c565b6109e36040519182610ad4565b81815260208101913660248286010111610908576020818695926024879401863783010152610a1f60018060a01b03845460101c163314610bc7565b5190845af4610a2c610b97565b5015610a62576001600160a01b03167fbc7cd75a20ee27fd9adebab32041f755214dbc6bffa90cc0225b39da2e5c2d3b8280a280f35b60405162461bcd60e51b815260206004820152601360248201527215555414c81d5c19dc9859194819985a5b1959606a1b6044820152606490fd5b9050346104cb57816003193601126104cb576020906003548152f35b600435906001600160a01b0382168203610acf57565b600080fd5b90601f8019910116810190811067ffffffffffffffff821117610af657604052565b634e487b7160e01b600052604160045260246000fd5b67ffffffffffffffff8111610af657601f01601f191660200190565b15610b2f57565b60405162461bcd60e51b815260206004820152601f60248201527f5265656e7472616e637947756172643a207265656e7472616e742063616c6c006044820152606490fd5b91908201809211610b8157565b634e487b7160e01b600052601160045260246000fd5b3d15610bc2573d90610ba882610b0c565b91610bb66040519384610ad4565b82523d6000602084013e565b606090565b15610bce57565b606460405162461bcd60e51b815260206004820152602060248201527f4f776e61626c653a2063616c6c6572206973206e6f7420746865206f776e65726044820152fd5b15610c1957565b60405162461bcd60e51b815260206004820152602b60248201527f496e697469616c697a61626c653a20636f6e7472616374206973206e6f74206960448201526a6e697469616c697a696e6760a81b6064820152608490fdfea26469706673582212201e4646f3f7bc1c255ca9f3813fdfee5758f7598f0a9a758eb605d841b946719c64736f6c634300081e0033",
  "linkReferences": {},
  "deployedLinkReferences": {}
}