{
  "_format": "hh-sol-artifact-1",
  "contractName": "NFTOfferBook",
  "sourceName": "contracts/NFTOfferBook.sol",
  "abi": [
    {
      "inputs": [],
      "stateMutability": "nonpayable",
      "type": "constructor"
    },
    {
      "anonymous": false,
      "inputs": [
        {
          "indexed": true,
          "internalType": "address",
          "name": "seller",
          "type": "address"
        },
        {
          "indexed": true,
          "internalType": "address",
          "name": "nftAddress",
          "type": "address"
        },
        {
          "indexed": true,
          "internalType": "uint256",
          "name": "tokenId",
          "type": "uint256"
        }
      ],
      "name": "OfferAccepted",
      "type": "event"
    },
    {
      "anonymous": false,
      "inputs": [
        {
          "indexed": true,
          "internalType": "address",
          "name": "offeror",
          "type": "address"
        },
        {
          "indexed": true,
          "internalType": "address",
          "name": "nftAddress",
          "type": "address"
        },
        {
          "indexed": true,
          "internalType": "uint256",
          "name": "tokenId",
          "type": "uint256"
        }
      ],
      "name": "OfferCancelled",
      "type": "event"
    },
    {
      "anonymous": false,
      "inputs": [
        {
          "indexed": true,
          "internalType": "address",
          "name": "offeror",
          "type": "address"
        },
        {
          "indexed": true,
          "internalType": "address",
          "name": "nftAddress",
          "type": "address"
        },
        {
          "indexed": true,
          "internalType": "uint256",
          "name": "tokenId",
          "type": "uint256"
        },
        {
          "indexed": false,
          "internalType": "uint256",
          "name": "amount",
          "type": "uint256"
        }
      ],
      "name": "OfferMade",
      "type": "event"
    },
    {
      "anonymous": false,
      "inputs": [
        {
          "indexed": true,
          "internalType": "address",
          "name": "previousOwner",
          "type": "address"
        },
        {
          "indexed": true,
          "internalType": "address",
          "name": "newOwner",
          "type": "address"
        }
      ],
      "name": "OwnershipTransferred",
      "type": "event"
    },
    {
      "anonymous": false,
      "inputs": [
        {
          "indexed": true,
          "internalType": "address",
          "name": "implementation",
          "type": "address"
        }
      ],
      "name": "Upgraded",
      "type": "event"
    },
    {
      "inputs": [
        {
          "internalType": "address",
          "name": "_nftAddress",
          "type": "address"
        },
        {
          "internalType": "uint256",
          "name": "_tokenId",
          "type": "uint256"
        }
      ],
      "name": "acceptOffer",
      "outputs": [],
      "stateMutability": "nonpayable",
      "type": "function"
    },
    {
      "inputs": [
        {
          "internalType": "address",
          "name": "_nftAddress",
          "type": "address"
        },
        {
          "internalType": "uint256",
          "name": "_tokenId",
          "type": "uint256"
        }
      ],
      "name": "cancelOffer",
      "outputs": [],
      "stateMutability": "nonpayable",
      "type": "function"
    },
    {
      "inputs": [
        {
          "internalType": "address",
          "name": "initialOwner",
          "type": "address"
        },
        {
          "internalType": "address",
          "name": "registryAddress",
          "type": "address"
        }
      ],
      "name": "initialize",
      "outputs": [],
      "stateMutability": "nonpayable",
      "type": "function"
    },
    {
      "inputs": [
        {
          "internalType": "address",
          "name": "_nftAddress",
          "type": "address"
        },
        {
          "internalType": "uint256",
          "name": "_tokenId",
          "type": "uint256"
        },
        {
          "internalType": "uint256",
          "name": "_amount",
          "type": "uint256"
        }
      ],
      "name": "makeOffer",
      "outputs": [],
      "stateMutability": "nonpayable",
      "type": "function"
    },
    {
      "inputs": [],
      "name": "novaRegistry",
      "outputs": [
        {
          "internalType": "contract INovaRegistry",
          "name": "",
          "type": "address"
        }
      ],
      "stateMutability": "view",
      "type": "function"
    },
    {
      "inputs": [
        {
          "internalType": "address",
          "name": "",
          "type": "address"
        },
        {
          "internalType": "uint256",
          "name": "",
          "type": "uint256"
        }
      ],
      "name": "offers",
      "outputs": [
        {
          "internalType": "address",
          "name": "offeror",
          "type": "address"
        },
        {
          "internalType": "uint256",
          "name": "amount",
          "type": "uint256"
        }
      ],
      "stateMutability": "view",
      "type": "function"
    },
    {
      "inputs": [],
      "name": "owner",
      "outputs": [
        {
          "internalType": "address",
          "name": "",
          "type": "address"
        }
      ],
      "stateMutability": "view",
      "type": "function"
    },
    {
      "inputs": [
        {
          "internalType": "address",
          "name": "newOwner",
          "type": "address"
        }
      ],
      "name": "transferOwnership",
      "outputs": [],
      "stateMutability": "nonpayable",
      "type": "function"
    },
    {
      "inputs": [
        {
          "internalType": "address",
          "name": "newImplementation",
          "type": "address"
        },
        {
          "internalType": "bytes",
          "name": "data",
          "type": "bytes"
        }
      ],
      "name": "upgradeToAndCall",
      "outputs": [],
      "stateMutability": "payable",
      "type": "function"
    }
  ],
  "bytecode": "0x608060405234601d57600e6022565b604051610d5a908161009b8239f35b600080fd5b60005460ff8160081c1660455760ff811660425760ff1916600117600055565b50565b60405162461bcd60e51b815260206004820152602760248201527f496e697469616c697a61626c653a20636f6e747261637420697320696e697469604482015266616c697a696e6760c81b6064820152608490fdfe6080604052600436101561001257600080fd5b6000803560e01c8063058a56ac146109a7578063485cc955146108125780634f1ef286146106de578063693662b9146106b55780637de3bd07146104bb5780638da5cb5b14610490578063aa1a841114610435578063b1b9e78d146101095763f2fde38b1461008057600080fd5b3461010657602036600319011261010657610099610b6b565b8154601081901c6001600160a01b031691906100b6338414610c79565b62010000600160b01b031916601082901b62010000600160b01b03161783556001600160a01b0316907f8be0079c531659141344cd1fd0a4f28419497f9722a3daafe3b4186f6b6457e08380a380f35b80fd5b503461010657604036600319011261010657610123610b6b565b6024359061013660026001541415610bf6565b600260015560018060a01b03168083526003602052604083208284526020526040832060405161016581610b86565b81546001600160a01b0316808252600190920154602082019081529115610402576040516331a9108f60e11b815260048101859052602081602481875afa9081156103f75786916103d8575b50336001600160a01b039091160361039b578285526003602090815260408087208688529091528520858155600101859055516001600160a01b031684833b15610106576040516323b872dd60e01b81523360048201526001600160a01b03929092166024830152604482018590528160648183875af180156103905761037c575b50839060018060a01b0360025416602060405181810190682727ab20afa1a7a4a760b91b825260098152610268602982610bb8565b519020602460405180948193630d2020dd60e01b835260048301525afa8015610371576020926102c5928592610342575b505160405163a9059cbb60e01b8152336004820152602481019190915293849283919082906044820190565b03926001600160a01b03165af180156103375761030a575b50337fc61554a8874c3c1f71da4d831e9effd4b5f892f7f89e2eb898dd63a57d4c4fb88480a46001805580f35b61032b9060203d602011610330575b6103238183610bb8565b810190610c61565b6102dd565b503d610319565b6040513d86823e3d90fd5b610363919250843d861161036a575b61035b8183610bb8565b810190610c42565b9038610299565b503d610351565b6040513d85823e3d90fd5b8461038991959295610bb8565b9238610233565b6040513d87823e3d90fd5b60405162461bcd60e51b815260206004820152601560248201527427b33332b91d102737ba1027232a1037bbb732b91760591b6044820152606490fd5b6103f1915060203d60201161036a5761035b8183610bb8565b386101b1565b6040513d88823e3d90fd5b60405162461bcd60e51b815260206004820152600b60248201526a27b33332b91d102227229760a91b6044820152606490fd5b5034610106576040366003190112610106576040906001600160a01b0361045a610b6b565b16815260036020908152828220602435835281529190208054600190910154604080516001600160a01b03909316835292820152f35b50346101065780600319360112610106575460405160109190911c6001600160a01b03168152602090f35b5034610106576060366003190112610106576104d5610b6b565b60243590604435906104ec60026001541415610bf6565b60026001556001600160a01b039081168085526003602090815260408087208688529091528520549092911661067f5760018060a01b0360025416602060405181810190682727ab20afa1a7a4a760b91b82526009815261054e602982610bb8565b519020602460405180948193630d2020dd60e01b835260048301525afa908115610390578591610660575b506040516323b872dd60e01b815233600482015230602482015260448101839052906020908290606490829089906001600160a01b03165af1801561039057610643575b506040516105ca81610b86565b3381526001602082018381528487526003602052604087208688526020526040872092828060a01b039051166bffffffffffffffffffffffff60a01b845416178355519101556040519081527f6a7a64ee90bd2fcf9f942e947c6a521c6e27711befb22fa80f887ccb8a6f3fd060203392a46001805580f35b61065b9060203d602011610330576103238183610bb8565b6105bd565b610679915060203d60201161036a5761035b8183610bb8565b38610579565b60405162461bcd60e51b815260206004820152600e60248201526d27b33332b91d1022bc34b9ba399760911b6044820152606490fd5b50346101065780600319360112610106576002546040516001600160a01b039091168152602090f35b506040366003190112610106576106f3610b6b565b8160243567ffffffffffffffff811161080e573660238201121561080e57806004013561071f81610bda565b61072c6040519182610bb8565b8181526020810191366024828601011161080a57602081869592602487940186378301015261076860018060a01b03845460101c163314610c79565b5190845af43d15610805573d61077d81610bda565b9061078b6040519283610bb8565b81528360203d92013e5b156107ca576001600160a01b03167fbc7cd75a20ee27fd9adebab32041f755214dbc6bffa90cc0225b39da2e5c2d3b8280a280f35b60405162461bcd60e51b815260206004820152601360248201527215555414c81d5c19dc9859194819985a5b1959606a1b6044820152606490fd5b610795565b8480fd5b5080fd5b50346101065760403660031901126101065761082c610b6b565b6024356001600160a01b038116908190036109a357825460ff8160081c16908115918260001461099e575060ff8116155b156109425760ff198116600117855581610931575b5083549161088560ff8460081c16610cc4565b62010000600160b01b03198316601085811b62010000600160b01b031691821780885591956108f99260ff9290916001600160a01b039081169188901c167f8be0079c531659141344cd1fd0a4f28419497f9722a3daafe3b4186f6b6457e08a80a360081c166108f481610cc4565b610cc4565b600180556bffffffffffffffffffffffff60a01b600254161760025561091d578280f35b610100600160b01b03191617815538808280f35b61ffff191661010117845538610872565b60405162461bcd60e51b815260206004820152602e60248201527f496e697469616c697a61626c653a20636f6e747261637420697320616c72656160448201526d191e481a5b9a5d1a585b1a5e995960921b6064820152608490fd5b61085d565b8280fd5b5034610106576040366003190112610106576109c1610b6b565b602435906109d460026001541415610bf6565b600260015560018060a01b03168083526003602052604083208284526020526040832060405190610a0482610b86565b60206001808060a01b0383541692838552015492019182523303610b3257839082825260036020526040822084835260205281600160408220828155015560018060a01b0360025416602060405181810190682727ab20afa1a7a4a760b91b825260098152610a74602982610bb8565b519020602460405180948193630d2020dd60e01b835260048301525afa801561037157602092610ad092859261034257505160405163a9059cbb60e01b8152336004820152602481019190915293849283919082906044820190565b03926001600160a01b03165af1801561033757610b15575b50337f3d4f9f1802e8d452c853ecb7e67f0b2952a80ab67afd1bbe07e7b94fd46cb7788480a46001805580f35b610b2d9060203d602011610330576103238183610bb8565b610ae8565b60405162461bcd60e51b815260206004820152601160248201527027b33332b91d102737ba1037bbb732b91760791b6044820152606490fd5b600435906001600160a01b0382168203610b8157565b600080fd5b6040810190811067ffffffffffffffff821117610ba257604052565b634e487b7160e01b600052604160045260246000fd5b90601f8019910116810190811067ffffffffffffffff821117610ba257604052565b67ffffffffffffffff8111610ba257601f01601f191660200190565b15610bfd57565b60405162461bcd60e51b815260206004820152601f60248201527f5265656e7472616e637947756172643a207265656e7472616e742063616c6c006044820152606490fd5b90816020910312610b8157516001600160a01b0381168103610b815790565b90816020910312610b8157518015158103610b815790565b15610c8057565b606460405162461bcd60e51b815260206004820152602060248201527f4f776e61626c653a2063616c6c6572206973206e6f7420746865206f776e65726044820152fd5b15610ccb57565b60405162461bcd60e51b815260206004820152602b60248201527f496e697469616c697a61626c653a20636f6e7472616374206973206e6f74206960448201526a6e697469616c697a696e6760a81b6064820152608490fdfea26469706673582212201d46975a2cff1f5a9d23dbb9d6162265af44af897511e7c23b937a3d0024be5c64736f6c634300081e0033",
  "linkReferences": {},
  "deployedLinkReferences": {}
}