{
  "_format": "hh-sol-artifact-1",
  "contractName": "NovaReputation",
  "sourceName": "contracts/NovaReputation.sol",
  "abi": [
    {
      "inputs": [],
      "stateMutability": "nonpayable",
      "type": "constructor"
    },
    {
      "inputs": [
        {
          "internalType": "address",
          "name": "target",
          "type": "address"
        }
      ],
      "name": "AddressEmptyCode",
      "type": "error"
    },
    {
      "inputs": [
        {
          "internalType": "address",
          "name": "implementation",
          "type": "address"
        }
      ],
      "name": "ERC1967InvalidImplementation",
      "type": "error"
    },
    {
      "inputs": [],
      "name": "ERC1967NonPayable",
      "type": "error"
    },
    {
      "inputs": [],
      "name": "FailedCall",
      "type": "error"
    },
    {
      "inputs": [],
      "name": "InvalidInitialization",
      "type": "error"
    },
    {
      "inputs": [],
      "name": "NotInitializing",
      "type": "error"
    },
    {
      "inputs": [
        {
          "internalType": "address",
          "name": "owner",
          "type": "address"
        }
      ],
      "name": "OwnableInvalidOwner",
      "type": "error"
    },
    {
      "inputs": [
        {
          "internalType": "address",
          "name": "account",
          "type": "address"
        }
      ],
      "name": "OwnableUnauthorizedAccount",
      "type": "error"
    },
    {
      "inputs": [],
      "name": "UUPSUnauthorizedCallContext",
      "type": "error"
    },
    {
      "inputs": [
        {
          "internalType": "bytes32",
          "name": "slot",
          "type": "bytes32"
        }
      ],
      "name": "UUPSUnsupportedProxiableUUID",
      "type": "error"
    },
    {
      "anonymous": false,
      "inputs": [
        {
          "indexed": true,
          "internalType": "address",
          "name": "admin",
          "type": "address"
        },
        {
          "indexed": false,
          "internalType": "bool",
          "name": "status",
          "type": "bool"
        }
      ],
      "name": "AdminStatusChanged",
      "type": "event"
    },
    {
      "anonymous": false,
      "inputs": [
        {
          "indexed": false,
          "internalType": "uint64",
          "name": "version",
          "type": "uint64"
        }
      ],
      "name": "Initialized",
      "type": "event"
    },
    {
      "anonymous": false,
      "inputs": [
        {
          "indexed": true,
          "internalType": "address",
          "name": "previousOwner",
          "type": "address"
        },
        {
          "indexed": true,
          "internalType": "address",
          "name": "newOwner",
          "type": "address"
        }
      ],
      "name": "OwnershipTransferred",
      "type": "event"
    },
    {
      "anonymous": false,
      "inputs": [
        {
          "indexed": true,
          "internalType": "address",
          "name": "user",
          "type": "address"
        },
        {
          "indexed": false,
          "internalType": "int256",
          "name": "newScore",
          "type": "int256"
        },
        {
          "indexed": false,
          "internalType": "int256",
          "name": "change",
          "type": "int256"
        }
      ],
      "name": "ReputationAdjusted",
      "type": "event"
    },
    {
      "anonymous": false,
      "inputs": [
        {
          "indexed": true,
          "internalType": "address",
          "name": "user",
          "type": "address"
        },
        {
          "indexed": false,
          "internalType": "int256",
          "name": "newScore",
          "type": "int256"
        }
      ],
      "name": "ReputationSet",
      "type": "event"
    },
    {
      "anonymous": false,
      "inputs": [
        {
          "indexed": true,
          "internalType": "address",
          "name": "implementation",
          "type": "address"
        }
      ],
      "name": "Upgraded",
      "type": "event"
    },
    {
      "inputs": [],
      "name": "UPGRADE_INTERFACE_VERSION",
      "outputs": [
        {
          "internalType": "string",
          "name": "",
          "type": "string"
        }
      ],
      "stateMutability": "view",
      "type": "function"
    },
    {
      "inputs": [
        {
          "internalType": "address",
          "name": "user",
          "type": "address"
        },
        {
          "internalType": "int256",
          "name": "amount",
          "type": "int256"
        }
      ],
      "name": "adjustReputation",
      "outputs": [],
      "stateMutability": "nonpayable",
      "type": "function"
    },
    {
      "inputs": [
        {
          "internalType": "address[]",
          "name": "users",
          "type": "address[]"
        },
        {
          "internalType": "int256[]",
          "name": "amounts",
          "type": "int256[]"
        }
      ],
      "name": "batchAdjustReputation",
      "outputs": [],
      "stateMutability": "nonpayable",
      "type": "function"
    },
    {
      "inputs": [
        {
          "internalType": "address",
          "name": "initialOwner",
          "type": "address"
        }
      ],
      "name": "initialize",
      "outputs": [],
      "stateMutability": "nonpayable",
      "type": "function"
    },
    {
      "inputs": [],
      "name": "owner",
      "outputs": [
        {
          "internalType": "address",
          "name": "",
          "type": "address"
        }
      ],
      "stateMutability": "view",
      "type": "function"
    },
    {
      "inputs": [],
      "name": "proxiableUUID",
      "outputs": [
        {
          "internalType": "bytes32",
          "name": "",
          "type": "bytes32"
        }
      ],
      "stateMutability": "view",
      "type": "function"
    },
    {
      "inputs": [],
      "name": "renounceOwnership",
      "outputs": [],
      "stateMutability": "nonpayable",
      "type": "function"
    },
    {
      "inputs": [
        {
          "internalType": "address",
          "name": "",
          "type": "address"
        }
      ],
      "name": "reputationAdmins",
      "outputs": [
        {
          "internalType": "bool",
          "name": "",
          "type": "bool"
        }
      ],
      "stateMutability": "view",
      "type": "function"
    },
    {
      "inputs": [
        {
          "internalType": "address",
          "name": "",
          "type": "address"
        }
      ],
      "name": "reputationScores",
      "outputs": [
        {
          "internalType": "int256",
          "name": "",
          "type": "int256"
        }
      ],
      "stateMutability": "view",
      "type": "function"
    },
    {
      "inputs": [
        {
          "internalType": "address",
          "name": "admin",
          "type": "address"
        },
        {
          "internalType": "bool",
          "name": "status",
          "type": "bool"
        }
      ],
      "name": "setAdmin",
      "outputs": [],
      "stateMutability": "nonpayable",
      "type": "function"
    },
    {
      "inputs": [
        {
          "internalType": "address",
          "name": "user",
          "type": "address"
        },
        {
          "internalType": "int256",
          "name": "newScore",
          "type": "int256"
        }
      ],
      "name": "setReputation",
      "outputs": [],
      "stateMutability": "nonpayable",
      "type": "function"
    },
    {
      "inputs": [
        {
          "internalType": "address",
          "name": "newOwner",
          "type": "address"
        }
      ],
      "name": "transferOwnership",
      "outputs": [],
      "stateMutability": "nonpayable",
      "type": "function"
    },
    {
      "inputs": [
        {
          "internalType": "address",
          "name": "newImplementation",
          "type": "address"
        },
        {
          "internalType": "bytes",
          "name": "data",
          "type": "bytes"
        }
      ],
      "name": "upgradeToAndCall",
      "outputs": [],
      "stateMutability": "payable",
      "type": "function"
    }
  ],
  "bytecode": "0x60a080604052346100ea57306080527ff0c57e16840df040f15088dc2f81fe391c3923bec73e23a9662efc9c229c6a005460ff8160401c166100d9576002600160401b03196001600160401b03821601610073575b604051610ca790816100f0823960805181818161067e01526107520152f35b6001600160401b0319166001600160401b039081177ff0c57e16840df040f15088dc2f81fe391c3923bec73e23a9662efc9c229c6a005581527fc7f505b2f371ae2175ee4913f4499e1f2633a7b5936321eed1cdaeb6115181d290602090a13880610054565b63f92ee8a960e01b60005260046000fd5b600080fdfe608080604052600436101561001357600080fd5b60003560e01c9081633a6b262814610995575080634b0bddd2146109165780634f1ef286146106d557806352d1902d1461066b578063582e3606146104ed578063715018a6146104835780638da5cb5b1461044d578063ad3cb1cc146103d1578063c4d66de814610254578063cbb8126f146101d9578063f2fde38b146101ae578063f5b3ceda146100ed5763fe0438b2146100ae57600080fd5b346100e85760203660031901126100e8576001600160a01b036100cf6109d0565b1660005260006020526020604060002054604051908152f35b600080fd5b346100e85760403660031901126100e8576101066109d0565b6024359033600052600160205261012460ff60406000205416610a6b565b60018060a01b03169081600052600060205260406000208054918083019260008285129112908015821691151617610198577fc50dbb871e779254da456c581cf2d7c88f3d006c55f9be329bc721791b68c6fa926040925583600052600060205281600020549082519182526020820152a2005b634e487b7160e01b600052601160045260246000fd5b346100e85760203660031901126100e8576101d76101ca6109d0565b6101d2610b4c565b610ad6565b005b346100e85760403660031901126100e8576101f26109d0565b7f4ee64a6d378ea0793434d11b9a49aa88050af6c35b1a422dc3bb9d6c5f6a1c4a602060243592336000526001825261023260ff60406000205416610a6b565b6001600160a01b031660008181528083526040908190208590555193845292a2005b346100e85760203660031901126100e85761026d6109d0565b600080516020610c52833981519152549060ff8260401c16159167ffffffffffffffff8116801590816103c9575b60011490816103bf575b1590816103b6575b506103a55767ffffffffffffffff198116600117600080516020610c528339815191525582610378575b506102e0610b82565b6102e8610b82565b6102f181610ad6565b6102f9610b82565b60018060a01b031660005260016020526040600020600160ff1982541617905561031f57005b68ff000000000000000019600080516020610c528339815191525416600080516020610c52833981519152557fc7f505b2f371ae2175ee4913f4499e1f2633a7b5936321eed1cdaeb6115181d2602060405160018152a1005b68ffffffffffffffffff19166801000000000000000117600080516020610c5283398151915255826102d7565b63f92ee8a960e01b60005260046000fd5b905015846102ad565b303b1591506102a5565b84915061029b565b346100e85760003660031901126100e85760408051906103f181836109e6565b60058252640352e302e360dc1b6020830152805180926020825280519081602084015260005b8281106104365750506000828201840152601f01601f19168101030190f35b602082820181015187830187015286945001610417565b346100e85760003660031901126100e857600080516020610c12833981519152546040516001600160a01b039091168152602090f35b346100e85760003660031901126100e85761049c610b4c565b600080516020610c1283398151915280546001600160a01b031981169091556000906001600160a01b03167f8be0079c531659141344cd1fd0a4f28419497f9722a3daafe3b4186f6b6457e08280a3005b346100e85760403660031901126100e85760043567ffffffffffffffff81116100e85761051e903690600401610a3a565b9060243567ffffffffffffffff81116100e85761053f903690600401610a3a565b909233600052600160205261055b60ff60406000205416610a6b565b8181036106265760005b81811061056e57005b610579818386610ab0565b356001600160a01b03811691908290036100e857610598818588610ab0565b35913360005260016020526105b460ff60406000205416610a6b565b80600052600060205260406000208054908482019160008684129112908015821691151617610198576001947fc50dbb871e779254da456c581cf2d7c88f3d006c55f9be329bc721791b68c6fa926040925583600052600060205281600020549082519182526020820152a201610565565b60405162461bcd60e51b815260206004820152601a60248201527f417272617973206d7573742062652073616d65206c656e6774680000000000006044820152606490fd5b346100e85760003660031901126100e8577f00000000000000000000000000000000000000000000000000000000000000006001600160a01b031630036106c4576020604051600080516020610c328339815191528152f35b63703e46dd60e11b60005260046000fd5b60403660031901126100e8576106e96109d0565b6024359067ffffffffffffffff82116100e857366023830112156100e85781600401359061071682610a1e565b9161072460405193846109e6565b808352602083019336602483830101116100e857816000926024602093018737840101526001600160a01b037f0000000000000000000000000000000000000000000000000000000000000000163081149081156108f3575b506106c45761078a610b4c565b6040516352d1902d60e01b81526001600160a01b0382169390602081600481885afa600091816108bf575b506107cf5784634c9c8ce360e01b60005260045260246000fd5b80600080516020610c328339815191528692036108ab5750823b1561089757600080516020610c3283398151915280546001600160a01b031916821790557fbc7cd75a20ee27fd9adebab32041f755214dbc6bffa90cc0225b39da2e5c2d3b600080a282511561087c57600080916101d7945190845af43d15610874573d9161085783610a1e565b9261086560405194856109e6565b83523d6000602085013e610bb0565b606091610bb0565b5050503461088657005b63b398979f60e01b60005260046000fd5b634c9c8ce360e01b60005260045260246000fd5b632a87526960e21b60005260045260246000fd5b9091506020813d6020116108eb575b816108db602093836109e6565b810103126100e8575190866107b5565b3d91506108ce565b600080516020610c32833981519152546001600160a01b0316141590508461077d565b346100e85760403660031901126100e85761092f6109d0565b602435908115158092036100e85760207fc63c72d6995119c079ef24c02679d49838905c8e81df9e632011b914e6f592f691610969610b4c565b60018060a01b0316928360005260018252604060002060ff1981541660ff8316179055604051908152a2005b346100e85760203660031901126100e8576020906001600160a01b036109b96109d0565b166000526001825260ff6040600020541615158152f35b600435906001600160a01b03821682036100e857565b90601f8019910116810190811067ffffffffffffffff821117610a0857604052565b634e487b7160e01b600052604160045260246000fd5b67ffffffffffffffff8111610a0857601f01601f191660200190565b9181601f840112156100e85782359167ffffffffffffffff83116100e8576020808501948460051b0101116100e857565b15610a7257565b60405162461bcd60e51b81526020600482015260166024820152752737ba1030903932b83aba30ba34b7b71030b236b4b760511b6044820152606490fd5b9190811015610ac05760051b0190565b634e487b7160e01b600052603260045260246000fd5b6001600160a01b03168015610b3657600080516020610c1283398151915280546001600160a01b0319811683179091556001600160a01b03167f8be0079c531659141344cd1fd0a4f28419497f9722a3daafe3b4186f6b6457e0600080a3565b631e4fbdf760e01b600052600060045260246000fd5b600080516020610c12833981519152546001600160a01b03163303610b6d57565b63118cdaa760e01b6000523360045260246000fd5b60ff600080516020610c528339815191525460401c1615610b9f57565b631afcd79f60e31b60005260046000fd5b90610bd65750805115610bc557805190602001fd5b63d6bda27560e01b60005260046000fd5b81511580610c08575b610be7575090565b639996b31560e01b60009081526001600160a01b0391909116600452602490fd5b50803b15610bdf56fe9016d09d72d40fdae2fd8ceac6b6234c7706214fd39c1cd1e609a0528c199300360894a13ba1a3210667c828492db98dca3e2076cc3735a920a3ca505d382bbcf0c57e16840df040f15088dc2f81fe391c3923bec73e23a9662efc9c229c6a00a26469706673582212204857f505fc5389f30c580cc39df39e9fb2d76e838b3b1980df967b53b26ba24164736f6c634300081e0033",
  "linkReferences": {},
  "deployedLinkReferences": {}
}