{
  "_format": "hh-sol-artifact-1",
  "contractName": "NovaProfiles",
  "sourceName": "contracts/NovaProfiles.sol",
  "abi": [
    {
      "inputs": [],
      "stateMutability": "nonpayable",
      "type": "constructor"
    },
    {
      "inputs": [
        {
          "internalType": "address",
          "name": "target",
          "type": "address"
        }
      ],
      "name": "AddressEmptyCode",
      "type": "error"
    },
    {
      "inputs": [
        {
          "internalType": "address",
          "name": "implementation",
          "type": "address"
        }
      ],
      "name": "ERC1967InvalidImplementation",
      "type": "error"
    },
    {
      "inputs": [],
      "name": "ERC1967NonPayable",
      "type": "error"
    },
    {
      "inputs": [
        {
          "internalType": "address",
          "name": "sender",
          "type": "address"
        },
        {
          "internalType": "uint256",
          "name": "tokenId",
          "type": "uint256"
        },
        {
          "internalType": "address",
          "name": "owner",
          "type": "address"
        }
      ],
      "name": "ERC721IncorrectOwner",
      "type": "error"
    },
    {
      "inputs": [
        {
          "internalType": "address",
          "name": "operator",
          "type": "address"
        },
        {
          "internalType": "uint256",
          "name": "tokenId",
          "type": "uint256"
        }
      ],
      "name": "ERC721InsufficientApproval",
      "type": "error"
    },
    {
      "inputs": [
        {
          "internalType": "address",
          "name": "approver",
          "type": "address"
        }
      ],
      "name": "ERC721InvalidApprover",
      "type": "error"
    },
    {
      "inputs": [
        {
          "internalType": "address",
          "name": "operator",
          "type": "address"
        }
      ],
      "name": "ERC721InvalidOperator",
      "type": "error"
    },
    {
      "inputs": [
        {
          "internalType": "address",
          "name": "owner",
          "type": "address"
        }
      ],
      "name": "ERC721InvalidOwner",
      "type": "error"
    },
    {
      "inputs": [
        {
          "internalType": "address",
          "name": "receiver",
          "type": "address"
        }
      ],
      "name": "ERC721InvalidReceiver",
      "type": "error"
    },
    {
      "inputs": [
        {
          "internalType": "address",
          "name": "sender",
          "type": "address"
        }
      ],
      "name": "ERC721InvalidSender",
      "type": "error"
    },
    {
      "inputs": [
        {
          "internalType": "uint256",
          "name": "tokenId",
          "type": "uint256"
        }
      ],
      "name": "ERC721NonexistentToken",
      "type": "error"
    },
    {
      "inputs": [],
      "name": "FailedCall",
      "type": "error"
    },
    {
      "inputs": [],
      "name": "InvalidInitialization",
      "type": "error"
    },
    {
      "inputs": [],
      "name": "NotInitializing",
      "type": "error"
    },
    {
      "inputs": [
        {
          "internalType": "address",
          "name": "owner",
          "type": "address"
        }
      ],
      "name": "OwnableInvalidOwner",
      "type": "error"
    },
    {
      "inputs": [
        {
          "internalType": "address",
          "name": "account",
          "type": "address"
        }
      ],
      "name": "OwnableUnauthorizedAccount",
      "type": "error"
    },
    {
      "inputs": [],
      "name": "UUPSUnauthorizedCallContext",
      "type": "error"
    },
    {
      "inputs": [
        {
          "internalType": "bytes32",
          "name": "slot",
          "type": "bytes32"
        }
      ],
      "name": "UUPSUnsupportedProxiableUUID",
      "type": "error"
    },
    {
      "anonymous": false,
      "inputs": [
        {
          "indexed": true,
          "internalType": "address",
          "name": "owner",
          "type": "address"
        },
        {
          "indexed": true,
          "internalType": "address",
          "name": "approved",
          "type": "address"
        },
        {
          "indexed": true,
          "internalType": "uint256",
          "name": "tokenId",
          "type": "uint256"
        }
      ],
      "name": "Approval",
      "type": "event"
    },
    {
      "anonymous": false,
      "inputs": [
        {
          "indexed": true,
          "internalType": "address",
          "name": "owner",
          "type": "address"
        },
        {
          "indexed": true,
          "internalType": "address",
          "name": "operator",
          "type": "address"
        },
        {
          "indexed": false,
          "internalType": "bool",
          "name": "approved",
          "type": "bool"
        }
      ],
      "name": "ApprovalForAll",
      "type": "event"
    },
    {
      "anonymous": false,
      "inputs": [
        {
          "indexed": false,
          "internalType": "uint64",
          "name": "version",
          "type": "uint64"
        }
      ],
      "name": "Initialized",
      "type": "event"
    },
    {
      "anonymous": false,
      "inputs": [
        {
          "indexed": true,
          "internalType": "address",
          "name": "previousOwner",
          "type": "address"
        },
        {
          "indexed": true,
          "internalType": "address",
          "name": "newOwner",
          "type": "address"
        }
      ],
      "name": "OwnershipTransferred",
      "type": "event"
    },
    {
      "anonymous": false,
      "inputs": [
        {
          "indexed": true,
          "internalType": "address",
          "name": "user",
          "type": "address"
        },
        {
          "indexed": true,
          "internalType": "uint256",
          "name": "tokenId",
          "type": "uint256"
        },
        {
          "indexed": false,
          "internalType": "string",
          "name": "username",
          "type": "string"
        }
      ],
      "name": "ProfileCreated",
      "type": "event"
    },
    {
      "anonymous": false,
      "inputs": [
        {
          "indexed": true,
          "internalType": "address",
          "name": "from",
          "type": "address"
        },
        {
          "indexed": true,
          "internalType": "address",
          "name": "to",
          "type": "address"
        },
        {
          "indexed": true,
          "internalType": "uint256",
          "name": "tokenId",
          "type": "uint256"
        }
      ],
      "name": "Transfer",
      "type": "event"
    },
    {
      "anonymous": false,
      "inputs": [
        {
          "indexed": true,
          "internalType": "address",
          "name": "implementation",
          "type": "address"
        }
      ],
      "name": "Upgraded",
      "type": "event"
    },
    {
      "inputs": [],
      "name": "UPGRADE_INTERFACE_VERSION",
      "outputs": [
        {
          "internalType": "string",
          "name": "",
          "type": "string"
        }
      ],
      "stateMutability": "view",
      "type": "function"
    },
    {
      "inputs": [
        {
          "internalType": "address",
          "name": "to",
          "type": "address"
        },
        {
          "internalType": "uint256",
          "name": "tokenId",
          "type": "uint256"
        }
      ],
      "name": "approve",
      "outputs": [],
      "stateMutability": "nonpayable",
      "type": "function"
    },
    {
      "inputs": [
        {
          "internalType": "address",
          "name": "owner",
          "type": "address"
        }
      ],
      "name": "balanceOf",
      "outputs": [
        {
          "internalType": "uint256",
          "name": "",
          "type": "uint256"
        }
      ],
      "stateMutability": "view",
      "type": "function"
    },
    {
      "inputs": [
        {
          "internalType": "string",
          "name": "_username",
          "type": "string"
        },
        {
          "internalType": "string",
          "name": "_contentHash",
          "type": "string"
        }
      ],
      "name": "createProfile",
      "outputs": [],
      "stateMutability": "nonpayable",
      "type": "function"
    },
    {
      "inputs": [
        {
          "internalType": "uint256",
          "name": "tokenId",
          "type": "uint256"
        }
      ],
      "name": "getApproved",
      "outputs": [
        {
          "internalType": "address",
          "name": "",
          "type": "address"
        }
      ],
      "stateMutability": "view",
      "type": "function"
    },
    {
      "inputs": [
        {
          "internalType": "address",
          "name": "initialOwner",
          "type": "address"
        }
      ],
      "name": "initialize",
      "outputs": [],
      "stateMutability": "nonpayable",
      "type": "function"
    },
    {
      "inputs": [
        {
          "internalType": "address",
          "name": "owner",
          "type": "address"
        },
        {
          "internalType": "address",
          "name": "operator",
          "type": "address"
        }
      ],
      "name": "isApprovedForAll",
      "outputs": [
        {
          "internalType": "bool",
          "name": "",
          "type": "bool"
        }
      ],
      "stateMutability": "view",
      "type": "function"
    },
    {
      "inputs": [],
      "name": "name",
      "outputs": [
        {
          "internalType": "string",
          "name": "",
          "type": "string"
        }
      ],
      "stateMutability": "view",
      "type": "function"
    },
    {
      "inputs": [],
      "name": "owner",
      "outputs": [
        {
          "internalType": "address",
          "name": "",
          "type": "address"
        }
      ],
      "stateMutability": "view",
      "type": "function"
    },
    {
      "inputs": [
        {
          "internalType": "uint256",
          "name": "tokenId",
          "type": "uint256"
        }
      ],
      "name": "ownerOf",
      "outputs": [
        {
          "internalType": "address",
          "name": "",
          "type": "address"
        }
      ],
      "stateMutability": "view",
      "type": "function"
    },
    {
      "inputs": [],
      "name": "proxiableUUID",
      "outputs": [
        {
          "internalType": "bytes32",
          "name": "",
          "type": "bytes32"
        }
      ],
      "stateMutability": "view",
      "type": "function"
    },
    {
      "inputs": [],
      "name": "renounceOwnership",
      "outputs": [],
      "stateMutability": "nonpayable",
      "type": "function"
    },
    {
      "inputs": [
        {
          "internalType": "address",
          "name": "from",
          "type": "address"
        },
        {
          "internalType": "address",
          "name": "to",
          "type": "address"
        },
        {
          "internalType": "uint256",
          "name": "tokenId",
          "type": "uint256"
        }
      ],
      "name": "safeTransferFrom",
      "outputs": [],
      "stateMutability": "nonpayable",
      "type": "function"
    },
    {
      "inputs": [
        {
          "internalType": "address",
          "name": "from",
          "type": "address"
        },
        {
          "internalType": "address",
          "name": "to",
          "type": "address"
        },
        {
          "internalType": "uint256",
          "name": "tokenId",
          "type": "uint256"
        },
        {
          "internalType": "bytes",
          "name": "data",
          "type": "bytes"
        }
      ],
      "name": "safeTransferFrom",
      "outputs": [],
      "stateMutability": "nonpayable",
      "type": "function"
    },
    {
      "inputs": [
        {
          "internalType": "address",
          "name": "operator",
          "type": "address"
        },
        {
          "internalType": "bool",
          "name": "approved",
          "type": "bool"
        }
      ],
      "name": "setApprovalForAll",
      "outputs": [],
      "stateMutability": "nonpayable",
      "type": "function"
    },
    {
      "inputs": [
        {
          "internalType": "bytes4",
          "name": "interfaceId",
          "type": "bytes4"
        }
      ],
      "name": "supportsInterface",
      "outputs": [
        {
          "internalType": "bool",
          "name": "",
          "type": "bool"
        }
      ],
      "stateMutability": "view",
      "type": "function"
    },
    {
      "inputs": [],
      "name": "symbol",
      "outputs": [
        {
          "internalType": "string",
          "name": "",
          "type": "string"
        }
      ],
      "stateMutability": "view",
      "type": "function"
    },
    {
      "inputs": [
        {
          "internalType": "uint256",
          "name": "",
          "type": "uint256"
        }
      ],
      "name": "tokenContentHashes",
      "outputs": [
        {
          "internalType": "string",
          "name": "",
          "type": "string"
        }
      ],
      "stateMutability": "view",
      "type": "function"
    },
    {
      "inputs": [
        {
          "internalType": "uint256",
          "name": "tokenId",
          "type": "uint256"
        }
      ],
      "name": "tokenURI",
      "outputs": [
        {
          "internalType": "string",
          "name": "",
          "type": "string"
        }
      ],
      "stateMutability": "view",
      "type": "function"
    },
    {
      "inputs": [
        {
          "internalType": "address",
          "name": "from",
          "type": "address"
        },
        {
          "internalType": "address",
          "name": "to",
          "type": "address"
        },
        {
          "internalType": "uint256",
          "name": "tokenId",
          "type": "uint256"
        }
      ],
      "name": "transferFrom",
      "outputs": [],
      "stateMutability": "nonpayable",
      "type": "function"
    },
    {
      "inputs": [
        {
          "internalType": "address",
          "name": "newOwner",
          "type": "address"
        }
      ],
      "name": "transferOwnership",
      "outputs": [],
      "stateMutability": "nonpayable",
      "type": "function"
    },
    {
      "inputs": [
        {
          "internalType": "address",
          "name": "newImplementation",
          "type": "address"
        },
        {
          "internalType": "bytes",
          "name": "data",
          "type": "bytes"
        }
      ],
      "name": "upgradeToAndCall",
      "outputs": [],
      "stateMutability": "payable",
      "type": "function"
    },
    {
      "inputs": [
        {
          "internalType": "bytes32",
          "name": "",
          "type": "bytes32"
        }
      ],
      "name": "usernameTaken",
      "outputs": [
        {
          "internalType": "bool",
          "name": "",
          "type": "bool"
        }
      ],
      "stateMutability": "view",
      "type": "function"
    },
    {
      "inputs": [
        {
          "internalType": "bytes32",
          "name": "",
          "type": "bytes32"
        }
      ],
      "name": "usernameToTokenId",
      "outputs": [
        {
          "internalType": "uint256",
          "name": "",
          "type": "uint256"
        }
      ],
      "stateMutability": "view",
      "type": "function"
    }
  ],
  "bytecode": "0x60a080604052346100ea57306080527ff0c57e16840df040f15088dc2f81fe391c3923bec73e23a9662efc9c229c6a005460ff8160401c166100d9576002600160401b03196001600160401b03821601610073575b604051611d4790816100f0823960805181818161104701526110dc0152f35b6001600160401b0319166001600160401b039081177ff0c57e16840df040f15088dc2f81fe391c3923bec73e23a9662efc9c229c6a005581527fc7f505b2f371ae2175ee4913f4499e1f2633a7b5936321eed1cdaeb6115181d290602090a13880610054565b63f92ee8a960e01b60005260046000fd5b600080fdfe608080604052600436101561001357600080fd5b600090813560e01c90816301ffc9a7146114c65750806306fdde0314611405578063081812fc146113b9578063095ea7b3146112d157806323b872dd146112b957806342842e0e146112895780634f1ef2861461109c57806352d1902d146110345780636352211e146110035780636fcdca7214610fd457806370a0823114610fa8578063715018a614610f3e5780638da5cb5b14610f0857806395d89b4114610e47578063a22cb46514610da8578063ad3cb1cc14610d5f578063b88d4fde14610cff578063ba1feb8a146107cd578063c4d66de814610304578063c87b56dd146102ac578063e985e9c51461025d578063f2fde38b14610230578063fad32197146101555763ff4674301461012957600080fd5b346101525760203660031901126101525760406020916004358152600283522054604051908152f35b80fd5b503461015257602036600319011261015257604090600435815260016020522060405190600090805490610188826116a8565b808552916001811690811561020957506001146101c8575b6101c4846101b0818603826115df565b604051918291602083526020830190611533565b0390f35b600090815260208120939250905b8082106101ef575090915081016020016101b0826101a0565b9192600181602092548385880101520191019092916101d6565b60ff191660208087019190915292151560051b850190920192506101b091508390506101a0565b50346101525760203660031901126101525761025a61024d611574565b610255611a0d565b611966565b80f35b503461015257604036600319011261015257610277611574565b61028861028261158f565b916118c2565b9060018060a01b0316600052602052602060ff604060002054166040519015158152f35b5034610152576020366003190112610152576102c96004356119dc565b50806040516102d96020826115df565b52506101c46040516102ec6020826115df565b60008152604051918291602083526020830190611533565b50346101525760203660031901126101525761031e611574565b90600080516020611cd2833981519152549160ff8360401c16159267ffffffffffffffff8116801590816107c5575b60011490816107bb575b1590816107b2575b506107a35767ffffffffffffffff198116600117600080516020611cd28339815191525561039f919084610776575b50610397611bc2565b610255611bc2565b6103a7611bc2565b60408051926103b682856115df565b600c84526b4e6f76612050726f66696c6560a01b60208501528151936103dc83866115df565b600385526204e56560ec1b60208601526103f4611bc2565b6103fc611bc2565b80519067ffffffffffffffff821161076257610426600080516020611c52833981519152546116a8565b601f81116106f2575b50602090601f8311600114610655576104609291869183610548575b50508160011b916000199060031b1c19161790565b600080516020611c52833981519152555b835167ffffffffffffffff81116106415761049a600080516020611cf2833981519152546116a8565b601f81116105d1575b50602094601f821160011461055357849582916104d6949596926105485750508160011b916000199060031b1c19161790565b600080516020611cf2833981519152555b6104ef575080f35b60207fc7f505b2f371ae2175ee4913f4499e1f2633a7b5936321eed1cdaeb6115181d29168ff000000000000000019600080516020611cd28339815191525416600080516020611cd2833981519152555160018152a180f35b01519050388061044b565b601f19821695600080516020611cf2833981519152865280862091865b8881106105b9575083600195969798106105a0575b505050811b01600080516020611cf2833981519152556104e7565b015160001960f88460031b161c19169055388080610585565b91926020600181928685015181550194019201610570565b600080516020611cf283398151915285527ff4bad0a69248f59680a4f2b3000328cec71a413447c96781cfe5996daa8c456e601f830160051c81019160208410610637575b601f0160051c01905b81811061062c57506104a3565b85815560010161061f565b9091508190610616565b634e487b7160e01b84526041600452602484fd5b600080516020611c5283398151915286527f37c58c799b6609234b945e882912ee9ad34948a1dfaa20a97485e1a7752bbf819190601f198416875b8181106106da57509084600195949392106106c1575b505050811b01600080516020611c5283398151915255610471565b015160001960f88460031b161c191690553880806106a6565b92936020600181928786015181550195019301610690565b600080516020611c5283398151915286527f37c58c799b6609234b945e882912ee9ad34948a1dfaa20a97485e1a7752bbf81601f840160051c81019160208510610758575b601f0160051c01905b81811061074d575061042f565b868155600101610740565b9091508190610737565b634e487b7160e01b85526041600452602485fd5b68ffffffffffffffffff19166801000000000000000117600080516020611cd2833981519152553861038e565b63f92ee8a960e01b8352600483fd5b9050153861035f565b303b159150610357565b85915061034d565b50346101525760403660031901126101525760043567ffffffffffffffff8111610cfb576107ff90369060040161167a565b60243567ffffffffffffffff8111610cf75761081f90369060040161167a565b9061082933611934565b610ca6576040516020810190848683376108566020828781018a838201520301601f1981018352826115df565b51902093848652600360205260ff604087205416610c615785549460018601875560209260405161088785826115df565b8881523315610c4d5761089988611b88565b6001600160a01b03811680151591908a908c9084610c0e575b6108bb336118fb565b805460010190558282527f80bb2b638cc20bc4d0a60d66940f3ab4a00c1d7b313497ca82fb0b4ab00793028a526040822080546001600160a01b03191633908117909155917fddf252ad1be2c89b69c2b068fc378daa952ba7f163c4a11628f55a4df523b3ef9080a450610bfa57333b610b01575b5086885260018452604088209067ffffffffffffffff8611610aed57908693929161095b82546116a8565b601f8111610a99575b508990601f8811600114610a125796806109b5927f02ed4ee0412e67bbc9ed1687f3ad6bb7134d359d45994f3bf5302e91d81cf61f998d92610a075750508160011b916000199060031b1c19161790565b90555b8088526002845286604089205587526003835260408720600160ff198254161790558160405193808552840152604083013784604084830101526040813394601f80199101168101030190a380f35b01359050388061044b565b828b52868b209791601f1983168c5b818110610a7f5750917f02ed4ee0412e67bbc9ed1687f3ad6bb7134d359d45994f3bf5302e91d81cf61f9991846001959410610a65575b505050811b0190556109b8565b0135600019600384901b60f8161c19169055388080610a58565b838301358b556001909a01998b9850918901918901610a21565b909180939495508a52858a20601f880160051c810191878910610ae3575b90601f8a9796959493920160051c01905b818110610ad55750610964565b8b8155899650600101610ac8565b9091508190610ab7565b634e487b7160e01b89526041600452602489fd5b84610b409160409a999897969a5180938192630a85bd0160e11b83523360048401528c60248401528b6044840152608060648401526084830190611533565b03818b335af1889181610bb6575b50610b7e578888610b5d611a43565b8051929083610b7957633250574960e11b835233600452602483fd5b019050fd5b96979596949593946001600160e01b03191663757a42ff60e11b01610ba35738610930565b633250574960e11b885233600452602488fd5b9091508981813d8311610bf3575b610bce81836115df565b81010312610bef57516001600160e01b031981168103610bef579038610b4e565b8880fd5b503d610bc4565b6339e3563760e11b89526004899052602489fd5b6000838152600080516020611cb28339815191526020526040902080546001600160a01b0319169055610c40846118fb565b80546000190190556108b2565b633250574960e11b89526004899052602489fd5b60405162461bcd60e51b815260206004820152601b60248201527f50726f66696c653a20557365726e616d652069732074616b656e2e00000000006044820152606490fd5b60405162461bcd60e51b8152602060048201526024808201527f50726f66696c653a205573657220616c72656164792068617320612070726f6660448201526334b6329760e11b6064820152608490fd5b8380fd5b5080fd5b503461015257608036600319011261015257610d19611574565b610d2161158f565b906044356064359267ffffffffffffffff8411610d5b57610d4961025a943690600401611633565b92610d558383836116e2565b33611a73565b8480fd5b5034610152578060031936011261015257506101c4604051610d826040826115df565b60058152640352e302e360dc1b6020820152604051918291602083526020830190611533565b503461015257604036600319011261015257610dc2611574565b60243590811515809203610e43576001600160a01b0316908115610e2f57610de9336118c2565b8284526020526040832060ff1981541660ff83161790556040519081527f17307eab39ab6107e8899845ad3d59bd9653f200f220920489ca2b5937696c3160203392a380f35b630b61174360e31b83526004829052602483fd5b8280fd5b50346101525780600319360112610152576040519080600080516020611cf28339815191525490610e77826116a8565b80855291600181169081156102095750600114610e9e576101c4846101b0818603826115df565b600080516020611cf283398151915281527ff4bad0a69248f59680a4f2b3000328cec71a413447c96781cfe5996daa8c456e939250905b808210610eee575090915081016020016101b0826101a0565b919260018160209254838588010152019101909291610ed5565b5034610152578060031936011261015257600080516020611c72833981519152546040516001600160a01b039091168152602090f35b5034610152578060031936011261015257610f57611a0d565b600080516020611c7283398151915280546001600160a01b0319811690915581906001600160a01b03167f8be0079c531659141344cd1fd0a4f28419497f9722a3daafe3b4186f6b6457e08280a380f35b5034610152576020366003190112610152576020610fcc610fc7611574565b611934565b604051908152f35b50346101525760203660031901126101525760ff60406020926004358152600384522054166040519015158152f35b50346101525760203660031901126101525760206110226004356119dc565b6040516001600160a01b039091168152f35b50346101525780600319360112610152577f00000000000000000000000000000000000000000000000000000000000000006001600160a01b0316300361108d576020604051600080516020611c928339815191528152f35b63703e46dd60e11b8152600490fd5b506040366003190112610152576110b1611574565b9060243567ffffffffffffffff8111610cfb576110d2903690600401611633565b6001600160a01b037f000000000000000000000000000000000000000000000000000000000000000016308114908115611266575b5061125757611114611a0d565b6040516352d1902d60e01b8152926001600160a01b0381169190602085600481865afa80958596611223575b5061115957634c9c8ce360e01b84526004839052602484fd5b909184600080516020611c9283398151915281036112115750813b156111ff57600080516020611c9283398151915280546001600160a01b031916821790557fbc7cd75a20ee27fd9adebab32041f755214dbc6bffa90cc0225b39da2e5c2d3b8480a281518390156111e557808360206111e195519101845af46111db611a43565b91611bf0565b5080f35b505050346111f05780f35b63b398979f60e01b8152600490fd5b634c9c8ce360e01b8452600452602483fd5b632a87526960e21b8552600452602484fd5b9095506020813d60201161124f575b8161123f602093836115df565b81010312610d5b57519438611140565b3d9150611232565b63703e46dd60e11b8252600482fd5b600080516020611c92833981519152546001600160a01b03161415905038611107565b50346101525761025a61129b366115a5565b90604051926112ab6020856115df565b858452610d558383836116e2565b50346101525761025a6112cb366115a5565b916116e2565b5034610152576040366003190112610152576112eb611574565b6024356112f7816119dc565b331515806113a6575b80611388575b6113755781906001600160a01b0384811691167f8c5be1e5ebec7d5bd14f71427d1e84f3dd0314c0f7b2291e5b200ac8c7c3b9258680a48252600080516020611cb28339815191526020526040822080546001600160a01b0319166001600160a01b0390921691909117905580f35b63a9fbf51f60e01b845233600452602484fd5b50611392816118c2565b338552602052604084205460ff1615611306565b506001600160a01b038116331415611300565b50346101525760203660031901126101525760206110226004356113dc816119dc565b506000908152600080516020611cb283398151915260205260409020546001600160a01b031690565b50346101525780600319360112610152576040519080600080516020611c528339815191525490611435826116a8565b8085529160018116908115610209575060011461145c576101c4846101b0818603826115df565b600080516020611c5283398151915281527f37c58c799b6609234b945e882912ee9ad34948a1dfaa20a97485e1a7752bbf81939250905b8082106114ac575090915081016020016101b0826101a0565b919260018160209254838588010152019101909291611493565b905034610cfb576020366003190112610cfb5760043563ffffffff60e01b8116809103610e4357602092506380ac58cd60e01b8114908115611522575b8115611511575b5015158152f35b6301ffc9a760e01b1490503861150a565b635b5e139f60e01b81149150611503565b919082519283825260005b84811061155f575050826000602080949584010152601f8019910116010190565b8060208092840101518282860101520161153e565b600435906001600160a01b038216820361158a57565b600080fd5b602435906001600160a01b038216820361158a57565b606090600319011261158a576004356001600160a01b038116810361158a57906024356001600160a01b038116810361158a579060443590565b90601f8019910116810190811067ffffffffffffffff82111761160157604052565b634e487b7160e01b600052604160045260246000fd5b67ffffffffffffffff811161160157601f01601f191660200190565b81601f8201121561158a5780359061164a82611617565b9261165860405194856115df565b8284526020838301011161158a57816000926020809301838601378301015290565b9181601f8401121561158a5782359167ffffffffffffffff831161158a576020838186019501011161158a57565b90600182811c921680156116d8575b60208310146116c257565b634e487b7160e01b600052602260045260246000fd5b91607f16916116b7565b909291906001600160a01b03841680156118ac5760009461170284611b88565b9533151580611800575b509184917fddf252ad1be2c89b69c2b068fc378daa952ba7f163c4a11628f55a4df523b3ef61174d97989460018060a01b038616988993846117c1576118fb565b805460010190558481527f80bb2b638cc20bc4d0a60d66940f3ab4a00c1d7b313497ca82fb0b4ab00793026020526040812080546001600160a01b0319168517905580a4506001600160a01b03168083036117a757505050565b6364283d7b60e01b60005260045260245260445260646000fd5b6000878152600080516020611cb28339815191526020526040902080546001600160a01b03191690556117f3886118fb565b80546000190190556118fb565b80611849575b15611811573861170c565b84906001600160a01b03881661183357602491637e27328960e01b8252600452fd5b60449163177e802f60e01b825233600452602452fd5b506001600160a01b0387163314801561188f575b8061180657506000858152600080516020611cb283398151915260205260409020546001600160a01b03163314611806565b50611899876118c2565b338252602052604081205460ff1661185d565b633250574960e11b600052600060045260246000fd5b6001600160a01b031660009081527f80bb2b638cc20bc4d0a60d66940f3ab4a00c1d7b313497ca82fb0b4ab00793056020526040902090565b6001600160a01b031660009081527f80bb2b638cc20bc4d0a60d66940f3ab4a00c1d7b313497ca82fb0b4ab00793036020526040902090565b6001600160a01b038116156119505761194c906118fb565b5490565b6322718ad960e21b600052600060045260246000fd5b6001600160a01b031680156119c657600080516020611c7283398151915280546001600160a01b0319811683179091556001600160a01b03167f8be0079c531659141344cd1fd0a4f28419497f9722a3daafe3b4186f6b6457e0600080a3565b631e4fbdf760e01b600052600060045260246000fd5b6119e581611b88565b906001600160a01b038216156119f9575090565b637e27328960e01b60005260045260246000fd5b600080516020611c72833981519152546001600160a01b03163303611a2e57565b63118cdaa760e01b6000523360045260246000fd5b3d15611a6e573d90611a5482611617565b91611a6260405193846115df565b82523d6000602084013e565b606090565b823b611a81575b5050505050565b604051630a85bd0160e11b81526001600160a01b039182166004820152918116602483015260448201939093526080606482015291169160209082908190611acd906084830190611533565b03816000865af18091600091611b45575b5090611b0f5750611aed611a43565b80519081611b0a5782633250574960e11b60005260045260246000fd5b602001fd5b6001600160e01b03191663757a42ff60e11b01611b3157503880808080611a7a565b633250574960e11b60005260045260246000fd5b6020813d602011611b80575b81611b5e602093836115df565b81010312610cfb5751906001600160e01b031982168203610152575038611ade565b3d9150611b51565b60009081527f80bb2b638cc20bc4d0a60d66940f3ab4a00c1d7b313497ca82fb0b4ab007930260205260409020546001600160a01b031690565b60ff600080516020611cd28339815191525460401c1615611bdf57565b631afcd79f60e31b60005260046000fd5b90611c165750805115611c0557602081519101fd5b63d6bda27560e01b60005260046000fd5b81511580611c48575b611c27575090565b639996b31560e01b60009081526001600160a01b0391909116600452602490fd5b50803b15611c1f56fe80bb2b638cc20bc4d0a60d66940f3ab4a00c1d7b313497ca82fb0b4ab00793009016d09d72d40fdae2fd8ceac6b6234c7706214fd39c1cd1e609a0528c199300360894a13ba1a3210667c828492db98dca3e2076cc3735a920a3ca505d382bbc80bb2b638cc20bc4d0a60d66940f3ab4a00c1d7b313497ca82fb0b4ab0079304f0c57e16840df040f15088dc2f81fe391c3923bec73e23a9662efc9c229c6a0080bb2b638cc20bc4d0a60d66940f3ab4a00c1d7b313497ca82fb0b4ab0079301a2646970667358221220d4c3475400473119b0d307aba87e1d6189cce702dff4b6288da82fc37bccabc564736f6c634300081e0033",
  "linkReferences": {},
  "deployedLinkReferences": {}
}