{
  "_format": "hh-sol-artifact-1",
  "contractName": "NovaCoin_ProgrammableSupply",
  "sourceName": "contracts/NovaCoin_ProgrammableSupply.sol",
  "abi": [
    {
      "inputs": [],
      "stateMutability": "nonpayable",
      "type": "constructor"
    },
    {
      "inputs": [
        {
          "internalType": "address",
          "name": "target",
          "type": "address"
        }
      ],
      "name": "AddressEmptyCode",
      "type": "error"
    },
    {
      "inputs": [
        {
          "internalType": "address",
          "name": "implementation",
          "type": "address"
        }
      ],
      "name": "ERC1967InvalidImplementation",
      "type": "error"
    },
    {
      "inputs": [],
      "name": "ERC1967NonPayable",
      "type": "error"
    },
    {
      "inputs": [
        {
          "internalType": "address",
          "name": "spender",
          "type": "address"
        },
        {
          "internalType": "uint256",
          "name": "allowance",
          "type": "uint256"
        },
        {
          "internalType": "uint256",
          "name": "needed",
          "type": "uint256"
        }
      ],
      "name": "ERC20InsufficientAllowance",
      "type": "error"
    },
    {
      "inputs": [
        {
          "internalType": "address",
          "name": "sender",
          "type": "address"
        },
        {
          "internalType": "uint256",
          "name": "balance",
          "type": "uint256"
        },
        {
          "internalType": "uint256",
          "name": "needed",
          "type": "uint256"
        }
      ],
      "name": "ERC20InsufficientBalance",
      "type": "error"
    },
    {
      "inputs": [
        {
          "internalType": "address",
          "name": "approver",
          "type": "address"
        }
      ],
      "name": "ERC20InvalidApprover",
      "type": "error"
    },
    {
      "inputs": [
        {
          "internalType": "address",
          "name": "receiver",
          "type": "address"
        }
      ],
      "name": "ERC20InvalidReceiver",
      "type": "error"
    },
    {
      "inputs": [
        {
          "internalType": "address",
          "name": "sender",
          "type": "address"
        }
      ],
      "name": "ERC20InvalidSender",
      "type": "error"
    },
    {
      "inputs": [
        {
          "internalType": "address",
          "name": "spender",
          "type": "address"
        }
      ],
      "name": "ERC20InvalidSpender",
      "type": "error"
    },
    {
      "inputs": [],
      "name": "FailedCall",
      "type": "error"
    },
    {
      "inputs": [],
      "name": "InvalidInitialization",
      "type": "error"
    },
    {
      "inputs": [],
      "name": "NotInitializing",
      "type": "error"
    },
    {
      "inputs": [
        {
          "internalType": "address",
          "name": "owner",
          "type": "address"
        }
      ],
      "name": "OwnableInvalidOwner",
      "type": "error"
    },
    {
      "inputs": [
        {
          "internalType": "address",
          "name": "account",
          "type": "address"
        }
      ],
      "name": "OwnableUnauthorizedAccount",
      "type": "error"
    },
    {
      "inputs": [],
      "name": "UUPSUnauthorizedCallContext",
      "type": "error"
    },
    {
      "inputs": [
        {
          "internalType": "bytes32",
          "name": "slot",
          "type": "bytes32"
        }
      ],
      "name": "UUPSUnsupportedProxiableUUID",
      "type": "error"
    },
    {
      "anonymous": false,
      "inputs": [
        {
          "indexed": true,
          "internalType": "address",
          "name": "owner",
          "type": "address"
        },
        {
          "indexed": true,
          "internalType": "address",
          "name": "spender",
          "type": "address"
        },
        {
          "indexed": false,
          "internalType": "uint256",
          "name": "value",
          "type": "uint256"
        }
      ],
      "name": "Approval",
      "type": "event"
    },
    {
      "anonymous": false,
      "inputs": [
        {
          "indexed": true,
          "internalType": "address",
          "name": "_communityFundAddress",
          "type": "address"
        }
      ],
      "name": "CommunityFundAddressSet",
      "type": "event"
    },
    {
      "anonymous": false,
      "inputs": [
        {
          "indexed": true,
          "internalType": "uint256",
          "name": "periodIndex",
          "type": "uint256"
        },
        {
          "indexed": false,
          "internalType": "uint256",
          "name": "newBaseMintAmount",
          "type": "uint256"
        }
      ],
      "name": "HalvingOccurred",
      "type": "event"
    },
    {
      "anonymous": false,
      "inputs": [
        {
          "indexed": false,
          "internalType": "uint64",
          "name": "version",
          "type": "uint64"
        }
      ],
      "name": "Initialized",
      "type": "event"
    },
    {
      "anonymous": false,
      "inputs": [
        {
          "indexed": true,
          "internalType": "address",
          "name": "previousOwner",
          "type": "address"
        },
        {
          "indexed": true,
          "internalType": "address",
          "name": "newOwner",
          "type": "address"
        }
      ],
      "name": "OwnershipTransferred",
      "type": "event"
    },
    {
      "anonymous": false,
      "inputs": [
        {
          "indexed": true,
          "internalType": "uint256",
          "name": "periodIndex",
          "type": "uint256"
        },
        {
          "indexed": true,
          "internalType": "address",
          "name": "destination",
          "type": "address"
        },
        {
          "indexed": false,
          "internalType": "uint256",
          "name": "amount",
          "type": "uint256"
        }
      ],
      "name": "SupplyMinted",
      "type": "event"
    },
    {
      "anonymous": false,
      "inputs": [
        {
          "indexed": true,
          "internalType": "address",
          "name": "from",
          "type": "address"
        },
        {
          "indexed": true,
          "internalType": "address",
          "name": "to",
          "type": "address"
        },
        {
          "indexed": false,
          "internalType": "uint256",
          "name": "value",
          "type": "uint256"
        }
      ],
      "name": "Transfer",
      "type": "event"
    },
    {
      "anonymous": false,
      "inputs": [
        {
          "indexed": true,
          "internalType": "address",
          "name": "implementation",
          "type": "address"
        }
      ],
      "name": "Upgraded",
      "type": "event"
    },
    {
      "inputs": [],
      "name": "DECIMAL_FACTOR",
      "outputs": [
        {
          "internalType": "uint256",
          "name": "",
          "type": "uint256"
        }
      ],
      "stateMutability": "view",
      "type": "function"
    },
    {
      "inputs": [],
      "name": "HALVING_DECADE_DURATION",
      "outputs": [
        {
          "internalType": "uint256",
          "name": "",
          "type": "uint256"
        }
      ],
      "stateMutability": "view",
      "type": "function"
    },
    {
      "inputs": [],
      "name": "INITIAL_BASE_YEARLY_MINT_AMOUNT",
      "outputs": [
        {
          "internalType": "uint256",
          "name": "",
          "type": "uint256"
        }
      ],
      "stateMutability": "view",
      "type": "function"
    },
    {
      "inputs": [],
      "name": "INITIAL_EMISSION_PERIODS",
      "outputs": [
        {
          "internalType": "uint256",
          "name": "",
          "type": "uint256"
        }
      ],
      "stateMutability": "view",
      "type": "function"
    },
    {
      "inputs": [],
      "name": "MAX_TOTAL_SUPPLY",
      "outputs": [
        {
          "internalType": "uint256",
          "name": "",
          "type": "uint256"
        }
      ],
      "stateMutability": "view",
      "type": "function"
    },
    {
      "inputs": [],
      "name": "OWNER_YEARLY_SHARE_INITIAL",
      "outputs": [
        {
          "internalType": "uint256",
          "name": "",
          "type": "uint256"
        }
      ],
      "stateMutability": "view",
      "type": "function"
    },
    {
      "inputs": [],
      "name": "PERIOD_DURATION",
      "outputs": [
        {
          "internalType": "uint256",
          "name": "",
          "type": "uint256"
        }
      ],
      "stateMutability": "view",
      "type": "function"
    },
    {
      "inputs": [],
      "name": "UPGRADE_INTERFACE_VERSION",
      "outputs": [
        {
          "internalType": "string",
          "name": "",
          "type": "string"
        }
      ],
      "stateMutability": "view",
      "type": "function"
    },
    {
      "inputs": [
        {
          "internalType": "address",
          "name": "owner",
          "type": "address"
        },
        {
          "internalType": "address",
          "name": "spender",
          "type": "address"
        }
      ],
      "name": "allowance",
      "outputs": [
        {
          "internalType": "uint256",
          "name": "",
          "type": "uint256"
        }
      ],
      "stateMutability": "view",
      "type": "function"
    },
    {
      "inputs": [
        {
          "internalType": "address",
          "name": "spender",
          "type": "address"
        },
        {
          "internalType": "uint256",
          "name": "value",
          "type": "uint256"
        }
      ],
      "name": "approve",
      "outputs": [
        {
          "internalType": "bool",
          "name": "",
          "type": "bool"
        }
      ],
      "stateMutability": "nonpayable",
      "type": "function"
    },
    {
      "inputs": [
        {
          "internalType": "address",
          "name": "account",
          "type": "address"
        }
      ],
      "name": "balanceOf",
      "outputs": [
        {
          "internalType": "uint256",
          "name": "",
          "type": "uint256"
        }
      ],
      "stateMutability": "view",
      "type": "function"
    },
    {
      "inputs": [],
      "name": "communityFundAddress",
      "outputs": [
        {
          "internalType": "address",
          "name": "",
          "type": "address"
        }
      ],
      "stateMutability": "view",
      "type": "function"
    },
    {
      "inputs": [],
      "name": "currentEmissionPeriodIndex",
      "outputs": [
        {
          "internalType": "uint256",
          "name": "",
          "type": "uint256"
        }
      ],
      "stateMutability": "view",
      "type": "function"
    },
    {
      "inputs": [],
      "name": "decimals",
      "outputs": [
        {
          "internalType": "uint8",
          "name": "",
          "type": "uint8"
        }
      ],
      "stateMutability": "view",
      "type": "function"
    },
    {
      "inputs": [],
      "name": "getCurrentExpectedBaseMintAmount",
      "outputs": [
        {
          "internalType": "uint256",
          "name": "",
          "type": "uint256"
        }
      ],
      "stateMutability": "view",
      "type": "function"
    },
    {
      "inputs": [
        {
          "internalType": "address",
          "name": "initialOwner",
          "type": "address"
        },
        {
          "internalType": "address",
          "name": "_communityFundAddress",
          "type": "address"
        }
      ],
      "name": "initialize",
      "outputs": [],
      "stateMutability": "nonpayable",
      "type": "function"
    },
    {
      "inputs": [],
      "name": "lastMintPeriodTimestamp",
      "outputs": [
        {
          "internalType": "uint256",
          "name": "",
          "type": "uint256"
        }
      ],
      "stateMutability": "view",
      "type": "function"
    },
    {
      "inputs": [],
      "name": "mintScheduledSupply",
      "outputs": [],
      "stateMutability": "nonpayable",
      "type": "function"
    },
    {
      "inputs": [],
      "name": "name",
      "outputs": [
        {
          "internalType": "string",
          "name": "",
          "type": "string"
        }
      ],
      "stateMutability": "view",
      "type": "function"
    },
    {
      "inputs": [],
      "name": "owner",
      "outputs": [
        {
          "internalType": "address",
          "name": "",
          "type": "address"
        }
      ],
      "stateMutability": "view",
      "type": "function"
    },
    {
      "inputs": [],
      "name": "proxiableUUID",
      "outputs": [
        {
          "internalType": "bytes32",
          "name": "",
          "type": "bytes32"
        }
      ],
      "stateMutability": "view",
      "type": "function"
    },
    {
      "inputs": [],
      "name": "renounceOwnership",
      "outputs": [],
      "stateMutability": "nonpayable",
      "type": "function"
    },
    {
      "inputs": [
        {
          "internalType": "address",
          "name": "_newCommunityFundAddress",
          "type": "address"
        }
      ],
      "name": "setCommunityFundAddress",
      "outputs": [],
      "stateMutability": "nonpayable",
      "type": "function"
    },
    {
      "inputs": [],
      "name": "symbol",
      "outputs": [
        {
          "internalType": "string",
          "name": "",
          "type": "string"
        }
      ],
      "stateMutability": "view",
      "type": "function"
    },
    {
      "inputs": [],
      "name": "totalSupply",
      "outputs": [
        {
          "internalType": "uint256",
          "name": "",
          "type": "uint256"
        }
      ],
      "stateMutability": "view",
      "type": "function"
    },
    {
      "inputs": [
        {
          "internalType": "address",
          "name": "to",
          "type": "address"
        },
        {
          "internalType": "uint256",
          "name": "value",
          "type": "uint256"
        }
      ],
      "name": "transfer",
      "outputs": [
        {
          "internalType": "bool",
          "name": "",
          "type": "bool"
        }
      ],
      "stateMutability": "nonpayable",
      "type": "function"
    },
    {
      "inputs": [
        {
          "internalType": "address",
          "name": "from",
          "type": "address"
        },
        {
          "internalType": "address",
          "name": "to",
          "type": "address"
        },
        {
          "internalType": "uint256",
          "name": "value",
          "type": "uint256"
        }
      ],
      "name": "transferFrom",
      "outputs": [
        {
          "internalType": "bool",
          "name": "",
          "type": "bool"
        }
      ],
      "stateMutability": "nonpayable",
      "type": "function"
    },
    {
      "inputs": [
        {
          "internalType": "address",
          "name": "newOwner",
          "type": "address"
        }
      ],
      "name": "transferOwnership",
      "outputs": [],
      "stateMutability": "nonpayable",
      "type": "function"
    },
    {
      "inputs": [
        {
          "internalType": "address",
          "name": "newImplementation",
          "type": "address"
        },
        {
          "internalType": "bytes",
          "name": "data",
          "type": "bytes"
        }
      ],
      "name": "upgradeToAndCall",
      "outputs": [],
      "stateMutability": "payable",
      "type": "function"
    }
  ],
  "bytecode": "0x60a080604052346100ea57306080527ff0c57e16840df040f15088dc2f81fe391c3923bec73e23a9662efc9c229c6a005460ff8160401c166100d9576002600160401b03196001600160401b03821601610073575b604051611a8990816100f082396080518181816105ef01526106c30152f35b6001600160401b0319166001600160401b039081177ff0c57e16840df040f15088dc2f81fe391c3923bec73e23a9662efc9c229c6a005581527fc7f505b2f371ae2175ee4913f4499e1f2633a7b5936321eed1cdaeb6115181d290602090a13880610054565b63f92ee8a960e01b60005260046000fd5b600080fdfe6080604052600436101561001257600080fd5b60003560e01c806306fdde031461147a578063095ea7b3146113f957806318160ddd146113ce57806323b872dd146112ea578063269d384714610e86578063273c41f414610e6857806328a87d0814610e4c578063313ce56714610e3057806333039d3d14610e0857806333fdbbe514610de5578063485cc955146108875780634f1ef2861461064657806352d1902d146105dc578063622407e8146105b45780636558954f1461059557806366a27f55146104d557806370a082311461048e578063715018a6146104245780638da5cb5b146103ee5780638f95ef6b146103c557806395d89b41146102d2578063a9059cbb146102a1578063ad3cb1cc1461025e578063b231bb571461023f578063bc9ffa7314610221578063d1509c50146101fb578063d6a5a51a146101d4578063dd62ed3e1461018b5763f2fde38b1461015b57600080fd5b3461018657602036600319011261018657610184610177611585565b61017f6117e1565b61167c565b005b600080fd5b34610186576040366003190112610186576101a4611585565b6101b56101af61159b565b91611643565b9060018060a01b03166000526020526020604060002054604051908152f35b346101865760003660031901126101865760206040516b0cecb8f27f4200f3a00000008152f35b34610186576000366003190112610186576020610219600254611817565b604051908152f35b34610186576000366003190112610186576020600154604051908152f35b346101865760003660031901126101865760206040516312cc03008152f35b346101865760003660031901126101865761029d604080519061028181836115b1565b60058252640352e302e360dc1b6020830152519182918261153c565b0390f35b34610186576040366003190112610186576102c76102bd611585565b60243590336116f2565b602060405160018152f35b346101865760003660031901126101865760405160006000805160206119b483398151915254610301816115ef565b80845290600181169081156103a15750600114610335575b61029d83610329818503826115b1565b6040519182918261153c565b6000805160206119b483398151915260009081527f46a2803e59a4de4e7a4c574b1243f25977ac4c77d5a1a4a609b5394cebb4a2aa939250905b80821061038757509091508101602001610329610319565b91926001816020925483858801015201910190929161036f565b60ff191660208086019190915291151560051b840190910191506103299050610319565b34610186576000366003190112610186576000546040516001600160a01b039091168152602090f35b34610186576000366003190112610186576000805160206119d4833981519152546040516001600160a01b039091168152602090f35b346101865760003660031901126101865761043d6117e1565b6000805160206119d483398151915280546001600160a01b031981169091556000906001600160a01b03167f8be0079c531659141344cd1fd0a4f28419497f9722a3daafe3b4186f6b6457e08280a3005b34610186576020366003190112610186576001600160a01b036104af611585565b166000526000805160206119948339815191526020526020604060002054604051908152f35b34610186576020366003190112610186576104ee611585565b6104f66117e1565b6001600160a01b0316801561053d57600080546001600160a01b031916821781557f965cca3f68952b9cdd5496786625c15bf061432ff84e2e25f5a2dac7ae5e8d4b9080a2005b60405162461bcd60e51b815260206004820152602a60248201527f4e657720636f6d6d756e6974792066756e6420616464726573732063616e6e6f6044820152693a103132903d32b9379760b11b6064820152608490fd5b346101865760003660031901126101865760206040516301e133808152f35b346101865760003660031901126101865760206040516c01431e0fae6d7217caa00000008152f35b34610186576000366003190112610186577f00000000000000000000000000000000000000000000000000000000000000006001600160a01b03163003610635576020604051600080516020611a148339815191528152f35b63703e46dd60e11b60005260046000fd5b60403660031901126101865761065a611585565b6024359067ffffffffffffffff8211610186573660238301121561018657816004013590610687826115d3565b9161069560405193846115b1565b8083526020830193366024838301011161018657816000926024602093018737840101526001600160a01b037f000000000000000000000000000000000000000000000000000000000000000016308114908115610864575b50610635576106fb6117e1565b6040516352d1902d60e01b81526001600160a01b0382169390602081600481885afa60009181610830575b506107405784634c9c8ce360e01b60005260045260246000fd5b80600080516020611a1483398151915286920361081c5750823b1561080857600080516020611a1483398151915280546001600160a01b031916821790557fbc7cd75a20ee27fd9adebab32041f755214dbc6bffa90cc0225b39da2e5c2d3b600080a28251156107ed5760008091610184945190845af43d156107e5573d916107c8836115d3565b926107d660405194856115b1565b83523d6000602085013e611912565b606091611912565b505050346107f757005b63b398979f60e01b60005260046000fd5b634c9c8ce360e01b60005260045260246000fd5b632a87526960e21b60005260045260246000fd5b9091506020813d60201161085c575b8161084c602093836115b1565b8101031261018657519086610726565b3d915061083f565b600080516020611a14833981519152546001600160a01b031614159050846106ee565b34610186576040366003190112610186576108a0611585565b6108a861159b565b600080516020611a34833981519152549060ff8260401c16159167ffffffffffffffff811680159081610ddd575b6001149081610dd3575b159081610dca575b50610db95767ffffffffffffffff198116600117600080516020611a348339815191525582610d8c575b50604092835161092285826115b1565b60088152672737bb30a1b7b4b760c11b602082015284519061094486836115b1565b60048252634e4f564160e01b602083015261095d6118e4565b6109656118e4565b80519067ffffffffffffffff8211610c6c578190610991600080516020611974833981519152546115ef565b601f8111610d0f575b50602090601f8311600114610c8d57600092610c82575b50508160011b916000199060031b1c191617600080516020611974833981519152555b80519067ffffffffffffffff8211610c6c576109fe6000805160206119b4833981519152546115ef565b601f8111610bfa575b50602090601f8311600114610b7357610a5893929160009183610b68575b50508160011b916000199060031b1c1916176000805160206119b4833981519152555b610a506118e4565b61017f6118e4565b610a606118e4565b6001600160a01b0316918215610b1657826bffffffffffffffffffffffff60a01b600054161760005551917f965cca3f68952b9cdd5496786625c15bf061432ff84e2e25f5a2dac7ae5e8d4b600080a2426001556000600255610abf57005b60207fc7f505b2f371ae2175ee4913f4499e1f2633a7b5936321eed1cdaeb6115181d29168ff000000000000000019600080516020611a348339815191525416600080516020611a348339815191525560018152a1005b5162461bcd60e51b815260206004820152602660248201527f436f6d6d756e6974792066756e6420616464726573732063616e6e6f74206265604482015265103d32b9379760d11b6064820152608490fd5b015190508780610a25565b90601f198316916000805160206119b4833981519152600052816000209260005b818110610be25750916001939185610a5897969410610bc9575b505050811b016000805160206119b483398151915255610a48565b015160001960f88460031b161c19169055878080610bae565b92936020600181928786015181550195019301610b94565b6000805160206119b48339815191526000527f46a2803e59a4de4e7a4c574b1243f25977ac4c77d5a1a4a609b5394cebb4a2aa601f840160051c81019160208510610c62575b601f0160051c01905b818110610c565750610a07565b60008155600101610c49565b9091508190610c40565b634e487b7160e01b600052604160045260246000fd5b0151905087806109b1565b60008051602061197483398151915260009081528281209350601f198516905b818110610cf75750908460019594939210610cde575b505050811b01600080516020611974833981519152556109d4565b015160001960f88460031b161c19169055878080610cc3565b92936020600181928786015181550195019301610cad565b6000805160206119748339815191526000529091507f2ae08a8e29253f69ac5d979a101956ab8f8d9d7ded63fa7a83b16fc47648eab0601f840160051c81019160208510610d82575b90601f859493920160051c01905b818110610d73575061099a565b60008155849350600101610d66565b9091508190610d58565b68ffffffffffffffffff19166801000000000000000117600080516020611a348339815191525583610912565b63f92ee8a960e01b60005260046000fd5b905015856108e8565b303b1591506108e0565b8491506108d6565b34610186576000366003190112610186576020604051670de0b6b3a76400008152f35b346101865760003660031901126101865760206040516c0c9f2c9cd04674edea400000008152f35b3461018657600036600319011261018657602060405160128152f35b34610186576000366003190112610186576020604051600a8152f35b34610186576000366003190112610186576020600254604051908152f35b3461018657600036600319011261018657610e9f6117e1565b6001546301e133808101809111610f7f5742106112a5576000805160206119f4833981519152546c0c9f2c9cd04674edea400000008110156112465760025490610ee882611817565b9182156111cf57600a119081156111c6576b0cecb8f27f4200f3a0000000928084116111be575b83610f1991611636565b915b610f258484611629565b916c0c9f2c9cd04674edea40000000610f3e8483611629565b11611120575b5050156110a5578061104c575b5080610fd9575b5060025480151580610fce575b610f95575b426001556000198114610f7f57600101600255005b634e487b7160e01b600052601160045260246000fd5b807fde141711fef892cdaea55f1f6a85e241382fcefc69efdb496eff235992a18ed46020610fc283611817565b604051908152a2610f6a565b50600a810615610f65565b6000805160206119d483398151915254610ffd9082906001600160a01b031661185e565b6002546000805160206119d4833981519152546040519283526001600160a01b0316917f527af53161f37f844c178e2933c054611c7f5676963ac12e6de9f4f51819b4c590602090a380610f58565b6000546110639082906001600160a01b031661185e565b6002546000546040519283526001600160a01b0316917f527af53161f37f844c178e2933c054611c7f5676963ac12e6de9f4f51819b4c590602090a381610f51565b60405162461bcd60e51b815260206004820152604760248201527f43616c63756c61746564206d696e7420616d6f756e74206973207a65726f2e2060448201527f456d697373696f6e20636f6d706c657465206f7220746f6f20736d616c6c2074606482015266379036b4b73a1760c91b608482015260a490fd5b90936c0c9f2c9cd04674edea400000008281039493508411610f7f5783946000146111b35761114f9083611629565b90811590816111a5578385029385850414906c0c9f2c9cd04674edea40000000141715610f7f5761118f5761118691048092611636565b915b8380610f44565b634e487b7160e01b600052601260045260246000fd5b505050505060008091611188565b505050600091611188565b925082610f0f565b60009291610f1b565b60405162461bcd60e51b815260206004820152604360248201527f4e6f206e657720737570706c7920617661696c61626c6520666f72207468697360448201527f20706572696f642c206f7220616c6c20656d697373696f6e7320636f6d706c656064820152623a329760e91b608482015260a490fd5b60405162461bcd60e51b815260206004820152603160248201527f4d617820737570706c7920726561636865642e204e6f206d6f726520746f6b6560448201527037399031b0b71031329036b4b73a32b21760791b6064820152608490fd5b60405162461bcd60e51b815260206004820152601b60248201527f4d696e74696e6720706572696f64206e6f7420656c61707365642e00000000006044820152606490fd5b3461018657606036600319011261018657611303611585565b61130b61159b565b6044359061131883611643565b336000908152602091909152604090205492600019841061133e575b6102c793506116f2565b8284106113b1576001600160a01b0381161561139b573315611385576102c79361136782611643565b60018060a01b03331660005260205283604060002091039055611334565b634a1406b160e11b600052600060045260246000fd5b63e602df0560e01b600052600060045260246000fd5b8284637dc7a0d960e11b6000523360045260245260445260646000fd5b346101865760003660031901126101865760206000805160206119f483398151915254604051908152f35b3461018657604036600319011261018657611412611585565b60243590331561139b576001600160a01b03169081156113855761143533611643565b82600052602052806040600020556040519081527f8c5be1e5ebec7d5bd14f71427d1e84f3dd0314c0f7b2291e5b200ac8c7c3b92560203392a3602060405160018152f35b34610186576000366003190112610186576040516000600080516020611974833981519152546114a9816115ef565b80845290600181169081156103a157506001146114d05761029d83610329818503826115b1565b60008051602061197483398151915260009081527f2ae08a8e29253f69ac5d979a101956ab8f8d9d7ded63fa7a83b16fc47648eab0939250905b80821061152257509091508101602001610329610319565b91926001816020925483858801015201910190929161150a565b91909160208152825180602083015260005b81811061156f575060409293506000838284010152601f8019910116010190565b806020809287010151604082860101520161154e565b600435906001600160a01b038216820361018657565b602435906001600160a01b038216820361018657565b90601f8019910116810190811067ffffffffffffffff821117610c6c57604052565b67ffffffffffffffff8111610c6c57601f01601f191660200190565b90600182811c9216801561161f575b602083101461160957565b634e487b7160e01b600052602260045260246000fd5b91607f16916115fe565b91908201809211610f7f57565b91908203918211610f7f57565b6001600160a01b031660009081527f52c63247e1f47db19d5ce0460030c497f067ca4cebf71ba98eeadabe20bace016020526040902090565b6001600160a01b031680156116dc576000805160206119d483398151915280546001600160a01b0319811683179091556001600160a01b03167f8be0079c531659141344cd1fd0a4f28419497f9722a3daafe3b4186f6b6457e0600080a3565b631e4fbdf760e01b600052600060045260246000fd5b6001600160a01b03169081156117cb576001600160a01b03169182156117b5576000828152600080516020611994833981519152602052604081205482811061179b5791604082827fddf252ad1be2c89b69c2b068fc378daa952ba7f163c4a11628f55a4df523b3ef95876020965260008051602061199483398151915286520382822055868152600080516020611994833981519152845220818154019055604051908152a3565b916064928463391434e360e21b8452600452602452604452fd5b63ec442f0560e01b600052600060045260246000fd5b634b637e8f60e11b600052600060045260246000fd5b6000805160206119d4833981519152546001600160a01b0316330361180257565b63118cdaa760e01b6000523360045260246000fd5b600a90046c01431e0fae6d7217caa0000000906000905b80821061184f575050670de0b6b3a764000081106118495790565b50600090565b9091600190811c92019061182e565b6001600160a01b03169081156117b5577fddf252ad1be2c89b69c2b068fc378daa952ba7f163c4a11628f55a4df523b3ef6020826118ad6000946000805160206119f483398151915254611629565b6000805160206119f483398151915255848452600080516020611994833981519152825260408420818154019055604051908152a3565b60ff600080516020611a348339815191525460401c161561190157565b631afcd79f60e31b60005260046000fd5b90611938575080511561192757805190602001fd5b63d6bda27560e01b60005260046000fd5b8151158061196a575b611949575090565b639996b31560e01b60009081526001600160a01b0391909116600452602490fd5b50803b1561194156fe52c63247e1f47db19d5ce0460030c497f067ca4cebf71ba98eeadabe20bace0352c63247e1f47db19d5ce0460030c497f067ca4cebf71ba98eeadabe20bace0052c63247e1f47db19d5ce0460030c497f067ca4cebf71ba98eeadabe20bace049016d09d72d40fdae2fd8ceac6b6234c7706214fd39c1cd1e609a0528c19930052c63247e1f47db19d5ce0460030c497f067ca4cebf71ba98eeadabe20bace02360894a13ba1a3210667c828492db98dca3e2076cc3735a920a3ca505d382bbcf0c57e16840df040f15088dc2f81fe391c3923bec73e23a9662efc9c229c6a00a2646970667358221220dbf2fc79fddc3955205f1c60cae469757b6324ca35182287a74ae1ce6411f5b864736f6c634300081e0033",
  "linkReferences": {},
  "deployedLinkReferences": {}
}