{
  "_format": "hh-sol-artifact-1",
  "contractName": "NovaPolicyRules",
  "sourceName": "contracts/NovaPolicyRules.sol",
  "abi": [
    {
      "inputs": [],
      "stateMutability": "nonpayable",
      "type": "constructor"
    },
    {
      "inputs": [
        {
          "internalType": "address",
          "name": "target",
          "type": "address"
        }
      ],
      "name": "AddressEmptyCode",
      "type": "error"
    },
    {
      "inputs": [
        {
          "internalType": "address",
          "name": "implementation",
          "type": "address"
        }
      ],
      "name": "ERC1967InvalidImplementation",
      "type": "error"
    },
    {
      "inputs": [],
      "name": "ERC1967NonPayable",
      "type": "error"
    },
    {
      "inputs": [],
      "name": "FailedCall",
      "type": "error"
    },
    {
      "inputs": [],
      "name": "InvalidInitialization",
      "type": "error"
    },
    {
      "inputs": [],
      "name": "NotInitializing",
      "type": "error"
    },
    {
      "inputs": [
        {
          "internalType": "address",
          "name": "owner",
          "type": "address"
        }
      ],
      "name": "OwnableInvalidOwner",
      "type": "error"
    },
    {
      "inputs": [
        {
          "internalType": "address",
          "name": "account",
          "type": "address"
        }
      ],
      "name": "OwnableUnauthorizedAccount",
      "type": "error"
    },
    {
      "inputs": [],
      "name": "UUPSUnauthorizedCallContext",
      "type": "error"
    },
    {
      "inputs": [
        {
          "internalType": "bytes32",
          "name": "slot",
          "type": "bytes32"
        }
      ],
      "name": "UUPSUnsupportedProxiableUUID",
      "type": "error"
    },
    {
      "anonymous": false,
      "inputs": [
        {
          "indexed": false,
          "internalType": "uint64",
          "name": "version",
          "type": "uint64"
        }
      ],
      "name": "Initialized",
      "type": "event"
    },
    {
      "anonymous": false,
      "inputs": [
        {
          "indexed": true,
          "internalType": "address",
          "name": "previousOwner",
          "type": "address"
        },
        {
          "indexed": true,
          "internalType": "address",
          "name": "newOwner",
          "type": "address"
        }
      ],
      "name": "OwnershipTransferred",
      "type": "event"
    },
    {
      "anonymous": false,
      "inputs": [
        {
          "indexed": true,
          "internalType": "bytes32",
          "name": "key",
          "type": "bytes32"
        },
        {
          "indexed": false,
          "internalType": "uint256",
          "name": "newValue",
          "type": "uint256"
        }
      ],
      "name": "RuleUpdated",
      "type": "event"
    },
    {
      "anonymous": false,
      "inputs": [
        {
          "indexed": true,
          "internalType": "address",
          "name": "implementation",
          "type": "address"
        }
      ],
      "name": "Upgraded",
      "type": "event"
    },
    {
      "inputs": [],
      "name": "UPGRADE_INTERFACE_VERSION",
      "outputs": [
        {
          "internalType": "string",
          "name": "",
          "type": "string"
        }
      ],
      "stateMutability": "view",
      "type": "function"
    },
    {
      "inputs": [
        {
          "internalType": "address",
          "name": "initialOwner",
          "type": "address"
        }
      ],
      "name": "initialize",
      "outputs": [],
      "stateMutability": "nonpayable",
      "type": "function"
    },
    {
      "inputs": [
        {
          "internalType": "bytes32",
          "name": "",
          "type": "bytes32"
        }
      ],
      "name": "numericRules",
      "outputs": [
        {
          "internalType": "uint256",
          "name": "",
          "type": "uint256"
        }
      ],
      "stateMutability": "view",
      "type": "function"
    },
    {
      "inputs": [],
      "name": "owner",
      "outputs": [
        {
          "internalType": "address",
          "name": "",
          "type": "address"
        }
      ],
      "stateMutability": "view",
      "type": "function"
    },
    {
      "inputs": [],
      "name": "proxiableUUID",
      "outputs": [
        {
          "internalType": "bytes32",
          "name": "",
          "type": "bytes32"
        }
      ],
      "stateMutability": "view",
      "type": "function"
    },
    {
      "inputs": [],
      "name": "renounceOwnership",
      "outputs": [],
      "stateMutability": "nonpayable",
      "type": "function"
    },
    {
      "inputs": [
        {
          "internalType": "bytes32",
          "name": "key",
          "type": "bytes32"
        },
        {
          "internalType": "uint256",
          "name": "value",
          "type": "uint256"
        }
      ],
      "name": "setRule",
      "outputs": [],
      "stateMutability": "nonpayable",
      "type": "function"
    },
    {
      "inputs": [
        {
          "internalType": "address",
          "name": "newOwner",
          "type": "address"
        }
      ],
      "name": "transferOwnership",
      "outputs": [],
      "stateMutability": "nonpayable",
      "type": "function"
    },
    {
      "inputs": [
        {
          "internalType": "address",
          "name": "newImplementation",
          "type": "address"
        },
        {
          "internalType": "bytes",
          "name": "data",
          "type": "bytes"
        }
      ],
      "name": "upgradeToAndCall",
      "outputs": [],
      "stateMutability": "payable",
      "type": "function"
    }
  ],
  "bytecode": "0x60a080604052346100ea57306080527ff0c57e16840df040f15088dc2f81fe391c3923bec73e23a9662efc9c229c6a005460ff8160401c166100d9576002600160401b03196001600160401b03821601610073575b60405161088e90816100f082396080518181816103bb015261048f0152f35b6001600160401b0319166001600160401b039081177ff0c57e16840df040f15088dc2f81fe391c3923bec73e23a9662efc9c229c6a005581527fc7f505b2f371ae2175ee4913f4499e1f2633a7b5936321eed1cdaeb6115181d290602090a13880610054565b63f92ee8a960e01b60005260046000fd5b600080fdfe6080604052600436101561001257600080fd5b60003560e01c80634f1ef2861461041257806352d1902d146103a8578063715018a61461033e5780638da5cb5b14610308578063ad3cb1cc1461028c578063c4d66de814610135578063e099be1714610109578063f02dac90146100af5763f2fde38b1461007f57600080fd5b346100aa5760203660031901126100aa576100a861009b610653565b6100a3610733565b6106bd565b005b600080fd5b346100aa5760403660031901126100aa576004357ff432f48908597f0137b8ec18318fa1c1f834ddc3ba66aea20b66ba38e19085e560206024356100f1610733565b836000526000825280604060002055604051908152a2005b346100aa5760203660031901126100aa5760043560005260006020526020604060002054604051908152f35b346100aa5760203660031901126100aa5761014e610653565b6000805160206108398339815191525460ff8160401c16159167ffffffffffffffff821680159081610284575b600114908161027a575b159081610271575b506102605767ffffffffffffffff198216600117600080516020610839833981519152556101cc9183610233575b506101c4610769565b6100a3610769565b6101d4610769565b6101da57005b68ff0000000000000000196000805160206108398339815191525416600080516020610839833981519152557fc7f505b2f371ae2175ee4913f4499e1f2633a7b5936321eed1cdaeb6115181d2602060405160018152a1005b68ffffffffffffffffff1916680100000000000000011760008051602061083983398151915255836101bb565b63f92ee8a960e01b60005260046000fd5b9050158461018d565b303b159150610185565b84915061017b565b346100aa5760003660031901126100aa5760408051906102ac8183610669565b60058252640352e302e360dc1b6020830152805180926020825280519081602084015260005b8281106102f15750506000828201840152601f01601f19168101030190f35b6020828201810151878301870152869450016102d2565b346100aa5760003660031901126100aa576000805160206107f9833981519152546040516001600160a01b039091168152602090f35b346100aa5760003660031901126100aa57610357610733565b6000805160206107f983398151915280546001600160a01b031981169091556000906001600160a01b03167f8be0079c531659141344cd1fd0a4f28419497f9722a3daafe3b4186f6b6457e08280a3005b346100aa5760003660031901126100aa577f00000000000000000000000000000000000000000000000000000000000000006001600160a01b031630036104015760206040516000805160206108198339815191528152f35b63703e46dd60e11b60005260046000fd5b60403660031901126100aa57610426610653565b6024359067ffffffffffffffff82116100aa57366023830112156100aa57816004013590610453826106a1565b916104616040519384610669565b808352602083019336602483830101116100aa57816000926024602093018737840101526001600160a01b037f000000000000000000000000000000000000000000000000000000000000000016308114908115610630575b50610401576104c7610733565b6040516352d1902d60e01b81526001600160a01b0382169390602081600481885afa600091816105fc575b5061050c5784634c9c8ce360e01b60005260045260246000fd5b806000805160206108198339815191528692036105e85750823b156105d45760008051602061081983398151915280546001600160a01b031916821790557fbc7cd75a20ee27fd9adebab32041f755214dbc6bffa90cc0225b39da2e5c2d3b600080a28251156105b957600080916100a8945190845af43d156105b1573d91610594836106a1565b926105a26040519485610669565b83523d6000602085013e610797565b606091610797565b505050346105c357005b63b398979f60e01b60005260046000fd5b634c9c8ce360e01b60005260045260246000fd5b632a87526960e21b60005260045260246000fd5b9091506020813d602011610628575b8161061860209383610669565b810103126100aa575190866104f2565b3d915061060b565b600080516020610819833981519152546001600160a01b031614159050846104ba565b600435906001600160a01b03821682036100aa57565b90601f8019910116810190811067ffffffffffffffff82111761068b57604052565b634e487b7160e01b600052604160045260246000fd5b67ffffffffffffffff811161068b57601f01601f191660200190565b6001600160a01b0316801561071d576000805160206107f983398151915280546001600160a01b0319811683179091556001600160a01b03167f8be0079c531659141344cd1fd0a4f28419497f9722a3daafe3b4186f6b6457e0600080a3565b631e4fbdf760e01b600052600060045260246000fd5b6000805160206107f9833981519152546001600160a01b0316330361075457565b63118cdaa760e01b6000523360045260246000fd5b60ff6000805160206108398339815191525460401c161561078657565b631afcd79f60e31b60005260046000fd5b906107bd57508051156107ac57805190602001fd5b63d6bda27560e01b60005260046000fd5b815115806107ef575b6107ce575090565b639996b31560e01b60009081526001600160a01b0391909116600452602490fd5b50803b156107c656fe9016d09d72d40fdae2fd8ceac6b6234c7706214fd39c1cd1e609a0528c199300360894a13ba1a3210667c828492db98dca3e2076cc3735a920a3ca505d382bbcf0c57e16840df040f15088dc2f81fe391c3923bec73e23a9662efc9c229c6a00a264697066735822122074ba83088dd3c3c041030bb25a27de03661f22af8adabb6f7f15b8349e84900664736f6c634300081e0033",
  "linkReferences": {},
  "deployedLinkReferences": {}
}