{
  "_format": "hh-sol-artifact-1",
  "contractName": "NovaTreasury",
  "sourceName": "contracts/NovaTreasury.sol",
  "abi": [
    {
      "inputs": [],
      "stateMutability": "nonpayable",
      "type": "constructor"
    },
    {
      "inputs": [
        {
          "internalType": "address",
          "name": "target",
          "type": "address"
        }
      ],
      "name": "AddressEmptyCode",
      "type": "error"
    },
    {
      "inputs": [
        {
          "internalType": "address",
          "name": "implementation",
          "type": "address"
        }
      ],
      "name": "ERC1967InvalidImplementation",
      "type": "error"
    },
    {
      "inputs": [],
      "name": "ERC1967NonPayable",
      "type": "error"
    },
    {
      "inputs": [],
      "name": "FailedCall",
      "type": "error"
    },
    {
      "inputs": [],
      "name": "InvalidInitialization",
      "type": "error"
    },
    {
      "inputs": [],
      "name": "NotInitializing",
      "type": "error"
    },
    {
      "inputs": [
        {
          "internalType": "address",
          "name": "owner",
          "type": "address"
        }
      ],
      "name": "OwnableInvalidOwner",
      "type": "error"
    },
    {
      "inputs": [
        {
          "internalType": "address",
          "name": "account",
          "type": "address"
        }
      ],
      "name": "OwnableUnauthorizedAccount",
      "type": "error"
    },
    {
      "inputs": [],
      "name": "UUPSUnauthorizedCallContext",
      "type": "error"
    },
    {
      "inputs": [
        {
          "internalType": "bytes32",
          "name": "slot",
          "type": "bytes32"
        }
      ],
      "name": "UUPSUnsupportedProxiableUUID",
      "type": "error"
    },
    {
      "anonymous": false,
      "inputs": [
        {
          "indexed": true,
          "internalType": "address",
          "name": "token",
          "type": "address"
        },
        {
          "indexed": true,
          "internalType": "address",
          "name": "to",
          "type": "address"
        },
        {
          "indexed": false,
          "internalType": "uint256",
          "name": "amount",
          "type": "uint256"
        }
      ],
      "name": "FundsTransferred",
      "type": "event"
    },
    {
      "anonymous": false,
      "inputs": [
        {
          "indexed": false,
          "internalType": "uint64",
          "name": "version",
          "type": "uint64"
        }
      ],
      "name": "Initialized",
      "type": "event"
    },
    {
      "anonymous": false,
      "inputs": [
        {
          "indexed": true,
          "internalType": "address",
          "name": "previousOwner",
          "type": "address"
        },
        {
          "indexed": true,
          "internalType": "address",
          "name": "newOwner",
          "type": "address"
        }
      ],
      "name": "OwnershipTransferred",
      "type": "event"
    },
    {
      "anonymous": false,
      "inputs": [
        {
          "indexed": true,
          "internalType": "address",
          "name": "implementation",
          "type": "address"
        }
      ],
      "name": "Upgraded",
      "type": "event"
    },
    {
      "inputs": [],
      "name": "UPGRADE_INTERFACE_VERSION",
      "outputs": [
        {
          "internalType": "string",
          "name": "",
          "type": "string"
        }
      ],
      "stateMutability": "view",
      "type": "function"
    },
    {
      "inputs": [
        {
          "internalType": "address",
          "name": "initialOwner",
          "type": "address"
        }
      ],
      "name": "initialize",
      "outputs": [],
      "stateMutability": "nonpayable",
      "type": "function"
    },
    {
      "inputs": [],
      "name": "owner",
      "outputs": [
        {
          "internalType": "address",
          "name": "",
          "type": "address"
        }
      ],
      "stateMutability": "view",
      "type": "function"
    },
    {
      "inputs": [],
      "name": "proxiableUUID",
      "outputs": [
        {
          "internalType": "bytes32",
          "name": "",
          "type": "bytes32"
        }
      ],
      "stateMutability": "view",
      "type": "function"
    },
    {
      "inputs": [],
      "name": "renounceOwnership",
      "outputs": [],
      "stateMutability": "nonpayable",
      "type": "function"
    },
    {
      "inputs": [
        {
          "internalType": "address",
          "name": "newOwner",
          "type": "address"
        }
      ],
      "name": "transferOwnership",
      "outputs": [],
      "stateMutability": "nonpayable",
      "type": "function"
    },
    {
      "inputs": [
        {
          "internalType": "address",
          "name": "tokenAddress",
          "type": "address"
        },
        {
          "internalType": "address",
          "name": "to",
          "type": "address"
        },
        {
          "internalType": "uint256",
          "name": "amount",
          "type": "uint256"
        }
      ],
      "name": "transferTokens",
      "outputs": [],
      "stateMutability": "nonpayable",
      "type": "function"
    },
    {
      "inputs": [
        {
          "internalType": "address",
          "name": "newImplementation",
          "type": "address"
        },
        {
          "internalType": "bytes",
          "name": "data",
          "type": "bytes"
        }
      ],
      "name": "upgradeToAndCall",
      "outputs": [],
      "stateMutability": "payable",
      "type": "function"
    }
  ],
  "bytecode": "0x60a080604052346100ea57306080527ff0c57e16840df040f15088dc2f81fe391c3923bec73e23a9662efc9c229c6a005460ff8160401c166100d9576002600160401b03196001600160401b03821601610073575b6040516108e590816100f0823960805181818161041201526104e60152f35b6001600160401b0319166001600160401b039081177ff0c57e16840df040f15088dc2f81fe391c3923bec73e23a9662efc9c229c6a005581527fc7f505b2f371ae2175ee4913f4499e1f2633a7b5936321eed1cdaeb6115181d290602090a13880610054565b63f92ee8a960e01b60005260046000fd5b600080fdfe6080604052600436101561001257600080fd5b60003560e01c80634f1ef2861461046957806352d1902d146103ff578063715018a6146103955780638da5cb5b1461035f578063a64b6e5f14610277578063ad3cb1cc146101fb578063c4d66de8146100a45763f2fde38b1461007457600080fd5b3461009f57602036600319011261009f5761009d6100906106aa565b61009861078a565b610714565b005b600080fd5b3461009f57602036600319011261009f576100bd6106aa565b6000805160206108908339815191525460ff8160401c16159167ffffffffffffffff8216801590816101f3575b60011490816101e9575b1590816101e0575b506101cf5767ffffffffffffffff1982166001176000805160206108908339815191525561013b91836101a2575b506101336107c0565b6100986107c0565b6101436107c0565b61014957005b68ff0000000000000000196000805160206108908339815191525416600080516020610890833981519152557fc7f505b2f371ae2175ee4913f4499e1f2633a7b5936321eed1cdaeb6115181d2602060405160018152a1005b68ffffffffffffffffff19166801000000000000000117600080516020610890833981519152558361012a565b63f92ee8a960e01b60005260046000fd5b905015846100fc565b303b1591506100f4565b8491506100ea565b3461009f57600036600319011261009f57604080519061021b81836106c0565b60058252640352e302e360dc1b6020830152805180926020825280519081602084015260005b8281106102605750506000828201840152601f01601f19168101030190f35b602082820181015187830187015286945001610241565b3461009f57606036600319011261009f576102906106aa565b6024356001600160a01b038116919082900361009f57604435906102b261078a565b60018060a01b03169060405163a9059cbb60e01b81528360048201528160248201526020816044816000875af1801561035357610318575b5060207f78e6250172d8e0a57d8d41f480f13581571a2d27bb2a93f5f7bd2511f5c22a6c91604051908152a3005b6020813d60201161034b575b81610331602093836106c0565b8101031261009f5751801515810361009f575060206102ea565b3d9150610324565b6040513d6000823e3d90fd5b3461009f57600036600319011261009f57600080516020610850833981519152546040516001600160a01b039091168152602090f35b3461009f57600036600319011261009f576103ae61078a565b60008051602061085083398151915280546001600160a01b031981169091556000906001600160a01b03167f8be0079c531659141344cd1fd0a4f28419497f9722a3daafe3b4186f6b6457e08280a3005b3461009f57600036600319011261009f577f00000000000000000000000000000000000000000000000000000000000000006001600160a01b031630036104585760206040516000805160206108708339815191528152f35b63703e46dd60e11b60005260046000fd5b604036600319011261009f5761047d6106aa565b6024359067ffffffffffffffff821161009f573660238301121561009f578160040135906104aa826106f8565b916104b860405193846106c0565b8083526020830193366024838301011161009f57816000926024602093018737840101526001600160a01b037f000000000000000000000000000000000000000000000000000000000000000016308114908115610687575b506104585761051e61078a565b6040516352d1902d60e01b81526001600160a01b0382169390602081600481885afa60009181610653575b506105635784634c9c8ce360e01b60005260045260246000fd5b8060008051602061087083398151915286920361063f5750823b1561062b5760008051602061087083398151915280546001600160a01b031916821790557fbc7cd75a20ee27fd9adebab32041f755214dbc6bffa90cc0225b39da2e5c2d3b600080a2825115610610576000809161009d945190845af43d15610608573d916105eb836106f8565b926105f960405194856106c0565b83523d6000602085013e6107ee565b6060916107ee565b5050503461061a57005b63b398979f60e01b60005260046000fd5b634c9c8ce360e01b60005260045260246000fd5b632a87526960e21b60005260045260246000fd5b9091506020813d60201161067f575b8161066f602093836106c0565b8101031261009f57519086610549565b3d9150610662565b600080516020610870833981519152546001600160a01b03161415905084610511565b600435906001600160a01b038216820361009f57565b90601f8019910116810190811067ffffffffffffffff8211176106e257604052565b634e487b7160e01b600052604160045260246000fd5b67ffffffffffffffff81116106e257601f01601f191660200190565b6001600160a01b031680156107745760008051602061085083398151915280546001600160a01b0319811683179091556001600160a01b03167f8be0079c531659141344cd1fd0a4f28419497f9722a3daafe3b4186f6b6457e0600080a3565b631e4fbdf760e01b600052600060045260246000fd5b600080516020610850833981519152546001600160a01b031633036107ab57565b63118cdaa760e01b6000523360045260246000fd5b60ff6000805160206108908339815191525460401c16156107dd57565b631afcd79f60e31b60005260046000fd5b90610814575080511561080357805190602001fd5b63d6bda27560e01b60005260046000fd5b81511580610846575b610825575090565b639996b31560e01b60009081526001600160a01b0391909116600452602490fd5b50803b1561081d56fe9016d09d72d40fdae2fd8ceac6b6234c7706214fd39c1cd1e609a0528c199300360894a13ba1a3210667c828492db98dca3e2076cc3735a920a3ca505d382bbcf0c57e16840df040f15088dc2f81fe391c3923bec73e23a9662efc9c229c6a00a26469706673582212204abe48bdea959576a4c8a63e34e103588a50ac3e0d1d68675d7c73da2b871df764736f6c634300081e0033",
  "linkReferences": {},
  "deployedLinkReferences": {}
}