{
  "_format": "hh-sol-artifact-1",
  "contractName": "NovaReferral",
  "sourceName": "contracts/NovaReferral.sol",
  "abi": [
    {
      "inputs": [],
      "stateMutability": "nonpayable",
      "type": "constructor"
    },
    {
      "inputs": [
        {
          "internalType": "address",
          "name": "target",
          "type": "address"
        }
      ],
      "name": "AddressEmptyCode",
      "type": "error"
    },
    {
      "inputs": [
        {
          "internalType": "address",
          "name": "implementation",
          "type": "address"
        }
      ],
      "name": "ERC1967InvalidImplementation",
      "type": "error"
    },
    {
      "inputs": [],
      "name": "ERC1967NonPayable",
      "type": "error"
    },
    {
      "inputs": [],
      "name": "FailedCall",
      "type": "error"
    },
    {
      "inputs": [],
      "name": "InvalidInitialization",
      "type": "error"
    },
    {
      "inputs": [],
      "name": "NotInitializing",
      "type": "error"
    },
    {
      "inputs": [
        {
          "internalType": "address",
          "name": "owner",
          "type": "address"
        }
      ],
      "name": "OwnableInvalidOwner",
      "type": "error"
    },
    {
      "inputs": [
        {
          "internalType": "address",
          "name": "account",
          "type": "address"
        }
      ],
      "name": "OwnableUnauthorizedAccount",
      "type": "error"
    },
    {
      "inputs": [],
      "name": "UUPSUnauthorizedCallContext",
      "type": "error"
    },
    {
      "inputs": [
        {
          "internalType": "bytes32",
          "name": "slot",
          "type": "bytes32"
        }
      ],
      "name": "UUPSUnsupportedProxiableUUID",
      "type": "error"
    },
    {
      "anonymous": false,
      "inputs": [
        {
          "indexed": false,
          "internalType": "uint64",
          "name": "version",
          "type": "uint64"
        }
      ],
      "name": "Initialized",
      "type": "event"
    },
    {
      "anonymous": false,
      "inputs": [
        {
          "indexed": true,
          "internalType": "address",
          "name": "previousOwner",
          "type": "address"
        },
        {
          "indexed": true,
          "internalType": "address",
          "name": "newOwner",
          "type": "address"
        }
      ],
      "name": "OwnershipTransferred",
      "type": "event"
    },
    {
      "anonymous": false,
      "inputs": [
        {
          "indexed": true,
          "internalType": "address",
          "name": "user",
          "type": "address"
        },
        {
          "indexed": true,
          "internalType": "address",
          "name": "referrer",
          "type": "address"
        }
      ],
      "name": "ReferralSet",
      "type": "event"
    },
    {
      "anonymous": false,
      "inputs": [
        {
          "indexed": true,
          "internalType": "address",
          "name": "implementation",
          "type": "address"
        }
      ],
      "name": "Upgraded",
      "type": "event"
    },
    {
      "inputs": [],
      "name": "UPGRADE_INTERFACE_VERSION",
      "outputs": [
        {
          "internalType": "string",
          "name": "",
          "type": "string"
        }
      ],
      "stateMutability": "view",
      "type": "function"
    },
    {
      "inputs": [
        {
          "internalType": "address",
          "name": "user",
          "type": "address"
        }
      ],
      "name": "getReferrer",
      "outputs": [
        {
          "internalType": "address",
          "name": "",
          "type": "address"
        }
      ],
      "stateMutability": "view",
      "type": "function"
    },
    {
      "inputs": [
        {
          "internalType": "address",
          "name": "ref",
          "type": "address"
        }
      ],
      "name": "getTimesUsed",
      "outputs": [
        {
          "internalType": "uint256",
          "name": "",
          "type": "uint256"
        }
      ],
      "stateMutability": "view",
      "type": "function"
    },
    {
      "inputs": [
        {
          "internalType": "address",
          "name": "initialOwner",
          "type": "address"
        }
      ],
      "name": "initialize",
      "outputs": [],
      "stateMutability": "nonpayable",
      "type": "function"
    },
    {
      "inputs": [],
      "name": "owner",
      "outputs": [
        {
          "internalType": "address",
          "name": "",
          "type": "address"
        }
      ],
      "stateMutability": "view",
      "type": "function"
    },
    {
      "inputs": [],
      "name": "proxiableUUID",
      "outputs": [
        {
          "internalType": "bytes32",
          "name": "",
          "type": "bytes32"
        }
      ],
      "stateMutability": "view",
      "type": "function"
    },
    {
      "inputs": [
        {
          "internalType": "address",
          "name": "user",
          "type": "address"
        }
      ],
      "name": "refer",
      "outputs": [],
      "stateMutability": "nonpayable",
      "type": "function"
    },
    {
      "inputs": [],
      "name": "renounceOwnership",
      "outputs": [],
      "stateMutability": "nonpayable",
      "type": "function"
    },
    {
      "inputs": [
        {
          "internalType": "address",
          "name": "newOwner",
          "type": "address"
        }
      ],
      "name": "transferOwnership",
      "outputs": [],
      "stateMutability": "nonpayable",
      "type": "function"
    },
    {
      "inputs": [
        {
          "internalType": "address",
          "name": "newImplementation",
          "type": "address"
        },
        {
          "internalType": "bytes",
          "name": "data",
          "type": "bytes"
        }
      ],
      "name": "upgradeToAndCall",
      "outputs": [],
      "stateMutability": "payable",
      "type": "function"
    }
  ],
  "bytecode": "0x60a080604052346100ea57306080527ff0c57e16840df040f15088dc2f81fe391c3923bec73e23a9662efc9c229c6a005460ff8160401c166100d9576002600160401b03196001600160401b03821601610073575b6040516109df90816100f0823960805181818161034301526104170152f35b6001600160401b0319166001600160401b039081177ff0c57e16840df040f15088dc2f81fe391c3923bec73e23a9662efc9c229c6a005581527fc7f505b2f371ae2175ee4913f4499e1f2633a7b5936321eed1cdaeb6115181d290602090a13880610054565b63f92ee8a960e01b60005260046000fd5b600080fdfe608080604052600436101561001357600080fd5b60003560e01c9081630b6a26c31461076e575080631d509afd1461061d5780634a9fefc7146105db5780634f1ef2861461039a57806352d1902d14610330578063715018a6146102c65780638da5cb5b14610290578063ad3cb1cc14610214578063c4d66de8146100bd5763f2fde38b1461008d57600080fd5b346100b85760203660031901126100b8576100b66100a96107a4565b6100b1610884565b61080e565b005b600080fd5b346100b85760203660031901126100b8576100d66107a4565b60008051602061098a8339815191525460ff8160401c16159167ffffffffffffffff82168015908161020c575b6001149081610202575b1590816101f9575b506101e85767ffffffffffffffff19821660011760008051602061098a8339815191525561015491836101bb575b5061014c6108ba565b6100b16108ba565b61015c6108ba565b61016257005b68ff00000000000000001960008051602061098a833981519152541660008051602061098a833981519152557fc7f505b2f371ae2175ee4913f4499e1f2633a7b5936321eed1cdaeb6115181d2602060405160018152a1005b68ffffffffffffffffff1916680100000000000000011760008051602061098a8339815191525583610143565b63f92ee8a960e01b60005260046000fd5b90501584610115565b303b15915061010d565b849150610103565b346100b85760003660031901126100b857604080519061023481836107ba565b60058252640352e302e360dc1b6020830152805180926020825280519081602084015260005b8281106102795750506000828201840152601f01601f19168101030190f35b60208282018101518783018701528694500161025a565b346100b85760003660031901126100b85760008051602061094a833981519152546040516001600160a01b039091168152602090f35b346100b85760003660031901126100b8576102df610884565b60008051602061094a83398151915280546001600160a01b031981169091556000906001600160a01b03167f8be0079c531659141344cd1fd0a4f28419497f9722a3daafe3b4186f6b6457e08280a3005b346100b85760003660031901126100b8577f00000000000000000000000000000000000000000000000000000000000000006001600160a01b0316300361038957602060405160008051602061096a8339815191528152f35b63703e46dd60e11b60005260046000fd5b60403660031901126100b8576103ae6107a4565b6024359067ffffffffffffffff82116100b857366023830112156100b8578160040135906103db826107f2565b916103e960405193846107ba565b808352602083019336602483830101116100b857816000926024602093018737840101526001600160a01b037f0000000000000000000000000000000000000000000000000000000000000000163081149081156105b8575b506103895761044f610884565b6040516352d1902d60e01b81526001600160a01b0382169390602081600481885afa60009181610584575b506104945784634c9c8ce360e01b60005260045260246000fd5b8060008051602061096a8339815191528692036105705750823b1561055c5760008051602061096a83398151915280546001600160a01b031916821790557fbc7cd75a20ee27fd9adebab32041f755214dbc6bffa90cc0225b39da2e5c2d3b600080a282511561054157600080916100b6945190845af43d15610539573d9161051c836107f2565b9261052a60405194856107ba565b83523d6000602085013e6108e8565b6060916108e8565b5050503461054b57005b63b398979f60e01b60005260046000fd5b634c9c8ce360e01b60005260045260246000fd5b632a87526960e21b60005260045260246000fd5b9091506020813d6020116105b0575b816105a0602093836107ba565b810103126100b85751908661047a565b3d9150610593565b60008051602061096a833981519152546001600160a01b03161415905084610442565b346100b85760203660031901126100b8576001600160a01b036105fc6107a4565b166000526000602052602060018060a01b0360406000205416604051908152f35b346100b85760203660031901126100b8576001600160a01b0361063e6107a4565b16338114610729576000818152602081905260409020546001600160a01b03166106e4578060005260006020526040600020336bffffffffffffffffffffffff60a01b8254161790553360005260016020526040600020805460001981146106ce57600101905533907fdf63218877cb126f6c003f2b7f77327674cd6a0b53ad51deac392548ec12b0ed600080a3005b634e487b7160e01b600052601160045260246000fd5b60405162461bcd60e51b815260206004820152601b60248201527f526566657272616c3a20416c72656164792072656665727265642e00000000006044820152606490fd5b60405162461bcd60e51b815260206004820152601c60248201527f526566657272616c3a2043616e6e6f742072656665722073656c662e000000006044820152606490fd5b346100b85760203660031901126100b8576020906001600160a01b036107926107a4565b16600052600182526040600020548152f35b600435906001600160a01b03821682036100b857565b90601f8019910116810190811067ffffffffffffffff8211176107dc57604052565b634e487b7160e01b600052604160045260246000fd5b67ffffffffffffffff81116107dc57601f01601f191660200190565b6001600160a01b0316801561086e5760008051602061094a83398151915280546001600160a01b0319811683179091556001600160a01b03167f8be0079c531659141344cd1fd0a4f28419497f9722a3daafe3b4186f6b6457e0600080a3565b631e4fbdf760e01b600052600060045260246000fd5b60008051602061094a833981519152546001600160a01b031633036108a557565b63118cdaa760e01b6000523360045260246000fd5b60ff60008051602061098a8339815191525460401c16156108d757565b631afcd79f60e31b60005260046000fd5b9061090e57508051156108fd57805190602001fd5b63d6bda27560e01b60005260046000fd5b81511580610940575b61091f575090565b639996b31560e01b60009081526001600160a01b0391909116600452602490fd5b50803b1561091756fe9016d09d72d40fdae2fd8ceac6b6234c7706214fd39c1cd1e609a0528c199300360894a13ba1a3210667c828492db98dca3e2076cc3735a920a3ca505d382bbcf0c57e16840df040f15088dc2f81fe391c3923bec73e23a9662efc9c229c6a00a26469706673582212202f6071b7edb4fe29fbbe1a635991710130ad0c1b7515b684d7b76ed896552a8b64736f6c634300081e0033",
  "linkReferences": {},
  "deployedLinkReferences": {}
}