{
  "_format": "hh-sol-artifact-1",
  "contractName": "NovaRegistry",
  "sourceName": "contracts/NovaRegistry.sol",
  "abi": [
    {
      "inputs": [],
      "stateMutability": "nonpayable",
      "type": "constructor"
    },
    {
      "inputs": [
        {
          "internalType": "address",
          "name": "target",
          "type": "address"
        }
      ],
      "name": "AddressEmptyCode",
      "type": "error"
    },
    {
      "inputs": [
        {
          "internalType": "address",
          "name": "implementation",
          "type": "address"
        }
      ],
      "name": "ERC1967InvalidImplementation",
      "type": "error"
    },
    {
      "inputs": [],
      "name": "ERC1967NonPayable",
      "type": "error"
    },
    {
      "inputs": [],
      "name": "FailedCall",
      "type": "error"
    },
    {
      "inputs": [],
      "name": "InvalidInitialization",
      "type": "error"
    },
    {
      "inputs": [],
      "name": "NotInitializing",
      "type": "error"
    },
    {
      "inputs": [
        {
          "internalType": "address",
          "name": "owner",
          "type": "address"
        }
      ],
      "name": "OwnableInvalidOwner",
      "type": "error"
    },
    {
      "inputs": [
        {
          "internalType": "address",
          "name": "account",
          "type": "address"
        }
      ],
      "name": "OwnableUnauthorizedAccount",
      "type": "error"
    },
    {
      "inputs": [],
      "name": "UUPSUnauthorizedCallContext",
      "type": "error"
    },
    {
      "inputs": [
        {
          "internalType": "bytes32",
          "name": "slot",
          "type": "bytes32"
        }
      ],
      "name": "UUPSUnsupportedProxiableUUID",
      "type": "error"
    },
    {
      "anonymous": false,
      "inputs": [
        {
          "indexed": true,
          "internalType": "bytes32",
          "name": "key",
          "type": "bytes32"
        },
        {
          "indexed": true,
          "internalType": "address",
          "name": "contractAddress",
          "type": "address"
        }
      ],
      "name": "ContractRegistered",
      "type": "event"
    },
    {
      "anonymous": false,
      "inputs": [
        {
          "indexed": true,
          "internalType": "bytes32",
          "name": "key",
          "type": "bytes32"
        },
        {
          "indexed": true,
          "internalType": "address",
          "name": "oldAddress",
          "type": "address"
        },
        {
          "indexed": true,
          "internalType": "address",
          "name": "newAddress",
          "type": "address"
        }
      ],
      "name": "ContractUpdated",
      "type": "event"
    },
    {
      "anonymous": false,
      "inputs": [
        {
          "indexed": false,
          "internalType": "uint64",
          "name": "version",
          "type": "uint64"
        }
      ],
      "name": "Initialized",
      "type": "event"
    },
    {
      "anonymous": false,
      "inputs": [
        {
          "indexed": true,
          "internalType": "address",
          "name": "previousOwner",
          "type": "address"
        },
        {
          "indexed": true,
          "internalType": "address",
          "name": "newOwner",
          "type": "address"
        }
      ],
      "name": "OwnershipTransferred",
      "type": "event"
    },
    {
      "anonymous": false,
      "inputs": [
        {
          "indexed": true,
          "internalType": "address",
          "name": "implementation",
          "type": "address"
        }
      ],
      "name": "Upgraded",
      "type": "event"
    },
    {
      "inputs": [],
      "name": "UPGRADE_INTERFACE_VERSION",
      "outputs": [
        {
          "internalType": "string",
          "name": "",
          "type": "string"
        }
      ],
      "stateMutability": "view",
      "type": "function"
    },
    {
      "inputs": [
        {
          "internalType": "bytes32",
          "name": "key",
          "type": "bytes32"
        }
      ],
      "name": "getContractAddress",
      "outputs": [
        {
          "internalType": "address",
          "name": "",
          "type": "address"
        }
      ],
      "stateMutability": "view",
      "type": "function"
    },
    {
      "inputs": [
        {
          "internalType": "address",
          "name": "initialOwner",
          "type": "address"
        }
      ],
      "name": "initialize",
      "outputs": [],
      "stateMutability": "nonpayable",
      "type": "function"
    },
    {
      "inputs": [],
      "name": "owner",
      "outputs": [
        {
          "internalType": "address",
          "name": "",
          "type": "address"
        }
      ],
      "stateMutability": "view",
      "type": "function"
    },
    {
      "inputs": [],
      "name": "proxiableUUID",
      "outputs": [
        {
          "internalType": "bytes32",
          "name": "",
          "type": "bytes32"
        }
      ],
      "stateMutability": "view",
      "type": "function"
    },
    {
      "inputs": [
        {
          "internalType": "bytes32",
          "name": "key",
          "type": "bytes32"
        },
        {
          "internalType": "address",
          "name": "contractAddress",
          "type": "address"
        }
      ],
      "name": "registerContract",
      "outputs": [],
      "stateMutability": "nonpayable",
      "type": "function"
    },
    {
      "inputs": [],
      "name": "renounceOwnership",
      "outputs": [],
      "stateMutability": "nonpayable",
      "type": "function"
    },
    {
      "inputs": [
        {
          "internalType": "address",
          "name": "newOwner",
          "type": "address"
        }
      ],
      "name": "transferOwnership",
      "outputs": [],
      "stateMutability": "nonpayable",
      "type": "function"
    },
    {
      "inputs": [
        {
          "internalType": "bytes32",
          "name": "key",
          "type": "bytes32"
        },
        {
          "internalType": "address",
          "name": "newAddress",
          "type": "address"
        }
      ],
      "name": "updateContractAddress",
      "outputs": [],
      "stateMutability": "nonpayable",
      "type": "function"
    },
    {
      "inputs": [
        {
          "internalType": "address",
          "name": "newImplementation",
          "type": "address"
        },
        {
          "internalType": "bytes",
          "name": "data",
          "type": "bytes"
        }
      ],
      "name": "upgradeToAndCall",
      "outputs": [],
      "stateMutability": "payable",
      "type": "function"
    }
  ],
  "bytecode": "0x60a080604052346100ea57306080527ff0c57e16840df040f15088dc2f81fe391c3923bec73e23a9662efc9c229c6a005460ff8160401c166100d9576002600160401b03196001600160401b03821601610073575b604051610a5890816100f0823960805181818161053d01526106110152f35b6001600160401b0319166001600160401b039081177ff0c57e16840df040f15088dc2f81fe391c3923bec73e23a9662efc9c229c6a005581527fc7f505b2f371ae2175ee4913f4499e1f2633a7b5936321eed1cdaeb6115181d290602090a13880610054565b63f92ee8a960e01b60005260046000fd5b600080fdfe608080604052600436101561001357600080fd5b60003560e01c9081630d2020dd146107d5575080634f1ef2861461059457806352d1902d1461052a578063645c6fae1461040c578063715018a6146103a25780638da5cb5b1461036c578063a15050a014610290578063ad3cb1cc14610214578063c4d66de8146100bd5763f2fde38b1461008d57600080fd5b346100b85760203660031901126100b8576100b66100a9610807565b6100b16108fd565b610887565b005b600080fd5b346100b85760203660031901126100b8576100d6610807565b600080516020610a038339815191525460ff8160401c16159167ffffffffffffffff82168015908161020c575b6001149081610202575b1590816101f9575b506101e85767ffffffffffffffff198216600117600080516020610a038339815191525561015491836101bb575b5061014c610933565b6100b1610933565b61015c610933565b61016257005b68ff000000000000000019600080516020610a038339815191525416600080516020610a03833981519152557fc7f505b2f371ae2175ee4913f4499e1f2633a7b5936321eed1cdaeb6115181d2602060405160018152a1005b68ffffffffffffffffff19166801000000000000000117600080516020610a038339815191525583610143565b63f92ee8a960e01b60005260046000fd5b90501584610115565b303b15915061010d565b849150610103565b346100b85760003660031901126100b85760408051906102348183610833565b60058252640352e302e360dc1b6020830152805180926020825280519081602084015260005b8281106102795750506000828201840152601f01601f19168101030190f35b60208282018101518783018701528694500161025a565b346100b85760403660031901126100b8576004356102ac61081d565b6102b46108fd565b6000828152602081905260409020546001600160a01b031690811561032757600083815260208190526040812080546001600160a01b0319166001600160a01b039390931692831790559092907ff8a6175bca1ba37d682089187edc5e20a859989727f10ca6bd9a5bc0de8caf949080a4005b60405162461bcd60e51b815260206004820152601760248201527f52656769737472793a204b6579206e6f7420666f756e640000000000000000006044820152606490fd5b346100b85760003660031901126100b8576000805160206109c3833981519152546040516001600160a01b039091168152602090f35b346100b85760003660031901126100b8576103bb6108fd565b6000805160206109c383398151915280546001600160a01b031981169091556000906001600160a01b03167f8be0079c531659141344cd1fd0a4f28419497f9722a3daafe3b4186f6b6457e08280a3005b346100b85760403660031901126100b85760043561042861081d565b6104306108fd565b6000828152602081905260409020546001600160a01b03166104e6576001600160a01b03169081156104a8578060005260006020526040600020826bffffffffffffffffffffffff60a01b8254161790557fd380d199d4ec1ef14fd6dfcf8ac58331b0b2beeca0aec4aa52f8842a7c7fe3e4600080a3005b60405162461bcd60e51b815260206004820152601660248201527552656769737472793a205a65726f206164647265737360501b6044820152606490fd5b606460405162461bcd60e51b815260206004820152602060248201527f52656769737472793a204b657920616c726561647920726567697374657265646044820152fd5b346100b85760003660031901126100b8577f00000000000000000000000000000000000000000000000000000000000000006001600160a01b031630036105835760206040516000805160206109e38339815191528152f35b63703e46dd60e11b60005260046000fd5b60403660031901126100b8576105a8610807565b6024359067ffffffffffffffff82116100b857366023830112156100b8578160040135906105d58261086b565b916105e36040519384610833565b808352602083019336602483830101116100b857816000926024602093018737840101526001600160a01b037f0000000000000000000000000000000000000000000000000000000000000000163081149081156107b2575b50610583576106496108fd565b6040516352d1902d60e01b81526001600160a01b0382169390602081600481885afa6000918161077e575b5061068e5784634c9c8ce360e01b60005260045260246000fd5b806000805160206109e383398151915286920361076a5750823b15610756576000805160206109e383398151915280546001600160a01b031916821790557fbc7cd75a20ee27fd9adebab32041f755214dbc6bffa90cc0225b39da2e5c2d3b600080a282511561073b57600080916100b6945190845af43d15610733573d916107168361086b565b926107246040519485610833565b83523d6000602085013e610961565b606091610961565b5050503461074557005b63b398979f60e01b60005260046000fd5b634c9c8ce360e01b60005260045260246000fd5b632a87526960e21b60005260045260246000fd5b9091506020813d6020116107aa575b8161079a60209383610833565b810103126100b857519086610674565b3d915061078d565b6000805160206109e3833981519152546001600160a01b0316141590508461063c565b346100b85760203660031901126100b857600435600090815260208181526040909120546001600160a01b0316825290f35b600435906001600160a01b03821682036100b857565b602435906001600160a01b03821682036100b857565b90601f8019910116810190811067ffffffffffffffff82111761085557604052565b634e487b7160e01b600052604160045260246000fd5b67ffffffffffffffff811161085557601f01601f191660200190565b6001600160a01b031680156108e7576000805160206109c383398151915280546001600160a01b0319811683179091556001600160a01b03167f8be0079c531659141344cd1fd0a4f28419497f9722a3daafe3b4186f6b6457e0600080a3565b631e4fbdf760e01b600052600060045260246000fd5b6000805160206109c3833981519152546001600160a01b0316330361091e57565b63118cdaa760e01b6000523360045260246000fd5b60ff600080516020610a038339815191525460401c161561095057565b631afcd79f60e31b60005260046000fd5b90610987575080511561097657805190602001fd5b63d6bda27560e01b60005260046000fd5b815115806109b9575b610998575090565b639996b31560e01b60009081526001600160a01b0391909116600452602490fd5b50803b1561099056fe9016d09d72d40fdae2fd8ceac6b6234c7706214fd39c1cd1e609a0528c199300360894a13ba1a3210667c828492db98dca3e2076cc3735a920a3ca505d382bbcf0c57e16840df040f15088dc2f81fe391c3923bec73e23a9662efc9c229c6a00a264697066735822122076c8cbd523a1a97eee65a20de1a89dc4070f4972a7a7b7a1d98a21fa6c96041864736f6c634300081e0033",
  "linkReferences": {},
  "deployedLinkReferences": {}
}