{
  "_format": "hh-sol-artifact-1",
  "contractName": "NovaStreamerPayout",
  "sourceName": "contracts/NovaStreamerPayout.sol",
  "abi": [
    {
      "inputs": [],
      "stateMutability": "nonpayable",
      "type": "constructor"
    },
    {
      "inputs": [
        {
          "internalType": "address",
          "name": "target",
          "type": "address"
        }
      ],
      "name": "AddressEmptyCode",
      "type": "error"
    },
    {
      "inputs": [
        {
          "internalType": "address",
          "name": "implementation",
          "type": "address"
        }
      ],
      "name": "ERC1967InvalidImplementation",
      "type": "error"
    },
    {
      "inputs": [],
      "name": "ERC1967NonPayable",
      "type": "error"
    },
    {
      "inputs": [],
      "name": "FailedCall",
      "type": "error"
    },
    {
      "inputs": [],
      "name": "InvalidInitialization",
      "type": "error"
    },
    {
      "inputs": [],
      "name": "NotInitializing",
      "type": "error"
    },
    {
      "inputs": [
        {
          "internalType": "address",
          "name": "owner",
          "type": "address"
        }
      ],
      "name": "OwnableInvalidOwner",
      "type": "error"
    },
    {
      "inputs": [
        {
          "internalType": "address",
          "name": "account",
          "type": "address"
        }
      ],
      "name": "OwnableUnauthorizedAccount",
      "type": "error"
    },
    {
      "inputs": [],
      "name": "UUPSUnauthorizedCallContext",
      "type": "error"
    },
    {
      "inputs": [
        {
          "internalType": "bytes32",
          "name": "slot",
          "type": "bytes32"
        }
      ],
      "name": "UUPSUnsupportedProxiableUUID",
      "type": "error"
    },
    {
      "anonymous": false,
      "inputs": [
        {
          "indexed": false,
          "internalType": "uint64",
          "name": "version",
          "type": "uint64"
        }
      ],
      "name": "Initialized",
      "type": "event"
    },
    {
      "anonymous": false,
      "inputs": [
        {
          "indexed": true,
          "internalType": "address",
          "name": "previousOwner",
          "type": "address"
        },
        {
          "indexed": true,
          "internalType": "address",
          "name": "newOwner",
          "type": "address"
        }
      ],
      "name": "OwnershipTransferred",
      "type": "event"
    },
    {
      "anonymous": false,
      "inputs": [
        {
          "indexed": false,
          "internalType": "uint256",
          "name": "totalAmount",
          "type": "uint256"
        },
        {
          "indexed": false,
          "internalType": "uint256",
          "name": "recipientCount",
          "type": "uint256"
        }
      ],
      "name": "PayoutsDistributed",
      "type": "event"
    },
    {
      "anonymous": false,
      "inputs": [
        {
          "indexed": true,
          "internalType": "address",
          "name": "implementation",
          "type": "address"
        }
      ],
      "name": "Upgraded",
      "type": "event"
    },
    {
      "inputs": [],
      "name": "UPGRADE_INTERFACE_VERSION",
      "outputs": [
        {
          "internalType": "string",
          "name": "",
          "type": "string"
        }
      ],
      "stateMutability": "view",
      "type": "function"
    },
    {
      "inputs": [
        {
          "internalType": "address payable[]",
          "name": "recipients",
          "type": "address[]"
        },
        {
          "internalType": "uint256[]",
          "name": "amounts",
          "type": "uint256[]"
        }
      ],
      "name": "distributePayouts",
      "outputs": [],
      "stateMutability": "nonpayable",
      "type": "function"
    },
    {
      "inputs": [
        {
          "internalType": "address",
          "name": "initialOwner",
          "type": "address"
        }
      ],
      "name": "initialize",
      "outputs": [],
      "stateMutability": "nonpayable",
      "type": "function"
    },
    {
      "inputs": [],
      "name": "owner",
      "outputs": [
        {
          "internalType": "address",
          "name": "",
          "type": "address"
        }
      ],
      "stateMutability": "view",
      "type": "function"
    },
    {
      "inputs": [],
      "name": "proxiableUUID",
      "outputs": [
        {
          "internalType": "bytes32",
          "name": "",
          "type": "bytes32"
        }
      ],
      "stateMutability": "view",
      "type": "function"
    },
    {
      "inputs": [],
      "name": "renounceOwnership",
      "outputs": [],
      "stateMutability": "nonpayable",
      "type": "function"
    },
    {
      "inputs": [
        {
          "internalType": "address",
          "name": "newOwner",
          "type": "address"
        }
      ],
      "name": "transferOwnership",
      "outputs": [],
      "stateMutability": "nonpayable",
      "type": "function"
    },
    {
      "inputs": [
        {
          "internalType": "address",
          "name": "newImplementation",
          "type": "address"
        },
        {
          "internalType": "bytes",
          "name": "data",
          "type": "bytes"
        }
      ],
      "name": "upgradeToAndCall",
      "outputs": [],
      "stateMutability": "payable",
      "type": "function"
    },
    {
      "stateMutability": "payable",
      "type": "receive"
    }
  ],
  "bytecode": "0x60a080604052346100ea57306080527ff0c57e16840df040f15088dc2f81fe391c3923bec73e23a9662efc9c229c6a005460ff8160401c166100d9576002600160401b03196001600160401b03821601610073575b604051610a5d90816100f0823960805181818161032c01526104000152f35b6001600160401b0319166001600160401b039081177ff0c57e16840df040f15088dc2f81fe391c3923bec73e23a9662efc9c229c6a005581527fc7f505b2f371ae2175ee4913f4499e1f2633a7b5936321eed1cdaeb6115181d290602090a13880610054565b63f92ee8a960e01b60005260046000fd5b600080fdfe6080604052600436101561001b575b361561001957600080fd5b005b60003560e01c8063499c61251461059c5780634f1ef2861461038357806352d1902d14610319578063715018a6146102af5780638da5cb5b14610279578063ad3cb1cc146101fd578063c4d66de8146100a65763f2fde38b0361000e57346100a15760203660031901126100a1576100196100946107cc565b61009c610902565b61088c565b600080fd5b346100a15760203660031901126100a1576100bf6107cc565b600080516020610a088339815191525460ff8160401c16159167ffffffffffffffff8216801590816101f5575b60011490816101eb575b1590816101e2575b506101d15767ffffffffffffffff198216600117600080516020610a088339815191525561013d91836101a4575b50610135610938565b61009c610938565b610145610938565b61014b57005b68ff000000000000000019600080516020610a088339815191525416600080516020610a08833981519152557fc7f505b2f371ae2175ee4913f4499e1f2633a7b5936321eed1cdaeb6115181d2602060405160018152a1005b68ffffffffffffffffff19166801000000000000000117600080516020610a08833981519152558361012c565b63f92ee8a960e01b60005260046000fd5b905015846100fe565b303b1591506100f6565b8491506100ec565b346100a15760003660031901126100a157604080519061021d81836107e2565b60058252640352e302e360dc1b6020830152805180926020825280519081602084015260005b8281106102625750506000828201840152601f01601f19168101030190f35b602082820181015187830187015286945001610243565b346100a15760003660031901126100a1576000805160206109c8833981519152546040516001600160a01b039091168152602090f35b346100a15760003660031901126100a1576102c8610902565b6000805160206109c883398151915280546001600160a01b031981169091556000906001600160a01b03167f8be0079c531659141344cd1fd0a4f28419497f9722a3daafe3b4186f6b6457e08280a3005b346100a15760003660031901126100a1577f00000000000000000000000000000000000000000000000000000000000000006001600160a01b031630036103725760206040516000805160206109e88339815191528152f35b63703e46dd60e11b60005260046000fd5b60403660031901126100a1576103976107cc565b6024359067ffffffffffffffff82116100a157366023830112156100a1578160040135906103c48261081a565b916103d260405193846107e2565b808352602083019336602483830101116100a157816000926024602093018737840101526001600160a01b037f000000000000000000000000000000000000000000000000000000000000000016308114908115610579575b5061037257610438610902565b6040516352d1902d60e01b81526001600160a01b0382169390602081600481885afa60009181610545575b5061047d5784634c9c8ce360e01b60005260045260246000fd5b806000805160206109e88339815191528692036105315750823b1561051d576000805160206109e883398151915280546001600160a01b031916821790557fbc7cd75a20ee27fd9adebab32041f755214dbc6bffa90cc0225b39da2e5c2d3b600080a28251156105025760008091610019945190845af46104fc61085c565b91610966565b5050503461050c57005b63b398979f60e01b60005260046000fd5b634c9c8ce360e01b60005260045260246000fd5b632a87526960e21b60005260045260246000fd5b9091506020813d602011610571575b81610561602093836107e2565b810103126100a157519086610463565b3d9150610554565b6000805160206109e8833981519152546001600160a01b0316141590508461042b565b346100a15760403660031901126100a15760043567ffffffffffffffff81116100a1576105cd90369060040161079b565b60243567ffffffffffffffff81116100a1576105ed90369060040161079b565b91906105f7610902565b82820361075657600092835b81811061072157508347106106dc5760005b83811061064e577f1129473e455c7f0a37a3af5a6816f1666b455cadcd674d39905387e86940a31f6040868682519182526020820152a1005b610659818588610836565b356001600160a01b038116908190036100a15760008080809361067d86888a610836565b35905af161068961085c565b501561069757600101610615565b60405162461bcd60e51b815260206004820152601960248201527f5061796f7574733a205472616e73666572206661696c65642e000000000000006044820152606490fd5b60405162461bcd60e51b815260206004820152601c60248201527f5061796f7574733a20496e73756666696369656e742066756e64732e000000006044820152606490fd5b9361072d858385610836565b3581018091116107405793600101610603565b634e487b7160e01b600052601160045260246000fd5b60405162461bcd60e51b815260206004820152601b60248201527f5061796f7574733a204d69736d617463686564206172726179732e00000000006044820152606490fd5b9181601f840112156100a15782359167ffffffffffffffff83116100a1576020808501948460051b0101116100a157565b600435906001600160a01b03821682036100a157565b90601f8019910116810190811067ffffffffffffffff82111761080457604052565b634e487b7160e01b600052604160045260246000fd5b67ffffffffffffffff811161080457601f01601f191660200190565b91908110156108465760051b0190565b634e487b7160e01b600052603260045260246000fd5b3d15610887573d9061086d8261081a565b9161087b60405193846107e2565b82523d6000602084013e565b606090565b6001600160a01b031680156108ec576000805160206109c883398151915280546001600160a01b0319811683179091556001600160a01b03167f8be0079c531659141344cd1fd0a4f28419497f9722a3daafe3b4186f6b6457e0600080a3565b631e4fbdf760e01b600052600060045260246000fd5b6000805160206109c8833981519152546001600160a01b0316330361092357565b63118cdaa760e01b6000523360045260246000fd5b60ff600080516020610a088339815191525460401c161561095557565b631afcd79f60e31b60005260046000fd5b9061098c575080511561097b57805190602001fd5b63d6bda27560e01b60005260046000fd5b815115806109be575b61099d575090565b639996b31560e01b60009081526001600160a01b0391909116600452602490fd5b50803b1561099556fe9016d09d72d40fdae2fd8ceac6b6234c7706214fd39c1cd1e609a0528c199300360894a13ba1a3210667c828492db98dca3e2076cc3735a920a3ca505d382bbcf0c57e16840df040f15088dc2f81fe391c3923bec73e23a9662efc9c229c6a00a2646970667358221220945ed81d6661d4890ec8d0485acd308b2145d0f3f7838d011dea1b05cbca661664736f6c634300081e0033",
  "linkReferences": {},
  "deployedLinkReferences": {}
}