{
  "_format": "hh-sol-artifact-1",
  "contractName": "NovaMarketplace",
  "sourceName": "contracts/NovaMarketplace.sol",
  "abi": [
    {
      "inputs": [],
      "stateMutability": "nonpayable",
      "type": "constructor"
    },
    {
      "anonymous": false,
      "inputs": [
        {
          "indexed": true,
          "internalType": "uint256",
          "name": "listingId",
          "type": "uint256"
        },
        {
          "indexed": true,
          "internalType": "address",
          "name": "seller",
          "type": "address"
        },
        {
          "indexed": true,
          "internalType": "address",
          "name": "nftAddress",
          "type": "address"
        },
        {
          "indexed": false,
          "internalType": "uint256",
          "name": "tokenId",
          "type": "uint256"
        },
        {
          "indexed": false,
          "internalType": "uint256",
          "name": "price",
          "type": "uint256"
        }
      ],
      "name": "ItemListed",
      "type": "event"
    },
    {
      "anonymous": false,
      "inputs": [
        {
          "indexed": true,
          "internalType": "uint256",
          "name": "listingId",
          "type": "uint256"
        },
        {
          "indexed": true,
          "internalType": "address",
          "name": "buyer",
          "type": "address"
        },
        {
          "indexed": false,
          "internalType": "address",
          "name": "seller",
          "type": "address"
        },
        {
          "indexed": false,
          "internalType": "uint256",
          "name": "price",
          "type": "uint256"
        }
      ],
      "name": "ItemSold",
      "type": "event"
    },
    {
      "anonymous": false,
      "inputs": [
        {
          "indexed": true,
          "internalType": "uint256",
          "name": "listingId",
          "type": "uint256"
        }
      ],
      "name": "ListingCancelled",
      "type": "event"
    },
    {
      "anonymous": false,
      "inputs": [
        {
          "indexed": true,
          "internalType": "address",
          "name": "previousOwner",
          "type": "address"
        },
        {
          "indexed": true,
          "internalType": "address",
          "name": "newOwner",
          "type": "address"
        }
      ],
      "name": "OwnershipTransferred",
      "type": "event"
    },
    {
      "anonymous": false,
      "inputs": [
        {
          "indexed": true,
          "internalType": "address",
          "name": "implementation",
          "type": "address"
        }
      ],
      "name": "Upgraded",
      "type": "event"
    },
    {
      "inputs": [
        {
          "internalType": "uint256",
          "name": "listingId",
          "type": "uint256"
        }
      ],
      "name": "buyItem",
      "outputs": [],
      "stateMutability": "nonpayable",
      "type": "function"
    },
    {
      "inputs": [
        {
          "internalType": "uint256",
          "name": "listingId",
          "type": "uint256"
        }
      ],
      "name": "cancelListing",
      "outputs": [],
      "stateMutability": "nonpayable",
      "type": "function"
    },
    {
      "inputs": [
        {
          "internalType": "address",
          "name": "initialOwner",
          "type": "address"
        },
        {
          "internalType": "address",
          "name": "registryAddress",
          "type": "address"
        }
      ],
      "name": "initialize",
      "outputs": [],
      "stateMutability": "nonpayable",
      "type": "function"
    },
    {
      "inputs": [
        {
          "internalType": "address",
          "name": "_nftAddress",
          "type": "address"
        },
        {
          "internalType": "uint256",
          "name": "_tokenId",
          "type": "uint256"
        },
        {
          "internalType": "uint256",
          "name": "_price",
          "type": "uint256"
        }
      ],
      "name": "listItem",
      "outputs": [],
      "stateMutability": "nonpayable",
      "type": "function"
    },
    {
      "inputs": [
        {
          "internalType": "uint256",
          "name": "",
          "type": "uint256"
        }
      ],
      "name": "listings",
      "outputs": [
        {
          "internalType": "address",
          "name": "seller",
          "type": "address"
        },
        {
          "internalType": "address",
          "name": "nftAddress",
          "type": "address"
        },
        {
          "internalType": "uint256",
          "name": "tokenId",
          "type": "uint256"
        },
        {
          "internalType": "uint256",
          "name": "price",
          "type": "uint256"
        }
      ],
      "stateMutability": "view",
      "type": "function"
    },
    {
      "inputs": [],
      "name": "novaRegistry",
      "outputs": [
        {
          "internalType": "contract INovaRegistry",
          "name": "",
          "type": "address"
        }
      ],
      "stateMutability": "view",
      "type": "function"
    },
    {
      "inputs": [],
      "name": "owner",
      "outputs": [
        {
          "internalType": "address",
          "name": "",
          "type": "address"
        }
      ],
      "stateMutability": "view",
      "type": "function"
    },
    {
      "inputs": [
        {
          "internalType": "address",
          "name": "newOwner",
          "type": "address"
        }
      ],
      "name": "transferOwnership",
      "outputs": [],
      "stateMutability": "nonpayable",
      "type": "function"
    },
    {
      "inputs": [
        {
          "internalType": "address",
          "name": "newImplementation",
          "type": "address"
        },
        {
          "internalType": "bytes",
          "name": "data",
          "type": "bytes"
        }
      ],
      "name": "upgradeToAndCall",
      "outputs": [],
      "stateMutability": "payable",
      "type": "function"
    }
  ],
  "bytecode": "0x608060405234601d57600e6022565b604051610c99908161009b8239f35b600080fd5b60005460ff8160081c1660455760ff811660425760ff1916600117600055565b50565b60405162461bcd60e51b815260206004820152602760248201527f496e697469616c697a61626c653a20636f6e747261637420697320696e697469604482015266616c697a696e6760c81b6064820152608490fdfe6080604052600436101561001257600080fd5b6000803560e01c8063305a67a814610966578063485cc955146107d55780634f1ef286146106a1578063693662b91461067857806389bfd38f146104c95780638da5cb5b1461049e578063de74e57b14610441578063e7fb74c7146101095763f2fde38b1461008057600080fd5b3461010657602036600319011261010657610099610ae1565b8154601081901c6001600160a01b031691906100b6338414610bb8565b62010000600160b01b031916601082901b62010000600160b01b03161783556001600160a01b0316907f8be0079c531659141344cd1fd0a4f28419497f9722a3daafe3b4186f6b6457e08380a380f35b80fd5b50346101065760203660031901126101065760043561012d60026001541415610b6c565b60026001558082526003602052604082209060405161014b81610afc565b82546001600160a01b0390811680835260018501549091166020830190815260028501546040840190815260039095015460608401908152949091156104085760018060a01b0360025416602060405181810190682727ab20afa1a7a4a760b91b8252600981526101bd602982610b2e565b519020602460405180948193630d2020dd60e01b835260048301525afa9081156103fd5787916103b7575b506001600160a01b031691821561036457835186516040516323b872dd60e01b81523360048201526001600160a01b039092166024830152604482015287936020908290606490829088905af1801561035957610322575b50519051906001600160a01b0316803b1561031e576040516323b872dd60e01b8152306004820152336024820152604481019290925282908290606490829084905af18015610313576102fa575b5082905260036020526102b66040852060036000918281558260018201558260028201550155565b60018060a01b03905116915160405192835260208301527f04ddd54c6b746e69ba87f862311f7670bd1d7276846778ac81cd38747b27a74660403393a36001805580f35b8161030491610b2e565b61030f57833861028e565b8380fd5b6040513d84823e3d90fd5b8280fd5b6020813d602011610351575b8161033b60209383610b2e565b8101031261030f57518015158114610240578380fd5b3d915061032e565b6040513d86823e3d90fd5b60405162461bcd60e51b815260206004820152602560248201527f4d61726b6574706c6163653a204e6f7661436f696e206e6f742072656769737460448201526432b932b21760d91b6064820152608490fd5b90506020813d6020116103f5575b816103d260209383610b2e565b810103126103f157516001600160a01b03811681036103f157386101e8565b8680fd5b3d91506103c5565b6040513d89823e3d90fd5b60405162461bcd60e51b815260206004820152601160248201527026b0b935b2ba383630b1b29d102227229760791b6044820152606490fd5b5034610106576020366003190112610106576040608091600435815260036020522060018060a01b038154169060018060a01b03600182015416906003600282015491015491604051938452602084015260408301526060820152f35b50346101065780600319360112610106575460405160109190911c6001600160a01b03168152602090f35b5034610106576060366003190112610106576104e3610ae1565b602435604435916104f960026001541415610b6c565b60026001558215610633576001600160a01b031691823b1561030f576040516323b872dd60e01b8152336004820152306024820152604481018390528490818160648183895af180156103135761061e575b505060045490600019821461060a576001820160045560405161056d81610afc565b338082526020808301878152604080850188815260608601878152888c526003808652838d20975188546001600160a01b03199081166001600160a01b03928316178a55955160018a01805490971691161790945590516002870155519490910193909355825195865285019290925290927f424b3284a7958bb7965c27ca0b2a8b30ce2a56ba954533df15e6bded1b608ed79190a46001805580f35b634e487b7160e01b85526011600452602485fd5b8161062891610b2e565b61030f57833861054b565b60405162461bcd60e51b815260206004820152601e60248201527f4d61726b6574706c6163653a205072696365206d757374206265203e203000006044820152606490fd5b50346101065780600319360112610106576002546040516001600160a01b039091168152602090f35b506040366003190112610106576106b6610ae1565b8160243567ffffffffffffffff81116107d157366023820112156107d15780600401356106e281610b50565b6106ef6040519182610b2e565b818152602081019136602482860101116107cd57602081869592602487940186378301015261072b60018060a01b03845460101c163314610bb8565b5190845af43d156107c8573d61074081610b50565b9061074e6040519283610b2e565b81528360203d92013e5b1561078d576001600160a01b03167fbc7cd75a20ee27fd9adebab32041f755214dbc6bffa90cc0225b39da2e5c2d3b8280a280f35b60405162461bcd60e51b815260206004820152601360248201527215555414c81d5c19dc9859194819985a5b1959606a1b6044820152606490fd5b610758565b8480fd5b5080fd5b5034610106576040366003190112610106576107ef610ae1565b6024356001600160a01b0381169081900361031e57825460ff8160081c169081159182600014610961575060ff8116155b156109055760ff1981166001178555816108f4575b5083549161084860ff8460081c16610c03565b62010000600160b01b03198316601085811b62010000600160b01b031691821780885591956108bc9260ff9290916001600160a01b039081169188901c167f8be0079c531659141344cd1fd0a4f28419497f9722a3daafe3b4186f6b6457e08a80a360081c166108b781610c03565b610c03565b600180556bffffffffffffffffffffffff60a01b60025416176002556108e0578280f35b610100600160b01b03191617815538808280f35b61ffff191661010117845538610835565b60405162461bcd60e51b815260206004820152602e60248201527f496e697469616c697a61626c653a20636f6e747261637420697320616c72656160448201526d191e481a5b9a5d1a585b1a5e995960921b6064820152608490fd5b610820565b5034610106576020366003190112610106576004359061098b60026001541415610b6c565b60026001558181526003602052604081206040516109a881610afc565b81546001600160a01b039081168083526001840154909116602083019081526002840154604084019081526003909401546060909301929092523303610a9c578383526003602052610a0f6040842060036000918281558260018201558260028201550155565b5190516001600160a01b0390911690813b1561031e576040516323b872dd60e01b815230600482015233602482015260448101919091529082908290606490829084905af1801561031357610a8c575b50907f411aee90354c51b1b04cd563fcab2617142a9d50da19232d888547c8a1b7fd8a8280a26001805580f35b81610a9691610b2e565b38610a5f565b60405162461bcd60e51b815260206004820152601860248201527f4d61726b6574706c6163653a204e6f742073656c6c65722e00000000000000006044820152606490fd5b600435906001600160a01b0382168203610af757565b600080fd5b6080810190811067ffffffffffffffff821117610b1857604052565b634e487b7160e01b600052604160045260246000fd5b90601f8019910116810190811067ffffffffffffffff821117610b1857604052565b67ffffffffffffffff8111610b1857601f01601f191660200190565b15610b7357565b60405162461bcd60e51b815260206004820152601f60248201527f5265656e7472616e637947756172643a207265656e7472616e742063616c6c006044820152606490fd5b15610bbf57565b606460405162461bcd60e51b815260206004820152602060248201527f4f776e61626c653a2063616c6c6572206973206e6f7420746865206f776e65726044820152fd5b15610c0a57565b60405162461bcd60e51b815260206004820152602b60248201527f496e697469616c697a61626c653a20636f6e7472616374206973206e6f74206960448201526a6e697469616c697a696e6760a81b6064820152608490fdfea2646970667358221220f5bcdd20ea77578000b7e4c2bc552b6bf1d1ebb6526ed40b4f5491e4fb53f34464736f6c634300081e0033",
  "linkReferences": {},
  "deployedLinkReferences": {}
}