{
  "_format": "hh-sol-artifact-1",
  "contractName": "NovaProfiles",
  "sourceName": "contracts/NovaProfiles.sol",
  "abi": [
    {
      "inputs": [],
      "stateMutability": "nonpayable",
      "type": "constructor"
    },
    {
      "inputs": [
        {
          "internalType": "address",
          "name": "target",
          "type": "address"
        }
      ],
      "name": "AddressEmptyCode",
      "type": "error"
    },
    {
      "inputs": [
        {
          "internalType": "address",
          "name": "implementation",
          "type": "address"
        }
      ],
      "name": "ERC1967InvalidImplementation",
      "type": "error"
    },
    {
      "inputs": [],
      "name": "ERC1967NonPayable",
      "type": "error"
    },
    {
      "inputs": [],
      "name": "FailedCall",
      "type": "error"
    },
    {
      "inputs": [],
      "name": "InvalidInitialization",
      "type": "error"
    },
    {
      "inputs": [],
      "name": "NotInitializing",
      "type": "error"
    },
    {
      "inputs": [
        {
          "internalType": "address",
          "name": "owner",
          "type": "address"
        }
      ],
      "name": "OwnableInvalidOwner",
      "type": "error"
    },
    {
      "inputs": [
        {
          "internalType": "address",
          "name": "account",
          "type": "address"
        }
      ],
      "name": "OwnableUnauthorizedAccount",
      "type": "error"
    },
    {
      "inputs": [],
      "name": "UUPSUnauthorizedCallContext",
      "type": "error"
    },
    {
      "inputs": [
        {
          "internalType": "bytes32",
          "name": "slot",
          "type": "bytes32"
        }
      ],
      "name": "UUPSUnsupportedProxiableUUID",
      "type": "error"
    },
    {
      "anonymous": false,
      "inputs": [
        {
          "indexed": false,
          "internalType": "uint64",
          "name": "version",
          "type": "uint64"
        }
      ],
      "name": "Initialized",
      "type": "event"
    },
    {
      "anonymous": false,
      "inputs": [
        {
          "indexed": true,
          "internalType": "address",
          "name": "previousOwner",
          "type": "address"
        },
        {
          "indexed": true,
          "internalType": "address",
          "name": "newOwner",
          "type": "address"
        }
      ],
      "name": "OwnershipTransferred",
      "type": "event"
    },
    {
      "anonymous": false,
      "inputs": [
        {
          "indexed": true,
          "internalType": "address",
          "name": "user",
          "type": "address"
        },
        {
          "indexed": false,
          "internalType": "string",
          "name": "username",
          "type": "string"
        }
      ],
      "name": "ProfileCreated",
      "type": "event"
    },
    {
      "anonymous": false,
      "inputs": [
        {
          "indexed": true,
          "internalType": "address",
          "name": "implementation",
          "type": "address"
        }
      ],
      "name": "Upgraded",
      "type": "event"
    },
    {
      "inputs": [],
      "name": "UPGRADE_INTERFACE_VERSION",
      "outputs": [
        {
          "internalType": "string",
          "name": "",
          "type": "string"
        }
      ],
      "stateMutability": "view",
      "type": "function"
    },
    {
      "inputs": [
        {
          "internalType": "string",
          "name": "_username",
          "type": "string"
        },
        {
          "internalType": "string",
          "name": "_contentHash",
          "type": "string"
        }
      ],
      "name": "createProfile",
      "outputs": [],
      "stateMutability": "nonpayable",
      "type": "function"
    },
    {
      "inputs": [
        {
          "internalType": "address",
          "name": "initialOwner",
          "type": "address"
        }
      ],
      "name": "initialize",
      "outputs": [],
      "stateMutability": "nonpayable",
      "type": "function"
    },
    {
      "inputs": [],
      "name": "owner",
      "outputs": [
        {
          "internalType": "address",
          "name": "",
          "type": "address"
        }
      ],
      "stateMutability": "view",
      "type": "function"
    },
    {
      "inputs": [
        {
          "internalType": "address",
          "name": "",
          "type": "address"
        }
      ],
      "name": "profiles",
      "outputs": [
        {
          "internalType": "string",
          "name": "username",
          "type": "string"
        },
        {
          "internalType": "string",
          "name": "contentHash",
          "type": "string"
        },
        {
          "internalType": "uint256",
          "name": "creationDate",
          "type": "uint256"
        }
      ],
      "stateMutability": "view",
      "type": "function"
    },
    {
      "inputs": [],
      "name": "proxiableUUID",
      "outputs": [
        {
          "internalType": "bytes32",
          "name": "",
          "type": "bytes32"
        }
      ],
      "stateMutability": "view",
      "type": "function"
    },
    {
      "inputs": [],
      "name": "renounceOwnership",
      "outputs": [],
      "stateMutability": "nonpayable",
      "type": "function"
    },
    {
      "inputs": [
        {
          "internalType": "address",
          "name": "newOwner",
          "type": "address"
        }
      ],
      "name": "transferOwnership",
      "outputs": [],
      "stateMutability": "nonpayable",
      "type": "function"
    },
    {
      "inputs": [
        {
          "internalType": "address",
          "name": "newImplementation",
          "type": "address"
        },
        {
          "internalType": "bytes",
          "name": "data",
          "type": "bytes"
        }
      ],
      "name": "upgradeToAndCall",
      "outputs": [],
      "stateMutability": "payable",
      "type": "function"
    },
    {
      "inputs": [
        {
          "internalType": "bytes32",
          "name": "",
          "type": "bytes32"
        }
      ],
      "name": "usernameOwner",
      "outputs": [
        {
          "internalType": "address",
          "name": "",
          "type": "address"
        }
      ],
      "stateMutability": "view",
      "type": "function"
    }
  ],
  "bytecode": "0x60a080604052346100ea57306080527ff0c57e16840df040f15088dc2f81fe391c3923bec73e23a9662efc9c229c6a005460ff8160401c166100d9576002600160401b03196001600160401b03821601610073575b604051610e3490816100f0823960805181818161081f01526108c50152f35b6001600160401b0319166001600160401b039081177ff0c57e16840df040f15088dc2f81fe391c3923bec73e23a9662efc9c229c6a005581527fc7f505b2f371ae2175ee4913f4499e1f2633a7b5936321eed1cdaeb6115181d290602090a13880610054565b63f92ee8a960e01b60005260046000fd5b600080fdfe6080604052600436101561001257600080fd5b60003560e01c80634f1ef2861461087657806352d1902d1461080c578063715018a6146107a25780638da5cb5b1461076c578063a6c71aec14610738578063ad3cb1cc146106ed578063ba1feb8a1461028e578063bbe1562714610211578063c4d66de8146100ba5763f2fde38b1461008a57600080fd5b346100b55760203660031901126100b5576100b36100a6610a8b565b6100ae610cd9565b610c63565b005b600080fd5b346100b55760203660031901126100b5576100d3610a8b565b600080516020610ddf8339815191525460ff8160401c16159167ffffffffffffffff821680159081610209575b60011490816101ff575b1590816101f6575b506101e55767ffffffffffffffff198216600117600080516020610ddf8339815191525561015191836101b8575b50610149610d0f565b6100ae610d0f565b610159610d0f565b61015f57005b68ff000000000000000019600080516020610ddf8339815191525416600080516020610ddf833981519152557fc7f505b2f371ae2175ee4913f4499e1f2633a7b5936321eed1cdaeb6115181d2602060405160018152a1005b68ffffffffffffffffff19166801000000000000000117600080516020610ddf8339815191525583610140565b63f92ee8a960e01b60005260046000fd5b90501584610112565b303b15915061010a565b849150610100565b346100b55760203660031901126100b5576001600160a01b03610232610a8b565b166000526000602052610276604060002061024c81610bbf565b90610284600261025e60018401610bbf565b92015491604051948594606086526060860190610b16565b908482036020860152610b16565b9060408301520390f35b346100b55760403660031901126100b55760043567ffffffffffffffff81116100b5576102bf903690600401610b57565b60243567ffffffffffffffff81116100b5576102df903690600401610b57565b9290923360005260006020526002604060002001546106b5576040516020810190848483376103226020828781016000838201520301601f198101835282610aa1565b5190206000818152600160205260409020549091906001600160a01b031661067e5760405194606086019186831067ffffffffffffffff8411176105a55761037b92604052610372368787610adf565b87523691610adf565b9360208101948552604081014281523360005260006020526040600020915180519067ffffffffffffffff82116105a55781906103b88554610b85565b601f811161062b575b50602090601f83116001146105c6576000926105bb575b50508160011b916000199060031b1c19161782555b60018201955195865167ffffffffffffffff81116105a55761040f8254610b85565b601f811161055d575b506020601f82116001146104d157908060029493927fbafddecbd1dec1c1afb76d693f1de16901f521bdf29a02438e3e6806c0b8d948999a6000926104c6575b50508160011b916000199060031b1c19161790555b5191015560005260016020526040600020336bffffffffffffffffffffffff60a01b82541617905582604051916020835281602084015260408301376000604084830101526040813394601f80199101168101030190a2005b015190508a80610458565b601f1982169883600052816000209960005b818110610545575099600192849260029796957fbafddecbd1dec1c1afb76d693f1de16901f521bdf29a02438e3e6806c0b8d9489c9d1061052c575b505050811b01905561046d565b015160001960f88460031b161c191690558a808061051f565b838301518c556001909b019a602093840193016104e3565b826000526020600020601f830160051c8101916020841061059b575b601f0160051c01905b81811061058f5750610418565b60008155600101610582565b9091508190610579565b634e487b7160e01b600052604160045260246000fd5b0151905088806103d8565b60008681528281209350601f198516905b81811061061357509084600195949392106105fa575b505050811b0182556103ed565b015160001960f88460031b161c191690558880806105ed565b929360206001819287860151815501950193016105d7565b909150846000526020600020601f840160051c81019160208510610674575b90601f859493920160051c01905b81811061066557506103c1565b60008155849350600101610658565b909150819061064a565b60405162461bcd60e51b815260206004820152600f60248201526e283937b334b6329d102a30b5b2b71760891b6044820152606490fd5b60405162461bcd60e51b815260206004820152601060248201526f283937b334b6329d1022bc34b9ba399760811b6044820152606490fd5b346100b55760003660031901126100b55761073460408051906107108183610aa1565b60058252640352e302e360dc1b602083015251918291602083526020830190610b16565b0390f35b346100b55760203660031901126100b5576004356000526001602052602060018060a01b0360406000205416604051908152f35b346100b55760003660031901126100b557600080516020610d9f833981519152546040516001600160a01b039091168152602090f35b346100b55760003660031901126100b5576107bb610cd9565b600080516020610d9f83398151915280546001600160a01b031981169091556000906001600160a01b03167f8be0079c531659141344cd1fd0a4f28419497f9722a3daafe3b4186f6b6457e08280a3005b346100b55760003660031901126100b5577f00000000000000000000000000000000000000000000000000000000000000006001600160a01b03163003610865576020604051600080516020610dbf8339815191528152f35b63703e46dd60e11b60005260046000fd5b60403660031901126100b55761088a610a8b565b60243567ffffffffffffffff81116100b557366023820112156100b5576108bb903690602481600401359101610adf565b6001600160a01b037f000000000000000000000000000000000000000000000000000000000000000016308114908115610a68575b50610865576108fd610cd9565b6040516352d1902d60e01b81526001600160a01b0383169290602081600481875afa60009181610a34575b506109425783634c9c8ce360e01b60005260045260246000fd5b80600080516020610dbf833981519152859203610a205750813b15610a0c57600080516020610dbf83398151915280546001600160a01b031916821790557fbc7cd75a20ee27fd9adebab32041f755214dbc6bffa90cc0225b39da2e5c2d3b600080a28151156109f2576000808360206100b395519101845af43d156109ea573d916109cd83610ac3565b926109db6040519485610aa1565b83523d6000602085013e610d3d565b606091610d3d565b5050346109fb57005b63b398979f60e01b60005260046000fd5b634c9c8ce360e01b60005260045260246000fd5b632a87526960e21b60005260045260246000fd5b9091506020813d602011610a60575b81610a5060209383610aa1565b810103126100b557519085610928565b3d9150610a43565b600080516020610dbf833981519152546001600160a01b031614159050836108f0565b600435906001600160a01b03821682036100b557565b90601f8019910116810190811067ffffffffffffffff8211176105a557604052565b67ffffffffffffffff81116105a557601f01601f191660200190565b929192610aeb82610ac3565b91610af96040519384610aa1565b8294818452818301116100b5578281602093846000960137010152565b919082519283825260005b848110610b42575050826000602080949584010152601f8019910116010190565b80602080928401015182828601015201610b21565b9181601f840112156100b55782359167ffffffffffffffff83116100b557602083818601950101116100b557565b90600182811c92168015610bb5575b6020831014610b9f57565b634e487b7160e01b600052602260045260246000fd5b91607f1691610b94565b9060405191826000825492610bd384610b85565b8084529360018116908115610c415750600114610bfa575b50610bf892500383610aa1565b565b90506000929192526020600020906000915b818310610c25575050906020610bf89282010138610beb565b6020919350806001915483858901015201910190918492610c0c565b905060209250610bf894915060ff191682840152151560051b82010138610beb565b6001600160a01b03168015610cc357600080516020610d9f83398151915280546001600160a01b0319811683179091556001600160a01b03167f8be0079c531659141344cd1fd0a4f28419497f9722a3daafe3b4186f6b6457e0600080a3565b631e4fbdf760e01b600052600060045260246000fd5b600080516020610d9f833981519152546001600160a01b03163303610cfa57565b63118cdaa760e01b6000523360045260246000fd5b60ff600080516020610ddf8339815191525460401c1615610d2c57565b631afcd79f60e31b60005260046000fd5b90610d635750805115610d5257805190602001fd5b63d6bda27560e01b60005260046000fd5b81511580610d95575b610d74575090565b639996b31560e01b60009081526001600160a01b0391909116600452602490fd5b50803b15610d6c56fe9016d09d72d40fdae2fd8ceac6b6234c7706214fd39c1cd1e609a0528c199300360894a13ba1a3210667c828492db98dca3e2076cc3735a920a3ca505d382bbcf0c57e16840df040f15088dc2f81fe391c3923bec73e23a9662efc9c229c6a00a26469706673582212208f4a4e6251e2b1321505bd1b2e67061ccb1861466ec682bceef003f634abe6fb64736f6c634300081e0033",
  "linkReferences": {},
  "deployedLinkReferences": {}
}