{
  "_format": "hh-sol-artifact-1",
  "contractName": "NovaCoin_ProgrammableSupply",
  "sourceName": "contracts/NovaCoin_ProgrammableSupply.sol",
  "abi": [
    {
      "inputs": [],
      "stateMutability": "nonpayable",
      "type": "constructor"
    },
    {
      "inputs": [
        {
          "internalType": "address",
          "name": "target",
          "type": "address"
        }
      ],
      "name": "AddressEmptyCode",
      "type": "error"
    },
    {
      "inputs": [
        {
          "internalType": "address",
          "name": "implementation",
          "type": "address"
        }
      ],
      "name": "ERC1967InvalidImplementation",
      "type": "error"
    },
    {
      "inputs": [],
      "name": "ERC1967NonPayable",
      "type": "error"
    },
    {
      "inputs": [
        {
          "internalType": "address",
          "name": "spender",
          "type": "address"
        },
        {
          "internalType": "uint256",
          "name": "allowance",
          "type": "uint256"
        },
        {
          "internalType": "uint256",
          "name": "needed",
          "type": "uint256"
        }
      ],
      "name": "ERC20InsufficientAllowance",
      "type": "error"
    },
    {
      "inputs": [
        {
          "internalType": "address",
          "name": "sender",
          "type": "address"
        },
        {
          "internalType": "uint256",
          "name": "balance",
          "type": "uint256"
        },
        {
          "internalType": "uint256",
          "name": "needed",
          "type": "uint256"
        }
      ],
      "name": "ERC20InsufficientBalance",
      "type": "error"
    },
    {
      "inputs": [
        {
          "internalType": "address",
          "name": "approver",
          "type": "address"
        }
      ],
      "name": "ERC20InvalidApprover",
      "type": "error"
    },
    {
      "inputs": [
        {
          "internalType": "address",
          "name": "receiver",
          "type": "address"
        }
      ],
      "name": "ERC20InvalidReceiver",
      "type": "error"
    },
    {
      "inputs": [
        {
          "internalType": "address",
          "name": "sender",
          "type": "address"
        }
      ],
      "name": "ERC20InvalidSender",
      "type": "error"
    },
    {
      "inputs": [
        {
          "internalType": "address",
          "name": "spender",
          "type": "address"
        }
      ],
      "name": "ERC20InvalidSpender",
      "type": "error"
    },
    {
      "inputs": [],
      "name": "FailedCall",
      "type": "error"
    },
    {
      "inputs": [],
      "name": "InvalidInitialization",
      "type": "error"
    },
    {
      "inputs": [],
      "name": "NotInitializing",
      "type": "error"
    },
    {
      "inputs": [
        {
          "internalType": "address",
          "name": "owner",
          "type": "address"
        }
      ],
      "name": "OwnableInvalidOwner",
      "type": "error"
    },
    {
      "inputs": [
        {
          "internalType": "address",
          "name": "account",
          "type": "address"
        }
      ],
      "name": "OwnableUnauthorizedAccount",
      "type": "error"
    },
    {
      "inputs": [],
      "name": "UUPSUnauthorizedCallContext",
      "type": "error"
    },
    {
      "inputs": [
        {
          "internalType": "bytes32",
          "name": "slot",
          "type": "bytes32"
        }
      ],
      "name": "UUPSUnsupportedProxiableUUID",
      "type": "error"
    },
    {
      "anonymous": false,
      "inputs": [
        {
          "indexed": true,
          "internalType": "address",
          "name": "owner",
          "type": "address"
        },
        {
          "indexed": true,
          "internalType": "address",
          "name": "spender",
          "type": "address"
        },
        {
          "indexed": false,
          "internalType": "uint256",
          "name": "value",
          "type": "uint256"
        }
      ],
      "name": "Approval",
      "type": "event"
    },
    {
      "anonymous": false,
      "inputs": [
        {
          "indexed": false,
          "internalType": "uint64",
          "name": "version",
          "type": "uint64"
        }
      ],
      "name": "Initialized",
      "type": "event"
    },
    {
      "anonymous": false,
      "inputs": [
        {
          "indexed": true,
          "internalType": "address",
          "name": "previousOwner",
          "type": "address"
        },
        {
          "indexed": true,
          "internalType": "address",
          "name": "newOwner",
          "type": "address"
        }
      ],
      "name": "OwnershipTransferred",
      "type": "event"
    },
    {
      "anonymous": false,
      "inputs": [
        {
          "indexed": true,
          "internalType": "uint256",
          "name": "period",
          "type": "uint256"
        },
        {
          "indexed": true,
          "internalType": "address",
          "name": "destination",
          "type": "address"
        },
        {
          "indexed": false,
          "internalType": "uint256",
          "name": "amount",
          "type": "uint256"
        }
      ],
      "name": "SupplyMinted",
      "type": "event"
    },
    {
      "anonymous": false,
      "inputs": [
        {
          "indexed": true,
          "internalType": "address",
          "name": "from",
          "type": "address"
        },
        {
          "indexed": true,
          "internalType": "address",
          "name": "to",
          "type": "address"
        },
        {
          "indexed": false,
          "internalType": "uint256",
          "name": "value",
          "type": "uint256"
        }
      ],
      "name": "Transfer",
      "type": "event"
    },
    {
      "anonymous": false,
      "inputs": [
        {
          "indexed": true,
          "internalType": "address",
          "name": "implementation",
          "type": "address"
        }
      ],
      "name": "Upgraded",
      "type": "event"
    },
    {
      "inputs": [],
      "name": "MAX_SUPPLY",
      "outputs": [
        {
          "internalType": "uint256",
          "name": "",
          "type": "uint256"
        }
      ],
      "stateMutability": "view",
      "type": "function"
    },
    {
      "inputs": [],
      "name": "PERIOD_DURATION",
      "outputs": [
        {
          "internalType": "uint256",
          "name": "",
          "type": "uint256"
        }
      ],
      "stateMutability": "view",
      "type": "function"
    },
    {
      "inputs": [],
      "name": "UPGRADE_INTERFACE_VERSION",
      "outputs": [
        {
          "internalType": "string",
          "name": "",
          "type": "string"
        }
      ],
      "stateMutability": "view",
      "type": "function"
    },
    {
      "inputs": [
        {
          "internalType": "address",
          "name": "owner",
          "type": "address"
        },
        {
          "internalType": "address",
          "name": "spender",
          "type": "address"
        }
      ],
      "name": "allowance",
      "outputs": [
        {
          "internalType": "uint256",
          "name": "",
          "type": "uint256"
        }
      ],
      "stateMutability": "view",
      "type": "function"
    },
    {
      "inputs": [
        {
          "internalType": "address",
          "name": "spender",
          "type": "address"
        },
        {
          "internalType": "uint256",
          "name": "value",
          "type": "uint256"
        }
      ],
      "name": "approve",
      "outputs": [
        {
          "internalType": "bool",
          "name": "",
          "type": "bool"
        }
      ],
      "stateMutability": "nonpayable",
      "type": "function"
    },
    {
      "inputs": [
        {
          "internalType": "address",
          "name": "account",
          "type": "address"
        }
      ],
      "name": "balanceOf",
      "outputs": [
        {
          "internalType": "uint256",
          "name": "",
          "type": "uint256"
        }
      ],
      "stateMutability": "view",
      "type": "function"
    },
    {
      "inputs": [],
      "name": "decimals",
      "outputs": [
        {
          "internalType": "uint8",
          "name": "",
          "type": "uint8"
        }
      ],
      "stateMutability": "view",
      "type": "function"
    },
    {
      "inputs": [
        {
          "internalType": "uint256",
          "name": "period",
          "type": "uint256"
        }
      ],
      "name": "getAvailableToMintForPeriod",
      "outputs": [
        {
          "internalType": "uint256",
          "name": "",
          "type": "uint256"
        }
      ],
      "stateMutability": "view",
      "type": "function"
    },
    {
      "inputs": [
        {
          "internalType": "address",
          "name": "initialOwner",
          "type": "address"
        }
      ],
      "name": "initialize",
      "outputs": [],
      "stateMutability": "nonpayable",
      "type": "function"
    },
    {
      "inputs": [],
      "name": "launchTime",
      "outputs": [
        {
          "internalType": "uint256",
          "name": "",
          "type": "uint256"
        }
      ],
      "stateMutability": "view",
      "type": "function"
    },
    {
      "inputs": [
        {
          "internalType": "address",
          "name": "destination",
          "type": "address"
        }
      ],
      "name": "mintScheduledSupply",
      "outputs": [],
      "stateMutability": "nonpayable",
      "type": "function"
    },
    {
      "inputs": [
        {
          "internalType": "uint256",
          "name": "",
          "type": "uint256"
        }
      ],
      "name": "mintedInPeriod",
      "outputs": [
        {
          "internalType": "uint256",
          "name": "",
          "type": "uint256"
        }
      ],
      "stateMutability": "view",
      "type": "function"
    },
    {
      "inputs": [],
      "name": "name",
      "outputs": [
        {
          "internalType": "string",
          "name": "",
          "type": "string"
        }
      ],
      "stateMutability": "view",
      "type": "function"
    },
    {
      "inputs": [],
      "name": "owner",
      "outputs": [
        {
          "internalType": "address",
          "name": "",
          "type": "address"
        }
      ],
      "stateMutability": "view",
      "type": "function"
    },
    {
      "inputs": [],
      "name": "proxiableUUID",
      "outputs": [
        {
          "internalType": "bytes32",
          "name": "",
          "type": "bytes32"
        }
      ],
      "stateMutability": "view",
      "type": "function"
    },
    {
      "inputs": [],
      "name": "renounceOwnership",
      "outputs": [],
      "stateMutability": "nonpayable",
      "type": "function"
    },
    {
      "inputs": [],
      "name": "symbol",
      "outputs": [
        {
          "internalType": "string",
          "name": "",
          "type": "string"
        }
      ],
      "stateMutability": "view",
      "type": "function"
    },
    {
      "inputs": [],
      "name": "totalSupply",
      "outputs": [
        {
          "internalType": "uint256",
          "name": "",
          "type": "uint256"
        }
      ],
      "stateMutability": "view",
      "type": "function"
    },
    {
      "inputs": [
        {
          "internalType": "address",
          "name": "to",
          "type": "address"
        },
        {
          "internalType": "uint256",
          "name": "value",
          "type": "uint256"
        }
      ],
      "name": "transfer",
      "outputs": [
        {
          "internalType": "bool",
          "name": "",
          "type": "bool"
        }
      ],
      "stateMutability": "nonpayable",
      "type": "function"
    },
    {
      "inputs": [
        {
          "internalType": "address",
          "name": "from",
          "type": "address"
        },
        {
          "internalType": "address",
          "name": "to",
          "type": "address"
        },
        {
          "internalType": "uint256",
          "name": "value",
          "type": "uint256"
        }
      ],
      "name": "transferFrom",
      "outputs": [
        {
          "internalType": "bool",
          "name": "",
          "type": "bool"
        }
      ],
      "stateMutability": "nonpayable",
      "type": "function"
    },
    {
      "inputs": [
        {
          "internalType": "address",
          "name": "newOwner",
          "type": "address"
        }
      ],
      "name": "transferOwnership",
      "outputs": [],
      "stateMutability": "nonpayable",
      "type": "function"
    },
    {
      "inputs": [
        {
          "internalType": "address",
          "name": "newImplementation",
          "type": "address"
        },
        {
          "internalType": "bytes",
          "name": "data",
          "type": "bytes"
        }
      ],
      "name": "upgradeToAndCall",
      "outputs": [],
      "stateMutability": "payable",
      "type": "function"
    }
  ],
  "bytecode": "0x60a080604052346100ea57306080527ff0c57e16840df040f15088dc2f81fe391c3923bec73e23a9662efc9c229c6a005460ff8160401c166100d9576002600160401b03196001600160401b03821601610073575b60405161155690816100f08239608051818181610aee0152610bc20152f35b6001600160401b0319166001600160401b039081177ff0c57e16840df040f15088dc2f81fe391c3923bec73e23a9662efc9c229c6a005581527fc7f505b2f371ae2175ee4913f4499e1f2633a7b5936321eed1cdaeb6115181d290602090a13880610054565b63f92ee8a960e01b60005260046000fd5b600080fdfe6080604052600436101561001257600080fd5b60003560e01c806306fdde0314610f59578063095ea7b314610ed857806318160ddd14610ead57806323b872dd14610dc9578063313ce56714610dad57806332cb6b0c14610d865780634f1ef28614610b4557806352d1902d14610adb5780636558954f14610abc57806370a0823114610a75578063715018a614610a0b578063790ca413146109ed5780637edfc639146109c15780638da5cb5b1461098b57806395d89b4114610898578063a9059cbb14610867578063ad3cb1cc14610824578063add0da1f146107fe578063c4d66de81461034f578063d6042b2714610187578063dd62ed3e1461013e5763f2fde38b1461010e57600080fd5b346101395760203660031901126101395761013761012a611064565b61013261137b565b61122c565b005b600080fd5b3461013957604036600319011261013957610157611064565b61016861016261107a565b91611108565b9060018060a01b03166000526020526020604060002054604051908152f35b34610139576020366003190112610139576101a0611064565b6312cc03006101b160005442611141565b046101bb81611171565b91821561030b5781600052600160205260406000206101db848254611164565b905568327cb2734119d3b7a9601e1b610203846000805160206114c183398151915254611164565b116102d0576001600160a01b03169081156102ba57610231836000805160206114c183398151915254611164565b6000805160206114c1833981519152557f527af53161f37f844c178e2933c054611c7f5676963ac12e6de9f4f51819b4c5602060009484865260008051602061146183398151915282526040862081815401905584867fddf252ad1be2c89b69c2b068fc378daa952ba7f163c4a11628f55a4df523b3ef84604051858152a3604051908152a380f35b63ec442f0560e01b600052600060045260246000fd5b60405162461bcd60e51b815260206004820152601360248201527222bc31b2b2b2399036b0bc1039bab838363c9760691b6044820152606490fd5b606460405162461bcd60e51b815260206004820152602060248201527f4e6f206e657720737570706c7920617661696c61626c6520746f206d696e742e6044820152fd5b3461013957602036600319011261013957610368611064565b6000805160206115018339815191525460ff8160401c16159067ffffffffffffffff8116801590816107f6575b60011490816107ec575b1590816107e3575b506107d25767ffffffffffffffff19811660011760008051602061150183398151915255816107a5575b506040908151926103e28385611090565b60088452672737bb30a1b7b4b760c11b60208501528251936104048486611090565b60048552634e4f564160e01b602086015261041d6113b1565b6104256113b1565b80519067ffffffffffffffff8211610685578190610451600080516020611441833981519152546110ce565b601f8111610728575b50602090601f83116001146106a65760009261069b575b50508160011b916000199060031b1c191617600080516020611441833981519152555b835167ffffffffffffffff8111610685576104bd600080516020611481833981519152546110ce565b601f8111610613575b506020601f821160011461058c578190610517949596600092610581575b50508160011b916000199060031b1c191617600080516020611481833981519152555b61050f6113b1565b6101326113b1565b61051f6113b1565b4260005561052957005b60207fc7f505b2f371ae2175ee4913f4499e1f2633a7b5936321eed1cdaeb6115181d29168ff0000000000000000196000805160206115018339815191525416600080516020611501833981519152555160018152a1005b0151905086806104e4565b601f19821695600080516020611481833981519152600052816000209660005b8181106105fb575091610517959697918460019594106105e2575b505050811b0160008051602061148183398151915255610507565b015160001960f88460031b161c191690558680806105c7565b838301518955600190980197602093840193016105ac565b6000805160206114818339815191526000527f46a2803e59a4de4e7a4c574b1243f25977ac4c77d5a1a4a609b5394cebb4a2aa601f830160051c8101916020841061067b575b601f0160051c01905b81811061066f57506104c6565b60008155600101610662565b9091508190610659565b634e487b7160e01b600052604160045260246000fd5b015190508680610471565b60008051602061144183398151915260009081528281209350601f198516905b81811061071057509084600195949392106106f7575b505050811b0160008051602061144183398151915255610494565b015160001960f88460031b161c191690558680806106dc565b929360206001819287860151815501950193016106c6565b6000805160206114418339815191526000529091507f2ae08a8e29253f69ac5d979a101956ab8f8d9d7ded63fa7a83b16fc47648eab0601f840160051c8101916020851061079b575b90601f859493920160051c01905b81811061078c575061045a565b6000815584935060010161077f565b9091508190610771565b68ffffffffffffffffff1916680100000000000000011760008051602061150183398151915255826103d1565b63f92ee8a960e01b60005260046000fd5b905015846103a7565b303b15915061039f565b839150610395565b3461013957602036600319011261013957602061081c600435611171565b604051908152f35b346101395760003660031901126101395761086360408051906108478183611090565b60058252640352e302e360dc1b6020830152519182918261101b565b0390f35b346101395760403660031901126101395761088d610883611064565b60243590336112a2565b602060405160018152f35b34610139576000366003190112610139576040516000600080516020611481833981519152546108c7816110ce565b808452906001811690811561096757506001146108fb575b610863836108ef81850382611090565b6040519182918261101b565b60008051602061148183398151915260009081527f46a2803e59a4de4e7a4c574b1243f25977ac4c77d5a1a4a609b5394cebb4a2aa939250905b80821061094d575090915081016020016108ef6108df565b919260018160209254838588010152019101909291610935565b60ff191660208086019190915291151560051b840190910191506108ef90506108df565b34610139576000366003190112610139576000805160206114a1833981519152546040516001600160a01b039091168152602090f35b346101395760203660031901126101395760043560005260016020526020604060002054604051908152f35b34610139576000366003190112610139576020600054604051908152f35b3461013957600036600319011261013957610a2461137b565b6000805160206114a183398151915280546001600160a01b031981169091556000906001600160a01b03167f8be0079c531659141344cd1fd0a4f28419497f9722a3daafe3b4186f6b6457e08280a3005b34610139576020366003190112610139576001600160a01b03610a96611064565b166000526000805160206114618339815191526020526020604060002054604051908152f35b346101395760003660031901126101395760206040516312cc03008152f35b34610139576000366003190112610139577f00000000000000000000000000000000000000000000000000000000000000006001600160a01b03163003610b345760206040516000805160206114e18339815191528152f35b63703e46dd60e11b60005260046000fd5b604036600319011261013957610b59611064565b6024359067ffffffffffffffff8211610139573660238301121561013957816004013590610b86826110b2565b91610b946040519384611090565b8083526020830193366024838301011161013957816000926024602093018737840101526001600160a01b037f000000000000000000000000000000000000000000000000000000000000000016308114908115610d63575b50610b3457610bfa61137b565b6040516352d1902d60e01b81526001600160a01b0382169390602081600481885afa60009181610d2f575b50610c3f5784634c9c8ce360e01b60005260045260246000fd5b806000805160206114e1833981519152869203610d1b5750823b15610d07576000805160206114e183398151915280546001600160a01b031916821790557fbc7cd75a20ee27fd9adebab32041f755214dbc6bffa90cc0225b39da2e5c2d3b600080a2825115610cec5760008091610137945190845af43d15610ce4573d91610cc7836110b2565b92610cd56040519485611090565b83523d6000602085013e6113df565b6060916113df565b50505034610cf657005b63b398979f60e01b60005260046000fd5b634c9c8ce360e01b60005260045260246000fd5b632a87526960e21b60005260045260246000fd5b9091506020813d602011610d5b575b81610d4b60209383611090565b8101031261013957519086610c25565b3d9150610d3e565b6000805160206114e1833981519152546001600160a01b03161415905084610bed565b3461013957600036600319011261013957602060405168327cb2734119d3b7a9601e1b8152f35b3461013957600036600319011261013957602060405160128152f35b3461013957606036600319011261013957610de2611064565b610dea61107a565b60443590610df783611108565b3360009081526020919091526040902054926000198410610e1d575b61088d93506112a2565b828410610e90576001600160a01b03811615610e7a573315610e645761088d93610e4682611108565b60018060a01b03331660005260205283604060002091039055610e13565b634a1406b160e11b600052600060045260246000fd5b63e602df0560e01b600052600060045260246000fd5b8284637dc7a0d960e11b6000523360045260245260445260646000fd5b346101395760003660031901126101395760206000805160206114c183398151915254604051908152f35b3461013957604036600319011261013957610ef1611064565b602435903315610e7a576001600160a01b0316908115610e6457610f1433611108565b82600052602052806040600020556040519081527f8c5be1e5ebec7d5bd14f71427d1e84f3dd0314c0f7b2291e5b200ac8c7c3b92560203392a3602060405160018152f35b3461013957600036600319011261013957604051600060008051602061144183398151915254610f88816110ce565b80845290600181169081156109675750600114610faf57610863836108ef81850382611090565b60008051602061144183398151915260009081527f2ae08a8e29253f69ac5d979a101956ab8f8d9d7ded63fa7a83b16fc47648eab0939250905b808210611001575090915081016020016108ef6108df565b919260018160209254838588010152019101909291610fe9565b91909160208152825180602083015260005b81811061104e575060409293506000838284010152601f8019910116010190565b806020809287010151604082860101520161102d565b600435906001600160a01b038216820361013957565b602435906001600160a01b038216820361013957565b90601f8019910116810190811067ffffffffffffffff82111761068557604052565b67ffffffffffffffff811161068557601f01601f191660200190565b90600182811c921680156110fe575b60208310146110e857565b634e487b7160e01b600052602260045260246000fd5b91607f16916110dd565b6001600160a01b031660009081527f52c63247e1f47db19d5ce0460030c497f067ca4cebf71ba98eeadabe20bace016020526040902090565b9190820391821161114e57565b634e487b7160e01b600052601160045260246000fd5b9190820180921161114e57565b6000805b8281106111f357508068327cb2734119d3b7a9601e1b0368327cb2734119d3b7a9601e1b811161114e578060011c92600052600160205268327cb2734119d3b7a9601e1b6111c98460406000205494611164565b116111eb575b50808211156111e4576111e191611141565b90565b5050600090565b9150386111cf565b908068327cb2734119d3b7a9601e1b0368327cb2734119d3b7a9601e1b811161114e5760019161122591831c90611164565b9101611175565b6001600160a01b0316801561128c576000805160206114a183398151915280546001600160a01b0319811683179091556001600160a01b03167f8be0079c531659141344cd1fd0a4f28419497f9722a3daafe3b4186f6b6457e0600080a3565b631e4fbdf760e01b600052600060045260246000fd5b6001600160a01b0316908115611365576001600160a01b03169182156102ba576000828152600080516020611461833981519152602052604081205482811061134b5791604082827fddf252ad1be2c89b69c2b068fc378daa952ba7f163c4a11628f55a4df523b3ef95876020965260008051602061146183398151915286520382822055868152600080516020611461833981519152845220818154019055604051908152a3565b916064928463391434e360e21b8452600452602452604452fd5b634b637e8f60e11b600052600060045260246000fd5b6000805160206114a1833981519152546001600160a01b0316330361139c57565b63118cdaa760e01b6000523360045260246000fd5b60ff6000805160206115018339815191525460401c16156113ce57565b631afcd79f60e31b60005260046000fd5b9061140557508051156113f457805190602001fd5b63d6bda27560e01b60005260046000fd5b81511580611437575b611416575090565b639996b31560e01b60009081526001600160a01b0391909116600452602490fd5b50803b1561140e56fe52c63247e1f47db19d5ce0460030c497f067ca4cebf71ba98eeadabe20bace0352c63247e1f47db19d5ce0460030c497f067ca4cebf71ba98eeadabe20bace0052c63247e1f47db19d5ce0460030c497f067ca4cebf71ba98eeadabe20bace049016d09d72d40fdae2fd8ceac6b6234c7706214fd39c1cd1e609a0528c19930052c63247e1f47db19d5ce0460030c497f067ca4cebf71ba98eeadabe20bace02360894a13ba1a3210667c828492db98dca3e2076cc3735a920a3ca505d382bbcf0c57e16840df040f15088dc2f81fe391c3923bec73e23a9662efc9c229c6a00a26469706673582212208103bcaba80cae71380e82137bbf3621639bb054c3d50aef4b56b7192224681a64736f6c634300081e0033",
  "linkReferences": {},
  "deployedLinkReferences": {}
}