{
  "_format": "hh-sol-artifact-1",
  "contractName": "NovaPoints",
  "sourceName": "contracts/NovaPoints.sol",
  "abi": [
    {
      "inputs": [],
      "stateMutability": "nonpayable",
      "type": "constructor"
    },
    {
      "inputs": [
        {
          "internalType": "address",
          "name": "target",
          "type": "address"
        }
      ],
      "name": "AddressEmptyCode",
      "type": "error"
    },
    {
      "inputs": [
        {
          "internalType": "address",
          "name": "implementation",
          "type": "address"
        }
      ],
      "name": "ERC1967InvalidImplementation",
      "type": "error"
    },
    {
      "inputs": [],
      "name": "ERC1967NonPayable",
      "type": "error"
    },
    {
      "inputs": [],
      "name": "FailedCall",
      "type": "error"
    },
    {
      "inputs": [],
      "name": "InvalidInitialization",
      "type": "error"
    },
    {
      "inputs": [],
      "name": "NotInitializing",
      "type": "error"
    },
    {
      "inputs": [
        {
          "internalType": "address",
          "name": "owner",
          "type": "address"
        }
      ],
      "name": "OwnableInvalidOwner",
      "type": "error"
    },
    {
      "inputs": [
        {
          "internalType": "address",
          "name": "account",
          "type": "address"
        }
      ],
      "name": "OwnableUnauthorizedAccount",
      "type": "error"
    },
    {
      "inputs": [],
      "name": "UUPSUnauthorizedCallContext",
      "type": "error"
    },
    {
      "inputs": [
        {
          "internalType": "bytes32",
          "name": "slot",
          "type": "bytes32"
        }
      ],
      "name": "UUPSUnsupportedProxiableUUID",
      "type": "error"
    },
    {
      "anonymous": false,
      "inputs": [
        {
          "indexed": false,
          "internalType": "uint64",
          "name": "version",
          "type": "uint64"
        }
      ],
      "name": "Initialized",
      "type": "event"
    },
    {
      "anonymous": false,
      "inputs": [
        {
          "indexed": true,
          "internalType": "address",
          "name": "previousOwner",
          "type": "address"
        },
        {
          "indexed": true,
          "internalType": "address",
          "name": "newOwner",
          "type": "address"
        }
      ],
      "name": "OwnershipTransferred",
      "type": "event"
    },
    {
      "anonymous": false,
      "inputs": [
        {
          "indexed": true,
          "internalType": "address",
          "name": "user",
          "type": "address"
        },
        {
          "indexed": false,
          "internalType": "uint256",
          "name": "newBalance",
          "type": "uint256"
        },
        {
          "indexed": false,
          "internalType": "int256",
          "name": "change",
          "type": "int256"
        }
      ],
      "name": "PointsAdjusted",
      "type": "event"
    },
    {
      "anonymous": false,
      "inputs": [
        {
          "indexed": true,
          "internalType": "address",
          "name": "implementation",
          "type": "address"
        }
      ],
      "name": "Upgraded",
      "type": "event"
    },
    {
      "inputs": [],
      "name": "UPGRADE_INTERFACE_VERSION",
      "outputs": [
        {
          "internalType": "string",
          "name": "",
          "type": "string"
        }
      ],
      "stateMutability": "view",
      "type": "function"
    },
    {
      "inputs": [
        {
          "internalType": "address",
          "name": "user",
          "type": "address"
        },
        {
          "internalType": "int256",
          "name": "amount",
          "type": "int256"
        }
      ],
      "name": "adjustPoints",
      "outputs": [],
      "stateMutability": "nonpayable",
      "type": "function"
    },
    {
      "inputs": [
        {
          "internalType": "address",
          "name": "initialOwner",
          "type": "address"
        }
      ],
      "name": "initialize",
      "outputs": [],
      "stateMutability": "nonpayable",
      "type": "function"
    },
    {
      "inputs": [],
      "name": "owner",
      "outputs": [
        {
          "internalType": "address",
          "name": "",
          "type": "address"
        }
      ],
      "stateMutability": "view",
      "type": "function"
    },
    {
      "inputs": [
        {
          "internalType": "address",
          "name": "",
          "type": "address"
        }
      ],
      "name": "points",
      "outputs": [
        {
          "internalType": "uint256",
          "name": "",
          "type": "uint256"
        }
      ],
      "stateMutability": "view",
      "type": "function"
    },
    {
      "inputs": [],
      "name": "proxiableUUID",
      "outputs": [
        {
          "internalType": "bytes32",
          "name": "",
          "type": "bytes32"
        }
      ],
      "stateMutability": "view",
      "type": "function"
    },
    {
      "inputs": [],
      "name": "renounceOwnership",
      "outputs": [],
      "stateMutability": "nonpayable",
      "type": "function"
    },
    {
      "inputs": [
        {
          "internalType": "address",
          "name": "newOwner",
          "type": "address"
        }
      ],
      "name": "transferOwnership",
      "outputs": [],
      "stateMutability": "nonpayable",
      "type": "function"
    },
    {
      "inputs": [
        {
          "internalType": "address",
          "name": "newImplementation",
          "type": "address"
        },
        {
          "internalType": "bytes",
          "name": "data",
          "type": "bytes"
        }
      ],
      "name": "upgradeToAndCall",
      "outputs": [],
      "stateMutability": "payable",
      "type": "function"
    }
  ],
  "bytecode": "0x60a080604052346100ea57306080527ff0c57e16840df040f15088dc2f81fe391c3923bec73e23a9662efc9c229c6a005460ff8160401c166100d9576002600160401b03196001600160401b03821601610073575b60405161099590816100f0823960805181818161048c01526105600152f35b6001600160401b0319166001600160401b039081177ff0c57e16840df040f15088dc2f81fe391c3923bec73e23a9662efc9c229c6a005581527fc7f505b2f371ae2175ee4913f4499e1f2633a7b5936321eed1cdaeb6115181d290602090a13880610054565b63f92ee8a960e01b60005260046000fd5b600080fdfe608080604052600436101561001357600080fd5b60003560e01c908163358b816614610724575080634f1ef286146104e357806352d1902d1461047957806361a8525b14610325578063715018a6146102bb5780638da5cb5b14610285578063ad3cb1cc14610209578063c4d66de8146100b25763f2fde38b1461008257600080fd5b346100ad5760203660031901126100ad576100ab61009e61075a565b6100a661083a565b6107c4565b005b600080fd5b346100ad5760203660031901126100ad576100cb61075a565b6000805160206109408339815191525460ff8160401c16159167ffffffffffffffff821680159081610201575b60011490816101f7575b1590816101ee575b506101dd5767ffffffffffffffff1982166001176000805160206109408339815191525561014991836101b0575b50610141610870565b6100a6610870565b610151610870565b61015757005b68ff0000000000000000196000805160206109408339815191525416600080516020610940833981519152557fc7f505b2f371ae2175ee4913f4499e1f2633a7b5936321eed1cdaeb6115181d2602060405160018152a1005b68ffffffffffffffffff191668010000000000000001176000805160206109408339815191525583610138565b63f92ee8a960e01b60005260046000fd5b9050158461010a565b303b159150610102565b8491506100f8565b346100ad5760003660031901126100ad5760408051906102298183610770565b60058252640352e302e360dc1b6020830152805180926020825280519081602084015260005b82811061026e5750506000828201840152601f01601f19168101030190f35b60208282018101518783018701528694500161024f565b346100ad5760003660031901126100ad57600080516020610900833981519152546040516001600160a01b039091168152602090f35b346100ad5760003660031901126100ad576102d461083a565b60008051602061090083398151915280546001600160a01b031981169091556000906001600160a01b03167f8be0079c531659141344cd1fd0a4f28419497f9722a3daafe3b4186f6b6457e08280a3005b346100ad5760403660031901126100ad5761033e61075a565b6024359061034a61083a565b6001600160a01b0316600081815260208190526040812054919291908213156103dd578181018091116103c7577ff72fdf42eaf4f047d74ee4b8aea582a056d72f7053d8044967961cb275c615a19160409184600052600060205282600020555b83600052600060205281600020549082519182526020820152a2005b634e487b7160e01b600052601160045260246000fd5b600160ff1b82146103c757816000038110610434578181019081116103c7577ff72fdf42eaf4f047d74ee4b8aea582a056d72f7053d8044967961cb275c615a19160409184600052600060205282600020556103ab565b60405162461bcd60e51b815260206004820152601d60248201527f506f696e74733a20496e73756666696369656e742062616c616e63652e0000006044820152606490fd5b346100ad5760003660031901126100ad577f00000000000000000000000000000000000000000000000000000000000000006001600160a01b031630036104d25760206040516000805160206109208339815191528152f35b63703e46dd60e11b60005260046000fd5b60403660031901126100ad576104f761075a565b6024359067ffffffffffffffff82116100ad57366023830112156100ad57816004013590610524826107a8565b916105326040519384610770565b808352602083019336602483830101116100ad57816000926024602093018737840101526001600160a01b037f000000000000000000000000000000000000000000000000000000000000000016308114908115610701575b506104d25761059861083a565b6040516352d1902d60e01b81526001600160a01b0382169390602081600481885afa600091816106cd575b506105dd5784634c9c8ce360e01b60005260045260246000fd5b806000805160206109208339815191528692036106b95750823b156106a55760008051602061092083398151915280546001600160a01b031916821790557fbc7cd75a20ee27fd9adebab32041f755214dbc6bffa90cc0225b39da2e5c2d3b600080a282511561068a57600080916100ab945190845af43d15610682573d91610665836107a8565b926106736040519485610770565b83523d6000602085013e61089e565b60609161089e565b5050503461069457005b63b398979f60e01b60005260046000fd5b634c9c8ce360e01b60005260045260246000fd5b632a87526960e21b60005260045260246000fd5b9091506020813d6020116106f9575b816106e960209383610770565b810103126100ad575190866105c3565b3d91506106dc565b600080516020610920833981519152546001600160a01b0316141590508461058b565b346100ad5760203660031901126100ad576020906001600160a01b0361074861075a565b16600052600082526040600020548152f35b600435906001600160a01b03821682036100ad57565b90601f8019910116810190811067ffffffffffffffff82111761079257604052565b634e487b7160e01b600052604160045260246000fd5b67ffffffffffffffff811161079257601f01601f191660200190565b6001600160a01b031680156108245760008051602061090083398151915280546001600160a01b0319811683179091556001600160a01b03167f8be0079c531659141344cd1fd0a4f28419497f9722a3daafe3b4186f6b6457e0600080a3565b631e4fbdf760e01b600052600060045260246000fd5b600080516020610900833981519152546001600160a01b0316330361085b57565b63118cdaa760e01b6000523360045260246000fd5b60ff6000805160206109408339815191525460401c161561088d57565b631afcd79f60e31b60005260046000fd5b906108c457508051156108b357805190602001fd5b63d6bda27560e01b60005260046000fd5b815115806108f6575b6108d5575090565b639996b31560e01b60009081526001600160a01b0391909116600452602490fd5b50803b156108cd56fe9016d09d72d40fdae2fd8ceac6b6234c7706214fd39c1cd1e609a0528c199300360894a13ba1a3210667c828492db98dca3e2076cc3735a920a3ca505d382bbcf0c57e16840df040f15088dc2f81fe391c3923bec73e23a9662efc9c229c6a00a2646970667358221220a0119044a2c79fa372fc8dadfd817431617dac6b9d5d07db90d3ee27ac61430f64736f6c634300081e0033",
  "linkReferences": {},
  "deployedLinkReferences": {}
}