{
  "_format": "hh-sol-artifact-1",
  "contractName": "NovaGameBridge",
  "sourceName": "contracts/NovaGameBridge.sol",
  "abi": [
    {
      "inputs": [],
      "stateMutability": "nonpayable",
      "type": "constructor"
    },
    {
      "inputs": [
        {
          "internalType": "address",
          "name": "target",
          "type": "address"
        }
      ],
      "name": "AddressEmptyCode",
      "type": "error"
    },
    {
      "inputs": [
        {
          "internalType": "address",
          "name": "implementation",
          "type": "address"
        }
      ],
      "name": "ERC1967InvalidImplementation",
      "type": "error"
    },
    {
      "inputs": [],
      "name": "ERC1967NonPayable",
      "type": "error"
    },
    {
      "inputs": [],
      "name": "FailedCall",
      "type": "error"
    },
    {
      "inputs": [],
      "name": "InvalidInitialization",
      "type": "error"
    },
    {
      "inputs": [],
      "name": "NotInitializing",
      "type": "error"
    },
    {
      "inputs": [
        {
          "internalType": "address",
          "name": "owner",
          "type": "address"
        }
      ],
      "name": "OwnableInvalidOwner",
      "type": "error"
    },
    {
      "inputs": [
        {
          "internalType": "address",
          "name": "account",
          "type": "address"
        }
      ],
      "name": "OwnableUnauthorizedAccount",
      "type": "error"
    },
    {
      "inputs": [],
      "name": "UUPSUnauthorizedCallContext",
      "type": "error"
    },
    {
      "inputs": [
        {
          "internalType": "bytes32",
          "name": "slot",
          "type": "bytes32"
        }
      ],
      "name": "UUPSUnsupportedProxiableUUID",
      "type": "error"
    },
    {
      "anonymous": false,
      "inputs": [
        {
          "indexed": false,
          "internalType": "uint64",
          "name": "version",
          "type": "uint64"
        }
      ],
      "name": "Initialized",
      "type": "event"
    },
    {
      "anonymous": false,
      "inputs": [
        {
          "indexed": true,
          "internalType": "address",
          "name": "previousOwner",
          "type": "address"
        },
        {
          "indexed": true,
          "internalType": "address",
          "name": "newOwner",
          "type": "address"
        }
      ],
      "name": "OwnershipTransferred",
      "type": "event"
    },
    {
      "anonymous": false,
      "inputs": [
        {
          "indexed": true,
          "internalType": "address",
          "name": "implementation",
          "type": "address"
        }
      ],
      "name": "Upgraded",
      "type": "event"
    },
    {
      "inputs": [],
      "name": "UPGRADE_INTERFACE_VERSION",
      "outputs": [
        {
          "internalType": "string",
          "name": "",
          "type": "string"
        }
      ],
      "stateMutability": "view",
      "type": "function"
    },
    {
      "inputs": [
        {
          "internalType": "address",
          "name": "initialOwner",
          "type": "address"
        }
      ],
      "name": "initialize",
      "outputs": [],
      "stateMutability": "nonpayable",
      "type": "function"
    },
    {
      "inputs": [],
      "name": "owner",
      "outputs": [
        {
          "internalType": "address",
          "name": "",
          "type": "address"
        }
      ],
      "stateMutability": "view",
      "type": "function"
    },
    {
      "inputs": [],
      "name": "proxiableUUID",
      "outputs": [
        {
          "internalType": "bytes32",
          "name": "",
          "type": "bytes32"
        }
      ],
      "stateMutability": "view",
      "type": "function"
    },
    {
      "inputs": [],
      "name": "renounceOwnership",
      "outputs": [],
      "stateMutability": "nonpayable",
      "type": "function"
    },
    {
      "inputs": [
        {
          "internalType": "address",
          "name": "newOwner",
          "type": "address"
        }
      ],
      "name": "transferOwnership",
      "outputs": [],
      "stateMutability": "nonpayable",
      "type": "function"
    },
    {
      "inputs": [
        {
          "internalType": "address",
          "name": "newImplementation",
          "type": "address"
        },
        {
          "internalType": "bytes",
          "name": "data",
          "type": "bytes"
        }
      ],
      "name": "upgradeToAndCall",
      "outputs": [],
      "stateMutability": "payable",
      "type": "function"
    }
  ],
  "bytecode": "0x60a080604052346100ea57306080527ff0c57e16840df040f15088dc2f81fe391c3923bec73e23a9662efc9c229c6a005460ff8160401c166100d9576002600160401b03196001600160401b03821601610073575b6040516107f290816100f0823960805181818161031f01526103f30152f35b6001600160401b0319166001600160401b039081177ff0c57e16840df040f15088dc2f81fe391c3923bec73e23a9662efc9c229c6a005581527fc7f505b2f371ae2175ee4913f4499e1f2633a7b5936321eed1cdaeb6115181d290602090a13880610054565b63f92ee8a960e01b60005260046000fd5b600080fdfe6080604052600436101561001257600080fd5b60003560e01c80634f1ef2861461037657806352d1902d1461030c578063715018a6146102a25780638da5cb5b1461026c578063ad3cb1cc146101f0578063c4d66de8146100995763f2fde38b1461006957600080fd5b34610094576020366003190112610094576100926100856105b7565b61008d610697565b610621565b005b600080fd5b34610094576020366003190112610094576100b26105b7565b60008051602061079d8339815191525460ff8160401c16159167ffffffffffffffff8216801590816101e8575b60011490816101de575b1590816101d5575b506101c45767ffffffffffffffff19821660011760008051602061079d833981519152556101309183610197575b506101286106cd565b61008d6106cd565b6101386106cd565b61013e57005b68ff00000000000000001960008051602061079d833981519152541660008051602061079d833981519152557fc7f505b2f371ae2175ee4913f4499e1f2633a7b5936321eed1cdaeb6115181d2602060405160018152a1005b68ffffffffffffffffff1916680100000000000000011760008051602061079d833981519152558361011f565b63f92ee8a960e01b60005260046000fd5b905015846100f1565b303b1591506100e9565b8491506100df565b3461009457600036600319011261009457604080519061021081836105cd565b60058252640352e302e360dc1b6020830152805180926020825280519081602084015260005b8281106102555750506000828201840152601f01601f19168101030190f35b602082820181015187830187015286945001610236565b346100945760003660031901126100945760008051602061075d833981519152546040516001600160a01b039091168152602090f35b34610094576000366003190112610094576102bb610697565b60008051602061075d83398151915280546001600160a01b031981169091556000906001600160a01b03167f8be0079c531659141344cd1fd0a4f28419497f9722a3daafe3b4186f6b6457e08280a3005b34610094576000366003190112610094577f00000000000000000000000000000000000000000000000000000000000000006001600160a01b0316300361036557602060405160008051602061077d8339815191528152f35b63703e46dd60e11b60005260046000fd5b60403660031901126100945761038a6105b7565b6024359067ffffffffffffffff82116100945736602383011215610094578160040135906103b782610605565b916103c560405193846105cd565b8083526020830193366024838301011161009457816000926024602093018737840101526001600160a01b037f000000000000000000000000000000000000000000000000000000000000000016308114908115610594575b506103655761042b610697565b6040516352d1902d60e01b81526001600160a01b0382169390602081600481885afa60009181610560575b506104705784634c9c8ce360e01b60005260045260246000fd5b8060008051602061077d83398151915286920361054c5750823b156105385760008051602061077d83398151915280546001600160a01b031916821790557fbc7cd75a20ee27fd9adebab32041f755214dbc6bffa90cc0225b39da2e5c2d3b600080a282511561051d5760008091610092945190845af43d15610515573d916104f883610605565b9261050660405194856105cd565b83523d6000602085013e6106fb565b6060916106fb565b5050503461052757005b63b398979f60e01b60005260046000fd5b634c9c8ce360e01b60005260045260246000fd5b632a87526960e21b60005260045260246000fd5b9091506020813d60201161058c575b8161057c602093836105cd565b8101031261009457519086610456565b3d915061056f565b60008051602061077d833981519152546001600160a01b0316141590508461041e565b600435906001600160a01b038216820361009457565b90601f8019910116810190811067ffffffffffffffff8211176105ef57604052565b634e487b7160e01b600052604160045260246000fd5b67ffffffffffffffff81116105ef57601f01601f191660200190565b6001600160a01b031680156106815760008051602061075d83398151915280546001600160a01b0319811683179091556001600160a01b03167f8be0079c531659141344cd1fd0a4f28419497f9722a3daafe3b4186f6b6457e0600080a3565b631e4fbdf760e01b600052600060045260246000fd5b60008051602061075d833981519152546001600160a01b031633036106b857565b63118cdaa760e01b6000523360045260246000fd5b60ff60008051602061079d8339815191525460401c16156106ea57565b631afcd79f60e31b60005260046000fd5b90610721575080511561071057805190602001fd5b63d6bda27560e01b60005260046000fd5b81511580610753575b610732575090565b639996b31560e01b60009081526001600160a01b0391909116600452602490fd5b50803b1561072a56fe9016d09d72d40fdae2fd8ceac6b6234c7706214fd39c1cd1e609a0528c199300360894a13ba1a3210667c828492db98dca3e2076cc3735a920a3ca505d382bbcf0c57e16840df040f15088dc2f81fe391c3923bec73e23a9662efc9c229c6a00a2646970667358221220fe167e609da5d28e4de154cbd158ade6305d3ebe2521cb516cb164b4dd8f6eb864736f6c634300081e0033",
  "linkReferences": {},
  "deployedLinkReferences": {}
}