{
  "_format": "hh-sol-artifact-1",
  "contractName": "NovaNameService",
  "sourceName": "contracts/NovaNameService.sol",
  "abi": [
    {
      "inputs": [],
      "stateMutability": "nonpayable",
      "type": "constructor"
    },
    {
      "inputs": [
        {
          "internalType": "address",
          "name": "target",
          "type": "address"
        }
      ],
      "name": "AddressEmptyCode",
      "type": "error"
    },
    {
      "inputs": [
        {
          "internalType": "address",
          "name": "implementation",
          "type": "address"
        }
      ],
      "name": "ERC1967InvalidImplementation",
      "type": "error"
    },
    {
      "inputs": [],
      "name": "ERC1967NonPayable",
      "type": "error"
    },
    {
      "inputs": [],
      "name": "FailedCall",
      "type": "error"
    },
    {
      "inputs": [],
      "name": "InvalidInitialization",
      "type": "error"
    },
    {
      "inputs": [],
      "name": "NotInitializing",
      "type": "error"
    },
    {
      "inputs": [
        {
          "internalType": "address",
          "name": "owner",
          "type": "address"
        }
      ],
      "name": "OwnableInvalidOwner",
      "type": "error"
    },
    {
      "inputs": [
        {
          "internalType": "address",
          "name": "account",
          "type": "address"
        }
      ],
      "name": "OwnableUnauthorizedAccount",
      "type": "error"
    },
    {
      "inputs": [],
      "name": "UUPSUnauthorizedCallContext",
      "type": "error"
    },
    {
      "inputs": [
        {
          "internalType": "bytes32",
          "name": "slot",
          "type": "bytes32"
        }
      ],
      "name": "UUPSUnsupportedProxiableUUID",
      "type": "error"
    },
    {
      "anonymous": false,
      "inputs": [
        {
          "indexed": false,
          "internalType": "uint64",
          "name": "version",
          "type": "uint64"
        }
      ],
      "name": "Initialized",
      "type": "event"
    },
    {
      "anonymous": false,
      "inputs": [
        {
          "indexed": false,
          "internalType": "string",
          "name": "name",
          "type": "string"
        },
        {
          "indexed": true,
          "internalType": "address",
          "name": "owner",
          "type": "address"
        }
      ],
      "name": "NameRegistered",
      "type": "event"
    },
    {
      "anonymous": false,
      "inputs": [
        {
          "indexed": true,
          "internalType": "address",
          "name": "previousOwner",
          "type": "address"
        },
        {
          "indexed": true,
          "internalType": "address",
          "name": "newOwner",
          "type": "address"
        }
      ],
      "name": "OwnershipTransferred",
      "type": "event"
    },
    {
      "anonymous": false,
      "inputs": [
        {
          "indexed": true,
          "internalType": "address",
          "name": "implementation",
          "type": "address"
        }
      ],
      "name": "Upgraded",
      "type": "event"
    },
    {
      "inputs": [],
      "name": "UPGRADE_INTERFACE_VERSION",
      "outputs": [
        {
          "internalType": "string",
          "name": "",
          "type": "string"
        }
      ],
      "stateMutability": "view",
      "type": "function"
    },
    {
      "inputs": [
        {
          "internalType": "address",
          "name": "",
          "type": "address"
        }
      ],
      "name": "addressToName",
      "outputs": [
        {
          "internalType": "string",
          "name": "",
          "type": "string"
        }
      ],
      "stateMutability": "view",
      "type": "function"
    },
    {
      "inputs": [
        {
          "internalType": "address",
          "name": "initialOwner",
          "type": "address"
        }
      ],
      "name": "initialize",
      "outputs": [],
      "stateMutability": "nonpayable",
      "type": "function"
    },
    {
      "inputs": [
        {
          "internalType": "bytes32",
          "name": "",
          "type": "bytes32"
        }
      ],
      "name": "nameToAddress",
      "outputs": [
        {
          "internalType": "address",
          "name": "",
          "type": "address"
        }
      ],
      "stateMutability": "view",
      "type": "function"
    },
    {
      "inputs": [],
      "name": "owner",
      "outputs": [
        {
          "internalType": "address",
          "name": "",
          "type": "address"
        }
      ],
      "stateMutability": "view",
      "type": "function"
    },
    {
      "inputs": [],
      "name": "proxiableUUID",
      "outputs": [
        {
          "internalType": "bytes32",
          "name": "",
          "type": "bytes32"
        }
      ],
      "stateMutability": "view",
      "type": "function"
    },
    {
      "inputs": [
        {
          "internalType": "string",
          "name": "name",
          "type": "string"
        }
      ],
      "name": "registerName",
      "outputs": [],
      "stateMutability": "nonpayable",
      "type": "function"
    },
    {
      "inputs": [],
      "name": "renounceOwnership",
      "outputs": [],
      "stateMutability": "nonpayable",
      "type": "function"
    },
    {
      "inputs": [
        {
          "internalType": "string",
          "name": "name",
          "type": "string"
        }
      ],
      "name": "resolveName",
      "outputs": [
        {
          "internalType": "address",
          "name": "",
          "type": "address"
        }
      ],
      "stateMutability": "view",
      "type": "function"
    },
    {
      "inputs": [
        {
          "internalType": "address",
          "name": "newOwner",
          "type": "address"
        }
      ],
      "name": "transferOwnership",
      "outputs": [],
      "stateMutability": "nonpayable",
      "type": "function"
    },
    {
      "inputs": [
        {
          "internalType": "address",
          "name": "newImplementation",
          "type": "address"
        },
        {
          "internalType": "bytes",
          "name": "data",
          "type": "bytes"
        }
      ],
      "name": "upgradeToAndCall",
      "outputs": [],
      "stateMutability": "payable",
      "type": "function"
    }
  ],
  "bytecode": "0x60a080604052346100ea57306080527ff0c57e16840df040f15088dc2f81fe391c3923bec73e23a9662efc9c229c6a005460ff8160401c166100d9576002600160401b03196001600160401b03821601610073575b604051610cb990816100f0823960805181818161044c01526105200152f35b6001600160401b0319166001600160401b039081177ff0c57e16840df040f15088dc2f81fe391c3923bec73e23a9662efc9c229c6a005581527fc7f505b2f371ae2175ee4913f4499e1f2633a7b5936321eed1cdaeb6115181d290602090a13880610054565b63f92ee8a960e01b60005260046000fd5b600080fdfe608080604052600436101561001357600080fd5b60003560e01c9081630830602b14610718575080634bac8c8d146106e45780634f1ef286146104a357806352d1902d14610439578063715018a6146103cf5780638da5cb5b14610399578063ad3cb1cc1461035a578063bc19bce514610301578063c4d66de8146101aa578063e2a04b62146100c85763f2fde38b1461009857600080fd5b346100c35760203660031901126100c3576100c16100b4610a11565b6100bc610b5e565b610ae8565b005b600080fd5b346100c35760203660031901126100c3576001600160a01b036100e9610a11565b16600052600160205260406000206040519060009080549061010a82610aae565b80855291600181169081156101835750600114610142575b61013e8461013281860382610a27565b60405191829182610a65565b0390f35b600090815260208120939250905b8082106101695750909150810160200161013282610122565b919260018160209254838588010152019101909291610150565b60ff191660208087019190915292151560051b850190920192506101329150839050610122565b346100c35760203660031901126100c3576101c3610a11565b600080516020610c648339815191525460ff8160401c16159167ffffffffffffffff8216801590816102f9575b60011490816102ef575b1590816102e6575b506102d55767ffffffffffffffff198216600117600080516020610c648339815191525561024191836102a8575b50610239610b94565b6100bc610b94565b610249610b94565b61024f57005b68ff000000000000000019600080516020610c648339815191525416600080516020610c64833981519152557fc7f505b2f371ae2175ee4913f4499e1f2633a7b5936321eed1cdaeb6115181d2602060405160018152a1005b68ffffffffffffffffff19166801000000000000000117600080516020610c648339815191525583610230565b63f92ee8a960e01b60005260046000fd5b90501584610202565b303b1591506101fa565b8491506101f0565b346100c35761030f366109c0565b610337602060405183819483830196873781016000838201520301601f198101835282610a27565b5190206000526000602052602060018060a01b0360406000205416604051908152f35b346100c35760003660031901126100c35761013e604080519061037d8183610a27565b60058252640352e302e360dc1b60208301525191829182610a65565b346100c35760003660031901126100c357600080516020610c24833981519152546040516001600160a01b039091168152602090f35b346100c35760003660031901126100c3576103e8610b5e565b600080516020610c2483398151915280546001600160a01b031981169091556000906001600160a01b03167f8be0079c531659141344cd1fd0a4f28419497f9722a3daafe3b4186f6b6457e08280a3005b346100c35760003660031901126100c3577f00000000000000000000000000000000000000000000000000000000000000006001600160a01b03163003610492576020604051600080516020610c448339815191528152f35b63703e46dd60e11b60005260046000fd5b60403660031901126100c3576104b7610a11565b6024359067ffffffffffffffff82116100c357366023830112156100c3578160040135906104e482610a49565b916104f26040519384610a27565b808352602083019336602483830101116100c357816000926024602093018737840101526001600160a01b037f0000000000000000000000000000000000000000000000000000000000000000163081149081156106c1575b5061049257610558610b5e565b6040516352d1902d60e01b81526001600160a01b0382169390602081600481885afa6000918161068d575b5061059d5784634c9c8ce360e01b60005260045260246000fd5b80600080516020610c448339815191528692036106795750823b1561066557600080516020610c4483398151915280546001600160a01b031916821790557fbc7cd75a20ee27fd9adebab32041f755214dbc6bffa90cc0225b39da2e5c2d3b600080a282511561064a57600080916100c1945190845af43d15610642573d9161062583610a49565b926106336040519485610a27565b83523d6000602085013e610bc2565b606091610bc2565b5050503461065457005b63b398979f60e01b60005260046000fd5b634c9c8ce360e01b60005260045260246000fd5b632a87526960e21b60005260045260246000fd5b9091506020813d6020116106b9575b816106a960209383610a27565b810103126100c357519086610583565b3d915061069c565b600080516020610c44833981519152546001600160a01b0316141590508461054b565b346100c35760203660031901126100c3576004356000526000602052602060018060a01b0360406000205416604051908152f35b346100c357610726366109c0565b909160208101908284833761074f6020828581016000838201520301601f198101835282610a27565b5190206000818152602081905260409020546001600160a01b031661098557336000526001602052610785604060002054610aae565b6109495760005260006020526040600020336bffffffffffffffffffffffff60a01b82541617905533600052600160205260406000209167ffffffffffffffff8211610933576107d58354610aae565b601f81116108eb575b50600092601f831160011461086957827f1c6eac0e720ec22bb0653aec9c19985633a4fb07971cf973096c2f8e3c37c17f939460009161085e575b508460011b906000198660031b1c19161790555b82604051916020835281602084015260408301376000604084830101526040813394601f80199101168101030190a2005b905082013585610819565b80845260208420601f19841694805b8681106108d35750847f1c6eac0e720ec22bb0653aec9c19985633a4fb07971cf973096c2f8e3c37c17f9596106108b9575b5050600184811b01905561082d565b830135600019600387901b60f8161c1916905584806108aa565b90916020600181928588013581550193019101610878565b836000526020600020601f840160051c81019160208510610929575b601f0160051c01905b81811061091d57506107de565b60008155600101610910565b9091508190610907565b634e487b7160e01b600052604160045260246000fd5b60405162461bcd60e51b81526020600482015260146024820152732730b6b2a9b2b93b34b1b29d1022bc34b9ba399760611b6044820152606490fd5b60405162461bcd60e51b81526020600482015260136024820152722730b6b2a9b2b93b34b1b29d102a30b5b2b71760691b6044820152606490fd5b9060206003198301126100c35760043567ffffffffffffffff81116100c357826023820112156100c35780600401359267ffffffffffffffff84116100c357602484830101116100c3576024019190565b600435906001600160a01b03821682036100c357565b90601f8019910116810190811067ffffffffffffffff82111761093357604052565b67ffffffffffffffff811161093357601f01601f191660200190565b91909160208152825180602083015260005b818110610a98575060409293506000838284010152601f8019910116010190565b8060208092870101516040828601015201610a77565b90600182811c92168015610ade575b6020831014610ac857565b634e487b7160e01b600052602260045260246000fd5b91607f1691610abd565b6001600160a01b03168015610b4857600080516020610c2483398151915280546001600160a01b0319811683179091556001600160a01b03167f8be0079c531659141344cd1fd0a4f28419497f9722a3daafe3b4186f6b6457e0600080a3565b631e4fbdf760e01b600052600060045260246000fd5b600080516020610c24833981519152546001600160a01b03163303610b7f57565b63118cdaa760e01b6000523360045260246000fd5b60ff600080516020610c648339815191525460401c1615610bb157565b631afcd79f60e31b60005260046000fd5b90610be85750805115610bd757805190602001fd5b63d6bda27560e01b60005260046000fd5b81511580610c1a575b610bf9575090565b639996b31560e01b60009081526001600160a01b0391909116600452602490fd5b50803b15610bf156fe9016d09d72d40fdae2fd8ceac6b6234c7706214fd39c1cd1e609a0528c199300360894a13ba1a3210667c828492db98dca3e2076cc3735a920a3ca505d382bbcf0c57e16840df040f15088dc2f81fe391c3923bec73e23a9662efc9c229c6a00a2646970667358221220167a161ab45598cd99fc82413ba8853c1ad8d670217845cd7b9b77ebfec1461a64736f6c634300081e0033",
  "linkReferences": {},
  "deployedLinkReferences": {}
}