{
  "_format": "hh-sol-artifact-1",
  "contractName": "NovaKYCVerifier",
  "sourceName": "contracts/NovaKYCVerifier.sol",
  "abi": [
    {
      "inputs": [],
      "stateMutability": "nonpayable",
      "type": "constructor"
    },
    {
      "inputs": [
        {
          "internalType": "address",
          "name": "target",
          "type": "address"
        }
      ],
      "name": "AddressEmptyCode",
      "type": "error"
    },
    {
      "inputs": [
        {
          "internalType": "address",
          "name": "implementation",
          "type": "address"
        }
      ],
      "name": "ERC1967InvalidImplementation",
      "type": "error"
    },
    {
      "inputs": [],
      "name": "ERC1967NonPayable",
      "type": "error"
    },
    {
      "inputs": [],
      "name": "FailedCall",
      "type": "error"
    },
    {
      "inputs": [],
      "name": "InvalidInitialization",
      "type": "error"
    },
    {
      "inputs": [],
      "name": "NotInitializing",
      "type": "error"
    },
    {
      "inputs": [
        {
          "internalType": "address",
          "name": "owner",
          "type": "address"
        }
      ],
      "name": "OwnableInvalidOwner",
      "type": "error"
    },
    {
      "inputs": [
        {
          "internalType": "address",
          "name": "account",
          "type": "address"
        }
      ],
      "name": "OwnableUnauthorizedAccount",
      "type": "error"
    },
    {
      "inputs": [],
      "name": "UUPSUnauthorizedCallContext",
      "type": "error"
    },
    {
      "inputs": [
        {
          "internalType": "bytes32",
          "name": "slot",
          "type": "bytes32"
        }
      ],
      "name": "UUPSUnsupportedProxiableUUID",
      "type": "error"
    },
    {
      "anonymous": false,
      "inputs": [
        {
          "indexed": false,
          "internalType": "uint64",
          "name": "version",
          "type": "uint64"
        }
      ],
      "name": "Initialized",
      "type": "event"
    },
    {
      "anonymous": false,
      "inputs": [
        {
          "indexed": true,
          "internalType": "address",
          "name": "previousOwner",
          "type": "address"
        },
        {
          "indexed": true,
          "internalType": "address",
          "name": "newOwner",
          "type": "address"
        }
      ],
      "name": "OwnershipTransferred",
      "type": "event"
    },
    {
      "anonymous": false,
      "inputs": [
        {
          "indexed": true,
          "internalType": "address",
          "name": "implementation",
          "type": "address"
        }
      ],
      "name": "Upgraded",
      "type": "event"
    },
    {
      "anonymous": false,
      "inputs": [
        {
          "indexed": true,
          "internalType": "address",
          "name": "user",
          "type": "address"
        },
        {
          "indexed": false,
          "internalType": "bool",
          "name": "status",
          "type": "bool"
        }
      ],
      "name": "UserVerificationSet",
      "type": "event"
    },
    {
      "inputs": [],
      "name": "UPGRADE_INTERFACE_VERSION",
      "outputs": [
        {
          "internalType": "string",
          "name": "",
          "type": "string"
        }
      ],
      "stateMutability": "view",
      "type": "function"
    },
    {
      "inputs": [
        {
          "internalType": "address",
          "name": "initialOwner",
          "type": "address"
        }
      ],
      "name": "initialize",
      "outputs": [],
      "stateMutability": "nonpayable",
      "type": "function"
    },
    {
      "inputs": [
        {
          "internalType": "address",
          "name": "",
          "type": "address"
        }
      ],
      "name": "isVerified",
      "outputs": [
        {
          "internalType": "bool",
          "name": "",
          "type": "bool"
        }
      ],
      "stateMutability": "view",
      "type": "function"
    },
    {
      "inputs": [],
      "name": "owner",
      "outputs": [
        {
          "internalType": "address",
          "name": "",
          "type": "address"
        }
      ],
      "stateMutability": "view",
      "type": "function"
    },
    {
      "inputs": [],
      "name": "proxiableUUID",
      "outputs": [
        {
          "internalType": "bytes32",
          "name": "",
          "type": "bytes32"
        }
      ],
      "stateMutability": "view",
      "type": "function"
    },
    {
      "inputs": [],
      "name": "renounceOwnership",
      "outputs": [],
      "stateMutability": "nonpayable",
      "type": "function"
    },
    {
      "inputs": [
        {
          "internalType": "address",
          "name": "user",
          "type": "address"
        },
        {
          "internalType": "bool",
          "name": "status",
          "type": "bool"
        }
      ],
      "name": "setVerificationStatus",
      "outputs": [],
      "stateMutability": "nonpayable",
      "type": "function"
    },
    {
      "inputs": [
        {
          "internalType": "address",
          "name": "newOwner",
          "type": "address"
        }
      ],
      "name": "transferOwnership",
      "outputs": [],
      "stateMutability": "nonpayable",
      "type": "function"
    },
    {
      "inputs": [
        {
          "internalType": "address",
          "name": "newImplementation",
          "type": "address"
        },
        {
          "internalType": "bytes",
          "name": "data",
          "type": "bytes"
        }
      ],
      "name": "upgradeToAndCall",
      "outputs": [],
      "stateMutability": "payable",
      "type": "function"
    }
  ],
  "bytecode": "0x60a080604052346100ea57306080527ff0c57e16840df040f15088dc2f81fe391c3923bec73e23a9662efc9c229c6a005460ff8160401c166100d9576002600160401b03196001600160401b03821601610073575b6040516108c690816100f082396080518181816103f301526104c70152f35b6001600160401b0319166001600160401b039081177ff0c57e16840df040f15088dc2f81fe391c3923bec73e23a9662efc9c229c6a005581527fc7f505b2f371ae2175ee4913f4499e1f2633a7b5936321eed1cdaeb6115181d290602090a13880610054565b63f92ee8a960e01b60005260046000fd5b600080fdfe6080604052600436101561001257600080fd5b60003560e01c80634f1ef2861461044a57806352d1902d146103e0578063715018a6146103765780638da5cb5b14610340578063ad3cb1cc146102c4578063b9209e3314610285578063c4d66de81461012e578063f2fde38b146101035763fb14a8341461007f57600080fd5b346100fe5760403660031901126100fe5761009861068b565b602435908115158092036100fe5760207f3d6ae3712a9363766d555cd7b05a3d7747e4abce96c276476dd92483e313d676916100d261076b565b60018060a01b0316928360005260008252604060002060ff1981541660ff8316179055604051908152a2005b600080fd5b346100fe5760203660031901126100fe5761012c61011f61068b565b61012761076b565b6106f5565b005b346100fe5760203660031901126100fe5761014761068b565b6000805160206108718339815191525460ff8160401c16159167ffffffffffffffff82168015908161027d575b6001149081610273575b15908161026a575b506102595767ffffffffffffffff198216600117600080516020610871833981519152556101c5918361022c575b506101bd6107a1565b6101276107a1565b6101cd6107a1565b6101d357005b68ff0000000000000000196000805160206108718339815191525416600080516020610871833981519152557fc7f505b2f371ae2175ee4913f4499e1f2633a7b5936321eed1cdaeb6115181d2602060405160018152a1005b68ffffffffffffffffff1916680100000000000000011760008051602061087183398151915255836101b4565b63f92ee8a960e01b60005260046000fd5b90501584610186565b303b15915061017e565b849150610174565b346100fe5760203660031901126100fe576001600160a01b036102a661068b565b166000526000602052602060ff604060002054166040519015158152f35b346100fe5760003660031901126100fe5760408051906102e481836106a1565b60058252640352e302e360dc1b6020830152805180926020825280519081602084015260005b8281106103295750506000828201840152601f01601f19168101030190f35b60208282018101518783018701528694500161030a565b346100fe5760003660031901126100fe57600080516020610831833981519152546040516001600160a01b039091168152602090f35b346100fe5760003660031901126100fe5761038f61076b565b60008051602061083183398151915280546001600160a01b031981169091556000906001600160a01b03167f8be0079c531659141344cd1fd0a4f28419497f9722a3daafe3b4186f6b6457e08280a3005b346100fe5760003660031901126100fe577f00000000000000000000000000000000000000000000000000000000000000006001600160a01b031630036104395760206040516000805160206108518339815191528152f35b63703e46dd60e11b60005260046000fd5b60403660031901126100fe5761045e61068b565b6024359067ffffffffffffffff82116100fe57366023830112156100fe5781600401359061048b826106d9565b9161049960405193846106a1565b808352602083019336602483830101116100fe57816000926024602093018737840101526001600160a01b037f000000000000000000000000000000000000000000000000000000000000000016308114908115610668575b50610439576104ff61076b565b6040516352d1902d60e01b81526001600160a01b0382169390602081600481885afa60009181610634575b506105445784634c9c8ce360e01b60005260045260246000fd5b806000805160206108518339815191528692036106205750823b1561060c5760008051602061085183398151915280546001600160a01b031916821790557fbc7cd75a20ee27fd9adebab32041f755214dbc6bffa90cc0225b39da2e5c2d3b600080a28251156105f1576000809161012c945190845af43d156105e9573d916105cc836106d9565b926105da60405194856106a1565b83523d6000602085013e6107cf565b6060916107cf565b505050346105fb57005b63b398979f60e01b60005260046000fd5b634c9c8ce360e01b60005260045260246000fd5b632a87526960e21b60005260045260246000fd5b9091506020813d602011610660575b81610650602093836106a1565b810103126100fe5751908661052a565b3d9150610643565b600080516020610851833981519152546001600160a01b031614159050846104f2565b600435906001600160a01b03821682036100fe57565b90601f8019910116810190811067ffffffffffffffff8211176106c357604052565b634e487b7160e01b600052604160045260246000fd5b67ffffffffffffffff81116106c357601f01601f191660200190565b6001600160a01b031680156107555760008051602061083183398151915280546001600160a01b0319811683179091556001600160a01b03167f8be0079c531659141344cd1fd0a4f28419497f9722a3daafe3b4186f6b6457e0600080a3565b631e4fbdf760e01b600052600060045260246000fd5b600080516020610831833981519152546001600160a01b0316330361078c57565b63118cdaa760e01b6000523360045260246000fd5b60ff6000805160206108718339815191525460401c16156107be57565b631afcd79f60e31b60005260046000fd5b906107f557508051156107e457805190602001fd5b63d6bda27560e01b60005260046000fd5b81511580610827575b610806575090565b639996b31560e01b60009081526001600160a01b0391909116600452602490fd5b50803b156107fe56fe9016d09d72d40fdae2fd8ceac6b6234c7706214fd39c1cd1e609a0528c199300360894a13ba1a3210667c828492db98dca3e2076cc3735a920a3ca505d382bbcf0c57e16840df040f15088dc2f81fe391c3923bec73e23a9662efc9c229c6a00a26469706673582212201d83d70f9ee943fd035382ee1b12ec2fd55a15eee6a9ae06ca7affdc23b6e80b64736f6c634300081e0033",
  "linkReferences": {},
  "deployedLinkReferences": {}
}