{
  "_format": "hh-sol-artifact-1",
  "contractName": "NovaFeed",
  "sourceName": "contracts/NovaFeed.sol",
  "abi": [
    {
      "inputs": [],
      "stateMutability": "nonpayable",
      "type": "constructor"
    },
    {
      "inputs": [
        {
          "internalType": "address",
          "name": "target",
          "type": "address"
        }
      ],
      "name": "AddressEmptyCode",
      "type": "error"
    },
    {
      "inputs": [
        {
          "internalType": "address",
          "name": "implementation",
          "type": "address"
        }
      ],
      "name": "ERC1967InvalidImplementation",
      "type": "error"
    },
    {
      "inputs": [],
      "name": "ERC1967NonPayable",
      "type": "error"
    },
    {
      "inputs": [],
      "name": "FailedCall",
      "type": "error"
    },
    {
      "inputs": [],
      "name": "InvalidInitialization",
      "type": "error"
    },
    {
      "inputs": [],
      "name": "NotInitializing",
      "type": "error"
    },
    {
      "inputs": [
        {
          "internalType": "address",
          "name": "owner",
          "type": "address"
        }
      ],
      "name": "OwnableInvalidOwner",
      "type": "error"
    },
    {
      "inputs": [
        {
          "internalType": "address",
          "name": "account",
          "type": "address"
        }
      ],
      "name": "OwnableUnauthorizedAccount",
      "type": "error"
    },
    {
      "inputs": [],
      "name": "UUPSUnauthorizedCallContext",
      "type": "error"
    },
    {
      "inputs": [
        {
          "internalType": "bytes32",
          "name": "slot",
          "type": "bytes32"
        }
      ],
      "name": "UUPSUnsupportedProxiableUUID",
      "type": "error"
    },
    {
      "anonymous": false,
      "inputs": [
        {
          "indexed": false,
          "internalType": "uint64",
          "name": "version",
          "type": "uint64"
        }
      ],
      "name": "Initialized",
      "type": "event"
    },
    {
      "anonymous": false,
      "inputs": [
        {
          "indexed": true,
          "internalType": "uint256",
          "name": "postId",
          "type": "uint256"
        },
        {
          "indexed": false,
          "internalType": "enum NovaFeed.PostCategory",
          "name": "category",
          "type": "uint8"
        }
      ],
      "name": "ItemPosted",
      "type": "event"
    },
    {
      "anonymous": false,
      "inputs": [
        {
          "indexed": true,
          "internalType": "address",
          "name": "previousOwner",
          "type": "address"
        },
        {
          "indexed": true,
          "internalType": "address",
          "name": "newOwner",
          "type": "address"
        }
      ],
      "name": "OwnershipTransferred",
      "type": "event"
    },
    {
      "anonymous": false,
      "inputs": [
        {
          "indexed": true,
          "internalType": "address",
          "name": "implementation",
          "type": "address"
        }
      ],
      "name": "Upgraded",
      "type": "event"
    },
    {
      "inputs": [],
      "name": "UPGRADE_INTERFACE_VERSION",
      "outputs": [
        {
          "internalType": "string",
          "name": "",
          "type": "string"
        }
      ],
      "stateMutability": "view",
      "type": "function"
    },
    {
      "inputs": [
        {
          "internalType": "uint256",
          "name": "",
          "type": "uint256"
        }
      ],
      "name": "feedItems",
      "outputs": [
        {
          "internalType": "enum NovaFeed.PostCategory",
          "name": "category",
          "type": "uint8"
        },
        {
          "internalType": "string",
          "name": "contentHash",
          "type": "string"
        },
        {
          "internalType": "uint256",
          "name": "timestamp",
          "type": "uint256"
        }
      ],
      "stateMutability": "view",
      "type": "function"
    },
    {
      "inputs": [],
      "name": "getPostCount",
      "outputs": [
        {
          "internalType": "uint256",
          "name": "",
          "type": "uint256"
        }
      ],
      "stateMutability": "view",
      "type": "function"
    },
    {
      "inputs": [
        {
          "internalType": "address",
          "name": "initialOwner",
          "type": "address"
        }
      ],
      "name": "initialize",
      "outputs": [],
      "stateMutability": "nonpayable",
      "type": "function"
    },
    {
      "inputs": [],
      "name": "owner",
      "outputs": [
        {
          "internalType": "address",
          "name": "",
          "type": "address"
        }
      ],
      "stateMutability": "view",
      "type": "function"
    },
    {
      "inputs": [
        {
          "internalType": "enum NovaFeed.PostCategory",
          "name": "category",
          "type": "uint8"
        },
        {
          "internalType": "string",
          "name": "contentHash",
          "type": "string"
        }
      ],
      "name": "postItem",
      "outputs": [],
      "stateMutability": "nonpayable",
      "type": "function"
    },
    {
      "inputs": [],
      "name": "proxiableUUID",
      "outputs": [
        {
          "internalType": "bytes32",
          "name": "",
          "type": "bytes32"
        }
      ],
      "stateMutability": "view",
      "type": "function"
    },
    {
      "inputs": [],
      "name": "renounceOwnership",
      "outputs": [],
      "stateMutability": "nonpayable",
      "type": "function"
    },
    {
      "inputs": [
        {
          "internalType": "address",
          "name": "newOwner",
          "type": "address"
        }
      ],
      "name": "transferOwnership",
      "outputs": [],
      "stateMutability": "nonpayable",
      "type": "function"
    },
    {
      "inputs": [
        {
          "internalType": "address",
          "name": "newImplementation",
          "type": "address"
        },
        {
          "internalType": "bytes",
          "name": "data",
          "type": "bytes"
        }
      ],
      "name": "upgradeToAndCall",
      "outputs": [],
      "stateMutability": "payable",
      "type": "function"
    }
  ],
  "bytecode": "0x60a080604052346100ea57306080527ff0c57e16840df040f15088dc2f81fe391c3923bec73e23a9662efc9c229c6a005460ff8160401c166100d9576002600160401b03196001600160401b03821601610073575b604051610c3390816100f082396080518181816106cd01526107730152f35b6001600160401b0319166001600160401b039081177ff0c57e16840df040f15088dc2f81fe391c3923bec73e23a9662efc9c229c6a005581527fc7f505b2f371ae2175ee4913f4499e1f2633a7b5936321eed1cdaeb6115181d290602090a13880610054565b63f92ee8a960e01b60005260046000fd5b600080fdfe6080604052600436101561001257600080fd5b60003560e01c80634f1ef2861461072457806352d1902d146106ba578063574d428814610417578063715018a6146103ad5780638da5cb5b14610377578063ad3cb1cc1461032c578063bcc954071461030e578063c4d66de8146101b7578063cbe287ff146100ba5763f2fde38b1461008a57600080fd5b346100b55760203660031901126100b5576100b36100a6610939565b6100ae610ad8565b610a62565b005b600080fd5b346100b55760203660031901126100b5576004356000526000602052604060002060ff81541660018201604051906000908054906100f782610a05565b808552916001811690811561018f5750600114610150575b50506002610135946101268461014694038561094f565b01549160405194858095610a3f565b6060602085015260608401906109c4565b9060408301520390f35b6000908152602081209092505b8183106101755750508101602001600261013561010f565b60018160209294939454838588010152019101919061015d565b60ff191660208681019190915292151560051b8501909201925060029150610135905061010f565b346100b55760203660031901126100b5576101d0610939565b600080516020610bde8339815191525460ff8160401c16159167ffffffffffffffff821680159081610306575b60011490816102fc575b1590816102f3575b506102e25767ffffffffffffffff198216600117600080516020610bde8339815191525561024e91836102b5575b50610246610b0e565b6100ae610b0e565b610256610b0e565b61025c57005b68ff000000000000000019600080516020610bde8339815191525416600080516020610bde833981519152557fc7f505b2f371ae2175ee4913f4499e1f2633a7b5936321eed1cdaeb6115181d2602060405160018152a1005b68ffffffffffffffffff19166801000000000000000117600080516020610bde833981519152558361023d565b63f92ee8a960e01b60005260046000fd5b9050158461020f565b303b159150610207565b8491506101fd565b346100b55760003660031901126100b5576020600154604051908152f35b346100b55760003660031901126100b557610373604080519061034f818361094f565b60058252640352e302e360dc1b6020830152519182916020835260208301906109c4565b0390f35b346100b55760003660031901126100b557600080516020610b9e833981519152546040516001600160a01b039091168152602090f35b346100b55760003660031901126100b5576103c6610ad8565b600080516020610b9e83398151915280546001600160a01b031981169091556000906001600160a01b03167f8be0079c531659141344cd1fd0a4f28419497f9722a3daafe3b4186f6b6457e08280a3005b346100b55760403660031901126100b55760043560038110156100b55760243567ffffffffffffffff81116100b557366023820112156100b55780600401359167ffffffffffffffff83116100b55736602484840101116100b55761047a610ad8565b6001549160001983146106a4576001830160015560405190606082019082821067ffffffffffffffff83111761068e576104c191604052600095848452602436920161098d565b60208201908152604082019042825284865285602052604086209251600381101561067a5760ff8019855416911617835560018301905180519067ffffffffffffffff8211610666576105148354610a05565b601f8111610621575b50602090601f83116001146105955792826002937f6611170955c7f906971b56b266d1477306cf2c6e357d1c2c6bf440a5c55a938d989693602098968c9261058a575b50508160011b916000199060031b1c19161790555b519101556105866040518092610a3f565ba280f35b015190508b80610560565b8389528189209190601f1984168a5b8181106106095750937f6611170955c7f906971b56b266d1477306cf2c6e357d1c2c6bf440a5c55a938d989693602098969360019383600298106105f0575b505050811b019055610575565b015160001960f88460031b161c191690558b80806105e3565b929360206001819287860151815501950193016105a4565b83895260208920601f840160051c8101916020851061065c575b601f0160051c01905b818110610651575061051d565b898155600101610644565b909150819061063b565b634e487b7160e01b88526041600452602488fd5b634e487b7160e01b87526021600452602487fd5b634e487b7160e01b600052604160045260246000fd5b634e487b7160e01b600052601160045260246000fd5b346100b55760003660031901126100b5577f00000000000000000000000000000000000000000000000000000000000000006001600160a01b03163003610713576020604051600080516020610bbe8339815191528152f35b63703e46dd60e11b60005260046000fd5b60403660031901126100b557610738610939565b60243567ffffffffffffffff81116100b557366023820112156100b55761076990369060248160040135910161098d565b6001600160a01b037f000000000000000000000000000000000000000000000000000000000000000016308114908115610916575b50610713576107ab610ad8565b6040516352d1902d60e01b81526001600160a01b0383169290602081600481875afa600091816108e2575b506107f05783634c9c8ce360e01b60005260045260246000fd5b80600080516020610bbe8339815191528592036108ce5750813b156108ba57600080516020610bbe83398151915280546001600160a01b031916821790557fbc7cd75a20ee27fd9adebab32041f755214dbc6bffa90cc0225b39da2e5c2d3b600080a28151156108a0576000808360206100b395519101845af43d15610898573d9161087b83610971565b92610889604051948561094f565b83523d6000602085013e610b3c565b606091610b3c565b5050346108a957005b63b398979f60e01b60005260046000fd5b634c9c8ce360e01b60005260045260246000fd5b632a87526960e21b60005260045260246000fd5b9091506020813d60201161090e575b816108fe6020938361094f565b810103126100b5575190856107d6565b3d91506108f1565b600080516020610bbe833981519152546001600160a01b0316141590508361079e565b600435906001600160a01b03821682036100b557565b90601f8019910116810190811067ffffffffffffffff82111761068e57604052565b67ffffffffffffffff811161068e57601f01601f191660200190565b92919261099982610971565b916109a7604051938461094f565b8294818452818301116100b5578281602093846000960137010152565b919082519283825260005b8481106109f0575050826000602080949584010152601f8019910116010190565b806020809284010151828286010152016109cf565b90600182811c92168015610a35575b6020831014610a1f57565b634e487b7160e01b600052602260045260246000fd5b91607f1691610a14565b906003821015610a4c5752565b634e487b7160e01b600052602160045260246000fd5b6001600160a01b03168015610ac257600080516020610b9e83398151915280546001600160a01b0319811683179091556001600160a01b03167f8be0079c531659141344cd1fd0a4f28419497f9722a3daafe3b4186f6b6457e0600080a3565b631e4fbdf760e01b600052600060045260246000fd5b600080516020610b9e833981519152546001600160a01b03163303610af957565b63118cdaa760e01b6000523360045260246000fd5b60ff600080516020610bde8339815191525460401c1615610b2b57565b631afcd79f60e31b60005260046000fd5b90610b625750805115610b5157805190602001fd5b63d6bda27560e01b60005260046000fd5b81511580610b94575b610b73575090565b639996b31560e01b60009081526001600160a01b0391909116600452602490fd5b50803b15610b6b56fe9016d09d72d40fdae2fd8ceac6b6234c7706214fd39c1cd1e609a0528c199300360894a13ba1a3210667c828492db98dca3e2076cc3735a920a3ca505d382bbcf0c57e16840df040f15088dc2f81fe391c3923bec73e23a9662efc9c229c6a00a2646970667358221220ec4f70a310bd86be514c0a033f14906b8f91af63bf5a710a215a1a3061cdc76364736f6c634300081e0033",
  "linkReferences": {},
  "deployedLinkReferences": {}
}