{
  "_format": "hh-sol-artifact-1",
  "contractName": "TokenVesting",
  "sourceName": "contracts/TokenVesting.sol",
  "abi": [
    {
      "inputs": [],
      "stateMutability": "nonpayable",
      "type": "constructor"
    },
    {
      "inputs": [
        {
          "internalType": "address",
          "name": "target",
          "type": "address"
        }
      ],
      "name": "AddressEmptyCode",
      "type": "error"
    },
    {
      "inputs": [
        {
          "internalType": "address",
          "name": "implementation",
          "type": "address"
        }
      ],
      "name": "ERC1967InvalidImplementation",
      "type": "error"
    },
    {
      "inputs": [],
      "name": "ERC1967NonPayable",
      "type": "error"
    },
    {
      "inputs": [],
      "name": "FailedCall",
      "type": "error"
    },
    {
      "inputs": [],
      "name": "InvalidInitialization",
      "type": "error"
    },
    {
      "inputs": [],
      "name": "NotInitializing",
      "type": "error"
    },
    {
      "inputs": [
        {
          "internalType": "address",
          "name": "owner",
          "type": "address"
        }
      ],
      "name": "OwnableInvalidOwner",
      "type": "error"
    },
    {
      "inputs": [
        {
          "internalType": "address",
          "name": "account",
          "type": "address"
        }
      ],
      "name": "OwnableUnauthorizedAccount",
      "type": "error"
    },
    {
      "inputs": [],
      "name": "UUPSUnauthorizedCallContext",
      "type": "error"
    },
    {
      "inputs": [
        {
          "internalType": "bytes32",
          "name": "slot",
          "type": "bytes32"
        }
      ],
      "name": "UUPSUnsupportedProxiableUUID",
      "type": "error"
    },
    {
      "anonymous": false,
      "inputs": [
        {
          "indexed": false,
          "internalType": "uint64",
          "name": "version",
          "type": "uint64"
        }
      ],
      "name": "Initialized",
      "type": "event"
    },
    {
      "anonymous": false,
      "inputs": [
        {
          "indexed": true,
          "internalType": "address",
          "name": "previousOwner",
          "type": "address"
        },
        {
          "indexed": true,
          "internalType": "address",
          "name": "newOwner",
          "type": "address"
        }
      ],
      "name": "OwnershipTransferred",
      "type": "event"
    },
    {
      "anonymous": false,
      "inputs": [
        {
          "indexed": true,
          "internalType": "address",
          "name": "beneficiary",
          "type": "address"
        },
        {
          "indexed": false,
          "internalType": "uint256",
          "name": "amount",
          "type": "uint256"
        }
      ],
      "name": "TokensReleased",
      "type": "event"
    },
    {
      "anonymous": false,
      "inputs": [
        {
          "indexed": true,
          "internalType": "address",
          "name": "implementation",
          "type": "address"
        }
      ],
      "name": "Upgraded",
      "type": "event"
    },
    {
      "inputs": [],
      "name": "UPGRADE_INTERFACE_VERSION",
      "outputs": [
        {
          "internalType": "string",
          "name": "",
          "type": "string"
        }
      ],
      "stateMutability": "view",
      "type": "function"
    },
    {
      "inputs": [],
      "name": "beneficiary",
      "outputs": [
        {
          "internalType": "address",
          "name": "",
          "type": "address"
        }
      ],
      "stateMutability": "view",
      "type": "function"
    },
    {
      "inputs": [],
      "name": "durationSeconds",
      "outputs": [
        {
          "internalType": "uint256",
          "name": "",
          "type": "uint256"
        }
      ],
      "stateMutability": "view",
      "type": "function"
    },
    {
      "inputs": [
        {
          "internalType": "address",
          "name": "initialOwner",
          "type": "address"
        },
        {
          "internalType": "address",
          "name": "_beneficiary",
          "type": "address"
        },
        {
          "internalType": "uint256",
          "name": "_vestingDuration",
          "type": "uint256"
        },
        {
          "internalType": "address",
          "name": "_tokenAddress",
          "type": "address"
        }
      ],
      "name": "initialize",
      "outputs": [],
      "stateMutability": "nonpayable",
      "type": "function"
    },
    {
      "inputs": [],
      "name": "owner",
      "outputs": [
        {
          "internalType": "address",
          "name": "",
          "type": "address"
        }
      ],
      "stateMutability": "view",
      "type": "function"
    },
    {
      "inputs": [],
      "name": "proxiableUUID",
      "outputs": [
        {
          "internalType": "bytes32",
          "name": "",
          "type": "bytes32"
        }
      ],
      "stateMutability": "view",
      "type": "function"
    },
    {
      "inputs": [],
      "name": "release",
      "outputs": [],
      "stateMutability": "nonpayable",
      "type": "function"
    },
    {
      "inputs": [],
      "name": "releasedAmount",
      "outputs": [
        {
          "internalType": "uint256",
          "name": "",
          "type": "uint256"
        }
      ],
      "stateMutability": "view",
      "type": "function"
    },
    {
      "inputs": [],
      "name": "renounceOwnership",
      "outputs": [],
      "stateMutability": "nonpayable",
      "type": "function"
    },
    {
      "inputs": [],
      "name": "startTimestamp",
      "outputs": [
        {
          "internalType": "uint256",
          "name": "",
          "type": "uint256"
        }
      ],
      "stateMutability": "view",
      "type": "function"
    },
    {
      "inputs": [],
      "name": "startVesting",
      "outputs": [],
      "stateMutability": "nonpayable",
      "type": "function"
    },
    {
      "inputs": [],
      "name": "token",
      "outputs": [
        {
          "internalType": "contract IERC20",
          "name": "",
          "type": "address"
        }
      ],
      "stateMutability": "view",
      "type": "function"
    },
    {
      "inputs": [],
      "name": "totalVestingAmount",
      "outputs": [
        {
          "internalType": "uint256",
          "name": "",
          "type": "uint256"
        }
      ],
      "stateMutability": "view",
      "type": "function"
    },
    {
      "inputs": [
        {
          "internalType": "address",
          "name": "newOwner",
          "type": "address"
        }
      ],
      "name": "transferOwnership",
      "outputs": [],
      "stateMutability": "nonpayable",
      "type": "function"
    },
    {
      "inputs": [
        {
          "internalType": "address",
          "name": "newImplementation",
          "type": "address"
        },
        {
          "internalType": "bytes",
          "name": "data",
          "type": "bytes"
        }
      ],
      "name": "upgradeToAndCall",
      "outputs": [],
      "stateMutability": "payable",
      "type": "function"
    }
  ],
  "bytecode": "0x60a080604052346100ea57306080527ff0c57e16840df040f15088dc2f81fe391c3923bec73e23a9662efc9c229c6a005460ff8160401c166100d9576002600160401b03196001600160401b03821601610073575b604051610dcf90816100f082396080518181816107ff01526108d30152f35b6001600160401b0319166001600160401b039081177ff0c57e16840df040f15088dc2f81fe391c3923bec73e23a9662efc9c229c6a005581527fc7f505b2f371ae2175ee4913f4499e1f2633a7b5936321eed1cdaeb6115181d290602090a13880610054565b63f92ee8a960e01b60005260046000fd5b600080fdfe608080604052600436101561001357600080fd5b60003560e01c9081632db94d1914610ade5750806338af3eed14610ab557806345d30a1714610a975780634f1ef2861461085657806352d1902d146107ec578063715018a61461078257806386d1a69f146105ae5780638da5cb5b146105785780639acba2af1461055a578063ad3cb1cc146104de578063be20309414610258578063deb36e321461013b578063e6fd48bc1461011d578063f2fde38b146100f25763fc0c546a146100c457600080fd5b346100ed5760003660031901126100ed576000546040516001600160a01b039091168152602090f35b600080fd5b346100ed5760203660031901126100ed5761011b61010e610af9565b610116610c09565b610b93565b005b346100ed5760003660031901126100ed576020600254604051908152f35b346100ed5760003660031901126100ed57610154610c09565b60025461021f576000546040516370a0823160e01b815230600482015290602090829060249082906001600160a01b03165afa908115610213576000916101e1575b5080600455156101a65742600255005b60405162461bcd60e51b81526020600482015260136024820152722b32b9ba34b7339d102737903a37b5b2b7399760691b6044820152606490fd5b90506020813d60201161020b575b816101fc60209383610b0f565b810103126100ed575181610196565b3d91506101ef565b6040513d6000823e3d90fd5b60405162461bcd60e51b81526020600482015260116024820152702b32b9ba34b7339d1029ba30b93a32b21760791b6044820152606490fd5b346100ed5760803660031901126100ed57610271610af9565b6024356001600160a01b038116908190036100ed576064356001600160a01b03811691604435918390036100ed57600080516020610d7a8339815191525460ff8160401c16159467ffffffffffffffff8216801590816104d6575b60011490816104cc575b1590816104c3575b506104b25767ffffffffffffffff198216600117600080516020610d7a8339815191525561031d9186610485575b50610315610caa565b610116610caa565b610325610caa565b80156104405781156104035782156103c9576bffffffffffffffffffffffff60a01b60015416176001556003556bffffffffffffffffffffffff60a01b600054161760005561037057005b68ff000000000000000019600080516020610d7a8339815191525416600080516020610d7a833981519152557fc7f505b2f371ae2175ee4913f4499e1f2633a7b5936321eed1cdaeb6115181d2602060405160018152a1005b60405162461bcd60e51b81526020600482015260126024820152712b32b9ba34b7339d102737903a37b5b2b71760711b6044820152606490fd5b60405162461bcd60e51b81526020600482015260156024820152742b32b9ba34b7339d10273790323ab930ba34b7b71760591b6044820152606490fd5b60405162461bcd60e51b815260206004820152601860248201527f56657374696e673a204e6f2062656e65666963696172792e00000000000000006044820152606490fd5b68ffffffffffffffffff19166801000000000000000117600080516020610d7a833981519152558661030c565b63f92ee8a960e01b60005260046000fd5b905015876102de565b303b1591506102d6565b8791506102cc565b346100ed5760003660031901126100ed5760408051906104fe8183610b0f565b60058252640352e302e360dc1b6020830152805180926020825280519081602084015260005b8281106105435750506000828201840152601f01601f19168101030190f35b602082820181015187830187015286945001610524565b346100ed5760003660031901126100ed576020600354604051908152f35b346100ed5760003660031901126100ed57600080516020610d3a833981519152546040516001600160a01b039091168152602090f35b346100ed5760003660031901126100ed5760025415610745576001546001600160a01b031633819003610700576105e3610c3f565b906105f16005548093610b63565b9182156106bb5760009161060784602093610b86565b600555825460405163a9059cbb60e01b81526004810192909252602482018590529092839160449183916001600160a01b03165af1801561021357610683575b506001546040519182526001600160a01b0316907fc7798891864187665ac6dd119286e44ec13f014527aeeb2b8eb3fd413df9317990602090a2005b6020813d6020116106b3575b8161069c60209383610b0f565b810103126100ed5751801515811461064757600080fd5b3d915061068f565b60405162461bcd60e51b815260206004820152601e60248201527f56657374696e673a204e6f20746f6b656e7320746f2072656c656173652e00006044820152606490fd5b60405162461bcd60e51b815260206004820152601960248201527f56657374696e673a204e6f742062656e65666963696172792e000000000000006044820152606490fd5b60405162461bcd60e51b81526020600482015260156024820152742b32b9ba34b7339d102737ba1039ba30b93a32b21760591b6044820152606490fd5b346100ed5760003660031901126100ed5761079b610c09565b600080516020610d3a83398151915280546001600160a01b031981169091556000906001600160a01b03167f8be0079c531659141344cd1fd0a4f28419497f9722a3daafe3b4186f6b6457e08280a3005b346100ed5760003660031901126100ed577f00000000000000000000000000000000000000000000000000000000000000006001600160a01b03163003610845576020604051600080516020610d5a8339815191528152f35b63703e46dd60e11b60005260046000fd5b60403660031901126100ed5761086a610af9565b6024359067ffffffffffffffff82116100ed57366023830112156100ed5781600401359061089782610b47565b916108a56040519384610b0f565b808352602083019336602483830101116100ed57816000926024602093018737840101526001600160a01b037f000000000000000000000000000000000000000000000000000000000000000016308114908115610a74575b506108455761090b610c09565b6040516352d1902d60e01b81526001600160a01b0382169390602081600481885afa60009181610a40575b506109505784634c9c8ce360e01b60005260045260246000fd5b80600080516020610d5a833981519152869203610a2c5750823b15610a1857600080516020610d5a83398151915280546001600160a01b031916821790557fbc7cd75a20ee27fd9adebab32041f755214dbc6bffa90cc0225b39da2e5c2d3b600080a28251156109fd576000809161011b945190845af43d156109f5573d916109d883610b47565b926109e66040519485610b0f565b83523d6000602085013e610cd8565b606091610cd8565b50505034610a0757005b63b398979f60e01b60005260046000fd5b634c9c8ce360e01b60005260045260246000fd5b632a87526960e21b60005260045260246000fd5b9091506020813d602011610a6c575b81610a5c60209383610b0f565b810103126100ed57519086610936565b3d9150610a4f565b600080516020610d5a833981519152546001600160a01b031614159050846108fe565b346100ed5760003660031901126100ed576020600554604051908152f35b346100ed5760003660031901126100ed576001546040516001600160a01b039091168152602090f35b346100ed5760003660031901126100ed576020906004548152f35b600435906001600160a01b03821682036100ed57565b90601f8019910116810190811067ffffffffffffffff821117610b3157604052565b634e487b7160e01b600052604160045260246000fd5b67ffffffffffffffff8111610b3157601f01601f191660200190565b91908203918211610b7057565b634e487b7160e01b600052601160045260246000fd5b91908201809211610b7057565b6001600160a01b03168015610bf357600080516020610d3a83398151915280546001600160a01b0319811683179091556001600160a01b03167f8be0079c531659141344cd1fd0a4f28419497f9722a3daafe3b4186f6b6457e0600080a3565b631e4fbdf760e01b600052600060045260246000fd5b600080516020610d3a833981519152546001600160a01b03163303610c2a57565b63118cdaa760e01b6000523360045260246000fd5b600254804210610ca45760035490610c578282610b86565b421015610c9c57610c6b6004549142610b63565b90818102918183041490151715610b70578115610c86570490565b634e487b7160e01b600052601260045260246000fd5b505060045490565b50600090565b60ff600080516020610d7a8339815191525460401c1615610cc757565b631afcd79f60e31b60005260046000fd5b90610cfe5750805115610ced57805190602001fd5b63d6bda27560e01b60005260046000fd5b81511580610d30575b610d0f575090565b639996b31560e01b60009081526001600160a01b0391909116600452602490fd5b50803b15610d0756fe9016d09d72d40fdae2fd8ceac6b6234c7706214fd39c1cd1e609a0528c199300360894a13ba1a3210667c828492db98dca3e2076cc3735a920a3ca505d382bbcf0c57e16840df040f15088dc2f81fe391c3923bec73e23a9662efc9c229c6a00a26469706673582212203e6ceb41afffbf1b0e8581356b1259f60445b70b7296a3ea2edd3864c42eb0ab64736f6c634300081e0033",
  "linkReferences": {},
  "deployedLinkReferences": {}
}